{
  "_format": "hh-sol-artifact-1",
  "contractName": "CommissionContract",
  "sourceName": "contracts/CommissionContract/CommissionCont.sol",
  "abi": [
    {
      "inputs": [],
      "stateMutability": "nonpayable",
      "type": "constructor"
    },
    {
      "anonymous": false,
      "inputs": [
        {
          "indexed": true,
          "internalType": "address",
          "name": "previousOwner",
          "type": "address"
        },
        {
          "indexed": true,
          "internalType": "address",
          "name": "newOwner",
          "type": "address"
        }
      ],
      "name": "OwnershipTransferred",
      "type": "event"
    },
    {
      "inputs": [],
      "name": "maticSupply",
      "outputs": [
        {
          "internalType": "uint256",
          "name": "",
          "type": "uint256"
        }
      ],
      "stateMutability": "view",
      "type": "function"
    },
    {
      "inputs": [],
      "name": "owner",
      "outputs": [
        {
          "internalType": "address",
          "name": "",
          "type": "address"
        }
      ],
      "stateMutability": "view",
      "type": "function"
    },
    {
      "inputs": [
        {
          "internalType": "address",
          "name": "refferal",
          "type": "address"
        },
        {
          "internalType": "uint256",
          "name": "dappId",
          "type": "uint256"
        }
      ],
      "name": "payCommission",
      "outputs": [],
      "stateMutability": "payable",
      "type": "function"
    },
    {
      "inputs": [],
      "name": "renounceOwnership",
      "outputs": [],
      "stateMutability": "nonpayable",
      "type": "function"
    },
    {
      "inputs": [
        {
          "internalType": "uint256",
          "name": "_dappId",
          "type": "uint256"
        },
        {
          "internalType": "address",
          "name": "_dappAddr",
          "type": "address"
        }
      ],
      "name": "setDapp",
      "outputs": [],
      "stateMutability": "nonpayable",
      "type": "function"
    },
    {
      "inputs": [
        {
          "internalType": "uint256",
          "name": "_dappPercent",
          "type": "uint256"
        },
        {
          "internalType": "uint256",
          "name": "_refferalPercent",
          "type": "uint256"
        }
      ],
      "name": "setPercent",
      "outputs": [],
      "stateMutability": "nonpayable",
      "type": "function"
    },
    {
      "inputs": [
        {
          "internalType": "address",
          "name": "newOwner",
          "type": "address"
        }
      ],
      "name": "transferOwnership",
      "outputs": [],
      "stateMutability": "nonpayable",
      "type": "function"
    },
    {
      "inputs": [],
      "name": "version",
      "outputs": [
        {
          "internalType": "string",
          "name": "",
          "type": "string"
        }
      ],
      "stateMutability": "pure",
      "type": "function"
    },
    {
      "inputs": [],
      "name": "withdrawMatic",
      "outputs": [],
      "stateMutability": "nonpayable",
      "type": "function"
    }
  ],
  "bytecode": "0x608060405234801561001057600080fd5b5061001a3361002b565b6100266023602d61007b565b610161565b600080546001600160a01b038381166001600160a01b0319831681178455604051919092169283917f8be0079c531659141344cd1fd0a4f28419497f9722a3daafe3b4186f6b6457e09190a35050565b6000546001600160a01b031633146100da5760405162461bcd60e51b815260206004820181905260248201527f4f776e61626c653a2063616c6c6572206973206e6f7420746865206f776e657260448201526064015b60405180910390fd5b60646100e6828461013a565b11156101345760405162461bcd60e51b815260206004820152601360248201527f70657263656e74616765206f7665726c6f61640000000000000000000000000060448201526064016100d1565b50600155565b8082018082111561015b57634e487b7160e01b600052601160045260246000fd5b92915050565b6106a3806101706000396000f3fe6080604052600436106100855760003560e01c80638da5cb5b116100595780638da5cb5b146101065780639c92d9621461012e578063a5981e7b14610141578063c930158514610161578063f2fde38b1461018157600080fd5b80628dcf1d1461008a57806354fd4d50146100aa578063715018a6146100da578063810074c6146100f1575b600080fd5b34801561009657600080fd5b506040514781526020015b60405180910390f35b3480156100b657600080fd5b5060408051808201825260018152603160f81b602082015290516100a191906104cc565b3480156100e657600080fd5b506100ef6101a1565b005b3480156100fd57600080fd5b506100ef6101e0565b34801561011257600080fd5b506000546040516001600160a01b0390911681526020016100a1565b6100ef61013c366004610536565b610253565b34801561014d57600080fd5b506100ef61015c366004610560565b610309565b34801561016d57600080fd5b506100ef61017c366004610582565b610389565b34801561018d57600080fd5b506100ef61019c3660046105ae565b6103e1565b6000546001600160a01b031633146101d45760405162461bcd60e51b81526004016101cb906105d0565b60405180910390fd5b6101de600061047c565b565b6000546001600160a01b0316331461020a5760405162461bcd60e51b81526004016101cb906105d0565b600080546001600160a01b031690506001600160a01b0381166108fc476040518115909202916000818181858888f1935050505015801561024f573d6000803e3d6000fd5b5050565b816001600160a01b03166108fc606460025434610270919061061b565b61027a9190610638565b6040518115909202916000818181858888f193505050501580156102a2573d6000803e3d6000fd5b506000818152600360205260409020546001546001600160a01b03909116906108fc906064906102d2903461061b565b6102dc9190610638565b6040518115909202916000818181858888f19350505050158015610304573d6000803e3d6000fd5b505050565b6000546001600160a01b031633146103335760405162461bcd60e51b81526004016101cb906105d0565b606461033f828461065a565b11156103835760405162461bcd60e51b81526020600482015260136024820152721c195c98d95b9d1859d9481bdd995c9b1bd859606a1b60448201526064016101cb565b50600155565b6000546001600160a01b031633146103b35760405162461bcd60e51b81526004016101cb906105d0565b60009182526003602052604090912080546001600160a01b0319166001600160a01b03909216919091179055565b6000546001600160a01b0316331461040b5760405162461bcd60e51b81526004016101cb906105d0565b6001600160a01b0381166104705760405162461bcd60e51b815260206004820152602660248201527f4f776e61626c653a206e6577206f776e657220697320746865207a65726f206160448201526564647265737360d01b60648201526084016101cb565b6104798161047c565b50565b600080546001600160a01b038381166001600160a01b0319831681178455604051919092169283917f8be0079c531659141344cd1fd0a4f28419497f9722a3daafe3b4186f6b6457e09190a35050565b600060208083528351808285015260005b818110156104f9578581018301518582016040015282016104dd565b506000604082860101526040601f19601f8301168501019250505092915050565b80356001600160a01b038116811461053157600080fd5b919050565b6000806040838503121561054957600080fd5b6105528361051a565b946020939093013593505050565b6000806040838503121561057357600080fd5b50508035926020909101359150565b6000806040838503121561059557600080fd5b823591506105a56020840161051a565b90509250929050565b6000602082840312156105c057600080fd5b6105c98261051a565b9392505050565b6020808252818101527f4f776e61626c653a2063616c6c6572206973206e6f7420746865206f776e6572604082015260600190565b634e487b7160e01b600052601160045260246000fd5b808202811582820484141761063257610632610605565b92915050565b60008261065557634e487b7160e01b600052601260045260246000fd5b500490565b808201808211156106325761063261060556fea26469706673582212208f941b6018af5c29077a026ac60e4764f7f2c492e64cf46bad30d9ea8b556b7464736f6c63430008110033",
  "linkReferences": {},
  "deployedLinkReferences": {}
}