{
  "_format": "hh-sol-artifact-1",
  "contractName": "CommissionContract",
  "sourceName": "contracts/CommissionContract/CommissionContract.sol",
  "abi": [
    {
      "inputs": [],
      "stateMutability": "nonpayable",
      "type": "constructor"
    },
    {
      "anonymous": false,
      "inputs": [
        {
          "indexed": true,
          "internalType": "address",
          "name": "previousOwner",
          "type": "address"
        },
        {
          "indexed": true,
          "internalType": "address",
          "name": "newOwner",
          "type": "address"
        }
      ],
      "name": "OwnershipTransferred",
      "type": "event"
    },
    {
      "inputs": [],
      "name": "maticSupply",
      "outputs": [
        {
          "internalType": "uint256",
          "name": "",
          "type": "uint256"
        }
      ],
      "stateMutability": "view",
      "type": "function"
    },
    {
      "inputs": [],
      "name": "owner",
      "outputs": [
        {
          "internalType": "address",
          "name": "",
          "type": "address"
        }
      ],
      "stateMutability": "view",
      "type": "function"
    },
    {
      "inputs": [
        {
          "internalType": "address",
          "name": "refferal",
          "type": "address"
        },
        {
          "internalType": "uint256",
          "name": "dappId",
          "type": "uint256"
        }
      ],
      "name": "payCommission",
      "outputs": [],
      "stateMutability": "payable",
      "type": "function"
    },
    {
      "inputs": [],
      "name": "renounceOwnership",
      "outputs": [],
      "stateMutability": "nonpayable",
      "type": "function"
    },
    {
      "inputs": [
        {
          "internalType": "uint256",
          "name": "_dappId",
          "type": "uint256"
        },
        {
          "internalType": "address",
          "name": "_dappAddr",
          "type": "address"
        }
      ],
      "name": "setDapp",
      "outputs": [],
      "stateMutability": "nonpayable",
      "type": "function"
    },
    {
      "inputs": [
        {
          "internalType": "uint256",
          "name": "_dappPercent",
          "type": "uint256"
        },
        {
          "internalType": "uint256",
          "name": "_refferalPercent",
          "type": "uint256"
        }
      ],
      "name": "setPercent",
      "outputs": [],
      "stateMutability": "nonpayable",
      "type": "function"
    },
    {
      "inputs": [
        {
          "internalType": "address",
          "name": "newOwner",
          "type": "address"
        }
      ],
      "name": "transferOwnership",
      "outputs": [],
      "stateMutability": "nonpayable",
      "type": "function"
    },
    {
      "inputs": [],
      "name": "version",
      "outputs": [
        {
          "internalType": "string",
          "name": "",
          "type": "string"
        }
      ],
      "stateMutability": "pure",
      "type": "function"
    },
    {
      "inputs": [],
      "name": "withdrawMatic",
      "outputs": [],
      "stateMutability": "nonpayable",
      "type": "function"
    }
  ],
  "bytecode": "0x60806040523480156200001157600080fd5b5062000032620000266200004c60201b60201c565b6200005460201b60201c565b620000466023602d6200011860201b60201c565b620003ba565b600033905090565b60008060009054906101000a900473ffffffffffffffffffffffffffffffffffffffff169050816000806101000a81548173ffffffffffffffffffffffffffffffffffffffff021916908373ffffffffffffffffffffffffffffffffffffffff1602179055508173ffffffffffffffffffffffffffffffffffffffff168173ffffffffffffffffffffffffffffffffffffffff167f8be0079c531659141344cd1fd0a4f28419497f9722a3daafe3b4186f6b6457e060405160405180910390a35050565b620001286200004c60201b60201c565b73ffffffffffffffffffffffffffffffffffffffff166200014e6200020660201b60201c565b73ffffffffffffffffffffffffffffffffffffffff1614620001a7576040517f08c379a00000000000000000000000000000000000000000000000000000000081526004016200019e9062000290565b60405180910390fd5b60648183620001b79190620002eb565b1115620001fb576040517f08c379a0000000000000000000000000000000000000000000000000000000008152600401620001f29062000398565b60405180910390fd5b816001819055505050565b60008060009054906101000a900473ffffffffffffffffffffffffffffffffffffffff16905090565b600082825260208201905092915050565b7f4f776e61626c653a2063616c6c6572206973206e6f7420746865206f776e6572600082015250565b6000620002786020836200022f565b9150620002858262000240565b602082019050919050565b60006020820190508181036000830152620002ab8162000269565b9050919050565b6000819050919050565b7f4e487b7100000000000000000000000000000000000000000000000000000000600052601160045260246000fd5b6000620002f882620002b2565b91506200030583620002b2565b9250827fffffffffffffffffffffffffffffffffffffffffffffffffffffffffffffffff038211156200033d576200033c620002bc565b5b828201905092915050565b7f70657263656e74616765206f7665726c6f616400000000000000000000000000600082015250565b6000620003806013836200022f565b91506200038d8262000348565b602082019050919050565b60006020820190508181036000830152620003b38162000371565b9050919050565b610d7680620003ca6000396000f3fe6080604052600436106100855760003560e01c80638da5cb5b116100595780638da5cb5b1461010e5780639c92d96214610139578063a5981e7b14610155578063c93015851461017e578063f2fde38b146101a757610085565b80628dcf1d1461008a57806354fd4d50146100b5578063715018a6146100e0578063810074c6146100f7575b600080fd5b34801561009657600080fd5b5061009f6101d0565b6040516100ac919061081b565b60405180910390f35b3480156100c157600080fd5b506100ca6101d8565b6040516100d791906108cf565b60405180910390f35b3480156100ec57600080fd5b506100f5610215565b005b34801561010357600080fd5b5061010c61029d565b005b34801561011a57600080fd5b50610123610376565b6040516101309190610932565b60405180910390f35b610153600480360381019061014e91906109aa565b61039f565b005b34801561016157600080fd5b5061017c600480360381019061017791906109ea565b610496565b005b34801561018a57600080fd5b506101a560048036038101906101a09190610a2a565b61056c565b005b3480156101b357600080fd5b506101ce60048036038101906101c99190610a6a565b61063e565b005b600047905090565b60606040518060400160405280600181526020017f3100000000000000000000000000000000000000000000000000000000000000815250905090565b61021d610736565b73ffffffffffffffffffffffffffffffffffffffff1661023b610376565b73ffffffffffffffffffffffffffffffffffffffff1614610291576040517f08c379a000000000000000000000000000000000000000000000000000000000815260040161028890610ae3565b60405180910390fd5b61029b600061073e565b565b6102a5610736565b73ffffffffffffffffffffffffffffffffffffffff166102c3610376565b73ffffffffffffffffffffffffffffffffffffffff1614610319576040517f08c379a000000000000000000000000000000000000000000000000000000000815260040161031090610ae3565b60405180910390fd5b6000610323610376565b90508073ffffffffffffffffffffffffffffffffffffffff166108fc6103476101d0565b9081150290604051600060405180830381858888f19350505050158015610372573d6000803e3d6000fd5b5050565b60008060009054906101000a900473ffffffffffffffffffffffffffffffffffffffff16905090565b8173ffffffffffffffffffffffffffffffffffffffff166108fc6064600254346103c99190610b32565b6103d39190610bbb565b9081150290604051600060405180830381858888f193505050501580156103fe573d6000803e3d6000fd5b506003600082815260200190815260200160002060009054906101000a900473ffffffffffffffffffffffffffffffffffffffff1673ffffffffffffffffffffffffffffffffffffffff166108fc60646001543461045c9190610b32565b6104669190610bbb565b9081150290604051600060405180830381858888f19350505050158015610491573d6000803e3d6000fd5b505050565b61049e610736565b73ffffffffffffffffffffffffffffffffffffffff166104bc610376565b73ffffffffffffffffffffffffffffffffffffffff1614610512576040517f08c379a000000000000000000000000000000000000000000000000000000000815260040161050990610ae3565b60405180910390fd5b606481836105209190610bec565b1115610561576040517f08c379a000000000000000000000000000000000000000000000000000000000815260040161055890610c8e565b60405180910390fd5b816001819055505050565b610574610736565b73ffffffffffffffffffffffffffffffffffffffff16610592610376565b73ffffffffffffffffffffffffffffffffffffffff16146105e8576040517f08c379a00000000000000000000000000000000000000000000000000000000081526004016105df90610ae3565b60405180910390fd5b806003600084815260200190815260200160002060006101000a81548173ffffffffffffffffffffffffffffffffffffffff021916908373ffffffffffffffffffffffffffffffffffffffff1602179055505050565b610646610736565b73ffffffffffffffffffffffffffffffffffffffff16610664610376565b73ffffffffffffffffffffffffffffffffffffffff16146106ba576040517f08c379a00000000000000000000000000000000000000000000000000000000081526004016106b190610ae3565b60405180910390fd5b600073ffffffffffffffffffffffffffffffffffffffff168173ffffffffffffffffffffffffffffffffffffffff16141561072a576040517f08c379a000000000000000000000000000000000000000000000000000000000815260040161072190610d20565b60405180910390fd5b6107338161073e565b50565b600033905090565b60008060009054906101000a900473ffffffffffffffffffffffffffffffffffffffff169050816000806101000a81548173ffffffffffffffffffffffffffffffffffffffff021916908373ffffffffffffffffffffffffffffffffffffffff1602179055508173ffffffffffffffffffffffffffffffffffffffff168173ffffffffffffffffffffffffffffffffffffffff167f8be0079c531659141344cd1fd0a4f28419497f9722a3daafe3b4186f6b6457e060405160405180910390a35050565b6000819050919050565b61081581610802565b82525050565b6000602082019050610830600083018461080c565b92915050565b600081519050919050565b600082825260208201905092915050565b60005b83811015610870578082015181840152602081019050610855565b8381111561087f576000848401525b50505050565b6000601f19601f8301169050919050565b60006108a182610836565b6108ab8185610841565b93506108bb818560208601610852565b6108c481610885565b840191505092915050565b600060208201905081810360008301526108e98184610896565b905092915050565b600073ffffffffffffffffffffffffffffffffffffffff82169050919050565b600061091c826108f1565b9050919050565b61092c81610911565b82525050565b60006020820190506109476000830184610923565b92915050565b600080fd5b61095b81610911565b811461096657600080fd5b50565b60008135905061097881610952565b92915050565b61098781610802565b811461099257600080fd5b50565b6000813590506109a48161097e565b92915050565b600080604083850312156109c1576109c061094d565b5b60006109cf85828601610969565b92505060206109e085828601610995565b9150509250929050565b60008060408385031215610a0157610a0061094d565b5b6000610a0f85828601610995565b9250506020610a2085828601610995565b9150509250929050565b60008060408385031215610a4157610a4061094d565b5b6000610a4f85828601610995565b9250506020610a6085828601610969565b9150509250929050565b600060208284031215610a8057610a7f61094d565b5b6000610a8e84828501610969565b91505092915050565b7f4f776e61626c653a2063616c6c6572206973206e6f7420746865206f776e6572600082015250565b6000610acd602083610841565b9150610ad882610a97565b602082019050919050565b60006020820190508181036000830152610afc81610ac0565b9050919050565b7f4e487b7100000000000000000000000000000000000000000000000000000000600052601160045260246000fd5b6000610b3d82610802565b9150610b4883610802565b9250817fffffffffffffffffffffffffffffffffffffffffffffffffffffffffffffffff0483118215151615610b8157610b80610b03565b5b828202905092915050565b7f4e487b7100000000000000000000000000000000000000000000000000000000600052601260045260246000fd5b6000610bc682610802565b9150610bd183610802565b925082610be157610be0610b8c565b5b828204905092915050565b6000610bf782610802565b9150610c0283610802565b9250827fffffffffffffffffffffffffffffffffffffffffffffffffffffffffffffffff03821115610c3757610c36610b03565b5b828201905092915050565b7f70657263656e74616765206f7665726c6f616400000000000000000000000000600082015250565b6000610c78601383610841565b9150610c8382610c42565b602082019050919050565b60006020820190508181036000830152610ca781610c6b565b9050919050565b7f4f776e61626c653a206e6577206f776e657220697320746865207a65726f206160008201527f6464726573730000000000000000000000000000000000000000000000000000602082015250565b6000610d0a602683610841565b9150610d1582610cae565b604082019050919050565b60006020820190508181036000830152610d3981610cfd565b905091905056fea2646970667358221220907e28e0cf126c77e727b318af99d56b3598399af5da39c1e0c3fd32393d381a64736f6c634300080b0033",
  "linkReferences": {},
  "deployedLinkReferences": {}
}