{
  "_format": "hh-sol-artifact-1",
  "contractName": "Commission",
  "sourceName": "contracts/CommissionContract/CommissionContract.sol",
  "abi": [
    {
      "inputs": [
        {
          "internalType": "string",
          "name": "refferal",
          "type": "string"
        },
        {
          "internalType": "uint256",
          "name": "dappId",
          "type": "uint256"
        }
      ],
      "name": "buyCard",
      "outputs": [],
      "stateMutability": "payable",
      "type": "function"
    }
  ],
  "bytecode": "0x608060405234801561001057600080fd5b50610265806100206000396000f3fe60806040526004361061001e5760003560e01c8063e9b0f1b214610023575b600080fd5b61003d600480360381019061003891906101d3565b61003f565b005b5050565b6000604051905090565b600080fd5b600080fd5b600080fd5b600080fd5b6000601f19601f8301169050919050565b7f4e487b7100000000000000000000000000000000000000000000000000000000600052604160045260246000fd5b6100aa82610061565b810181811067ffffffffffffffff821117156100c9576100c8610072565b5b80604052505050565b60006100dc610043565b90506100e882826100a1565b919050565b600067ffffffffffffffff82111561010857610107610072565b5b61011182610061565b9050602081019050919050565b82818337600083830152505050565b600061014061013b846100ed565b6100d2565b90508281526020810184848401111561015c5761015b61005c565b5b61016784828561011e565b509392505050565b600082601f83011261018457610183610057565b5b813561019484826020860161012d565b91505092915050565b6000819050919050565b6101b08161019d565b81146101bb57600080fd5b50565b6000813590506101cd816101a7565b92915050565b600080604083850312156101ea576101e961004d565b5b600083013567ffffffffffffffff81111561020857610207610052565b5b6102148582860161016f565b9250506020610225858286016101be565b915050925092905056fea2646970667358221220812b9c3324818e1b8637f0e34579bf64f70d0f883f91ac61e722c1a15dddfb0064736f6c634300080b0033",
  "linkReferences": {},
  "deployedLinkReferences": {}
}