{
  "_format": "hh-sol-artifact-1",
  "contractName": "RNC",
  "sourceName": "contracts/RNC/RNC.sol",
  "abi": [
    {
      "anonymous": false,
      "inputs": [
        {
          "indexed": true,
          "internalType": "address",
          "name": "previousOwner",
          "type": "address"
        },
        {
          "indexed": true,
          "internalType": "address",
          "name": "newOwner",
          "type": "address"
        }
      ],
      "name": "OwnershipTransferred",
      "type": "event"
    },
    {
      "anonymous": false,
      "inputs": [
        {
          "indexed": false,
          "internalType": "bytes32",
          "name": "requestId",
          "type": "bytes32"
        }
      ],
      "name": "Request",
      "type": "event"
    },
    {
      "anonymous": false,
      "inputs": [
        {
          "indexed": false,
          "internalType": "bytes",
          "name": "data",
          "type": "bytes"
        }
      ],
      "name": "Response",
      "type": "event"
    },
    {
      "inputs": [],
      "name": "applicantFee",
      "outputs": [
        {
          "internalType": "uint256",
          "name": "fee",
          "type": "uint256"
        }
      ],
      "stateMutability": "view",
      "type": "function"
    },
    {
      "inputs": [
        {
          "internalType": "bytes32",
          "name": "",
          "type": "bytes32"
        }
      ],
      "name": "applicants",
      "outputs": [
        {
          "internalType": "address",
          "name": "contractAddress",
          "type": "address"
        },
        {
          "internalType": "bytes4",
          "name": "callBackSelector",
          "type": "bytes4"
        },
        {
          "internalType": "uint256",
          "name": "randomResult",
          "type": "uint256"
        }
      ],
      "stateMutability": "view",
      "type": "function"
    },
    {
      "inputs": [
        {
          "internalType": "bytes4",
          "name": "_callBackSelector",
          "type": "bytes4"
        }
      ],
      "name": "getRandomNumber",
      "outputs": [
        {
          "internalType": "bytes32",
          "name": "requestId",
          "type": "bytes32"
        }
      ],
      "stateMutability": "payable",
      "type": "function"
    },
    {
      "inputs": [],
      "name": "linkPrice",
      "outputs": [
        {
          "internalType": "uint256",
          "name": "",
          "type": "uint256"
        }
      ],
      "stateMutability": "view",
      "type": "function"
    },
    {
      "inputs": [],
      "name": "linkSupply",
      "outputs": [
        {
          "internalType": "uint256",
          "name": "",
          "type": "uint256"
        }
      ],
      "stateMutability": "view",
      "type": "function"
    },
    {
      "inputs": [],
      "name": "maticSupply",
      "outputs": [
        {
          "internalType": "uint256",
          "name": "",
          "type": "uint256"
        }
      ],
      "stateMutability": "view",
      "type": "function"
    },
    {
      "inputs": [],
      "name": "owner",
      "outputs": [
        {
          "internalType": "address",
          "name": "",
          "type": "address"
        }
      ],
      "stateMutability": "view",
      "type": "function"
    },
    {
      "inputs": [
        {
          "internalType": "bytes32",
          "name": "requestId",
          "type": "bytes32"
        },
        {
          "internalType": "uint256",
          "name": "randomness",
          "type": "uint256"
        }
      ],
      "name": "rawFulfillRandomness",
      "outputs": [],
      "stateMutability": "nonpayable",
      "type": "function"
    },
    {
      "inputs": [],
      "name": "renounceOwnership",
      "outputs": [],
      "stateMutability": "nonpayable",
      "type": "function"
    },
    {
      "inputs": [
        {
          "internalType": "address",
          "name": "newOwner",
          "type": "address"
        }
      ],
      "name": "transferOwnership",
      "outputs": [],
      "stateMutability": "nonpayable",
      "type": "function"
    },
    {
      "inputs": [],
      "name": "version",
      "outputs": [
        {
          "internalType": "string",
          "name": "",
          "type": "string"
        }
      ],
      "stateMutability": "pure",
      "type": "function"
    },
    {
      "inputs": [
        {
          "internalType": "uint256",
          "name": "amount",
          "type": "uint256"
        }
      ],
      "name": "withdrawLink",
      "outputs": [],
      "stateMutability": "nonpayable",
      "type": "function"
    },
    {
      "inputs": [],
      "name": "withdrawMatic",
      "outputs": [],
      "stateMutability": "nonpayable",
      "type": "function"
    }
  ],
  "bytecode": "0x60c06040527312162c3e810393dec01362abf156d7ecf6159528600360006101000a81548173ffffffffffffffffffffffffffffffffffffffff021916908373ffffffffffffffffffffffffffffffffffffffff16021790555034801561006557600080fd5b50738c7382f9d8f56b33781fe506e897a4f1e2d1725573326c977e6efc84e512bb9c30f76e30c160ed06fb8173ffffffffffffffffffffffffffffffffffffffff1660a08173ffffffffffffffffffffffffffffffffffffffff16815250508073ffffffffffffffffffffffffffffffffffffffff1660808173ffffffffffffffffffffffffffffffffffffffff168152505050507f6e75b569a01ef56d18cab6a8e71e6600d6ce853834d4a5748b720d06f878b3a460001b600181905550655af3107a400060028190555061014d61014261015260201b60201c565b61015a60201b60201c565b610220565b600033905090565b6000600460009054906101000a900473ffffffffffffffffffffffffffffffffffffffff16905081600460006101000a81548173ffffffffffffffffffffffffffffffffffffffff021916908373ffffffffffffffffffffffffffffffffffffffff1602179055508173ffffffffffffffffffffffffffffffffffffffff168173ffffffffffffffffffffffffffffffffffffffff167f8be0079c531659141344cd1fd0a4f28419497f9722a3daafe3b4186f6b6457e060405160405180910390a35050565b60805160a051611ae9610261600039600081816106910152610d950152600081816104eb0152818161072f015281816108cb0152610d590152611ae96000f3fe6080604052600436106100c15760003560e01c8063810074c61161007f578063ddc5899111610059578063ddc589911461021d578063f2fde38b14610248578063f5d34f2314610271578063fb9cc957146102a1576100c1565b8063810074c6146101b25780638da5cb5b146101c957806394985ddd146101f4576100c1565b80628dcf1d146100c65780630cf78535146100f157806352fa88561461011c57806354fd4d5014610147578063715018a6146101725780637a8042bd14610189575b600080fd5b3480156100d257600080fd5b506100db6102e0565b6040516100e89190611088565b60405180910390f35b3480156100fd57600080fd5b506101066102e8565b6040516101139190611088565b60405180910390f35b34801561012857600080fd5b50610131610380565b60405161013e9190611088565b60405180910390f35b34801561015357600080fd5b5061015c61039c565b604051610169919061113c565b60405180910390f35b34801561017e57600080fd5b506101876103d9565b005b34801561019557600080fd5b506101b060048036038101906101ab919061118f565b610461565b005b3480156101be57600080fd5b506101c761058c565b005b3480156101d557600080fd5b506101de610665565b6040516101eb91906111fd565b60405180910390f35b34801561020057600080fd5b5061021b6004803603810190610216919061124e565b61068f565b005b34801561022957600080fd5b5061023261072b565b60405161023f9190611088565b60405180910390f35b34801561025457600080fd5b5061026f600480360381019061026a91906112ba565b6107cc565b005b61028b6004803603810190610286919061133f565b6108c4565b604051610298919061137b565b60405180910390f35b3480156102ad57600080fd5b506102c860048036038101906102c39190611396565b610b22565b6040516102d7939291906113d2565b60405180910390f35b600047905090565b6000600360009054906101000a900473ffffffffffffffffffffffffffffffffffffffff1673ffffffffffffffffffffffffffffffffffffffff166350d25bcd6040518163ffffffff1660e01b8152600401602060405180830381865afa158015610357573d6000803e3d6000fd5b505050506040513d601f19601f8201168201806040525081019061037b919061143f565b905090565b60006103e861038d6102e8565b61039791906114ca565b905090565b60606040518060400160405280600181526020017f3100000000000000000000000000000000000000000000000000000000000000815250905090565b6103e1610b79565b73ffffffffffffffffffffffffffffffffffffffff166103ff610665565b73ffffffffffffffffffffffffffffffffffffffff1614610455576040517f08c379a000000000000000000000000000000000000000000000000000000000815260040161044c90611547565b60405180910390fd5b61045f6000610b81565b565b610469610b79565b73ffffffffffffffffffffffffffffffffffffffff16610487610665565b73ffffffffffffffffffffffffffffffffffffffff16146104dd576040517f08c379a00000000000000000000000000000000000000000000000000000000081526004016104d490611547565b60405180910390fd5b60006104e7610665565b90507f000000000000000000000000000000000000000000000000000000000000000073ffffffffffffffffffffffffffffffffffffffff1663a9059cbb82846040518363ffffffff1660e01b8152600401610544929190611567565b6020604051808303816000875af1158015610563573d6000803e3d6000fd5b505050506040513d601f19601f8201168201806040525081019061058791906115c8565b505050565b610594610b79565b73ffffffffffffffffffffffffffffffffffffffff166105b2610665565b73ffffffffffffffffffffffffffffffffffffffff1614610608576040517f08c379a00000000000000000000000000000000000000000000000000000000081526004016105ff90611547565b60405180910390fd5b6000610612610665565b90508073ffffffffffffffffffffffffffffffffffffffff166108fc6106366102e0565b9081150290604051600060405180830381858888f19350505050158015610661573d6000803e3d6000fd5b5050565b6000600460009054906101000a900473ffffffffffffffffffffffffffffffffffffffff16905090565b7f000000000000000000000000000000000000000000000000000000000000000073ffffffffffffffffffffffffffffffffffffffff163373ffffffffffffffffffffffffffffffffffffffff161461071d576040517f08c379a000000000000000000000000000000000000000000000000000000000815260040161071490611641565b60405180910390fd5b6107278282610c47565b5050565b60007f000000000000000000000000000000000000000000000000000000000000000073ffffffffffffffffffffffffffffffffffffffff166370a08231306040518263ffffffff1660e01b815260040161078691906111fd565b602060405180830381865afa1580156107a3573d6000803e3d6000fd5b505050506040513d601f19601f820116820180604052508101906107c79190611676565b905090565b6107d4610b79565b73ffffffffffffffffffffffffffffffffffffffff166107f2610665565b73ffffffffffffffffffffffffffffffffffffffff1614610848576040517f08c379a000000000000000000000000000000000000000000000000000000000815260040161083f90611547565b60405180910390fd5b600073ffffffffffffffffffffffffffffffffffffffff168173ffffffffffffffffffffffffffffffffffffffff1614156108b8576040517f08c379a00000000000000000000000000000000000000000000000000000000081526004016108af90611715565b60405180910390fd5b6108c181610b81565b50565b60006002547f000000000000000000000000000000000000000000000000000000000000000073ffffffffffffffffffffffffffffffffffffffff166370a08231306040518263ffffffff1660e01b815260040161092291906111fd565b602060405180830381865afa15801561093f573d6000803e3d6000fd5b505050506040513d601f19601f820116820180604052508101906109639190611676565b10156109a4576040517f08c379a000000000000000000000000000000000000000000000000000000000815260040161099b90611781565b60405180910390fd5b60026109ae610380565b6109b891906114ca565b3410156109fa576040517f08c379a00000000000000000000000000000000000000000000000000000000081526004016109f1906117ed565b60405180910390fd5b610a08600154600254610d55565b905060405180606001604052803373ffffffffffffffffffffffffffffffffffffffff168152602001837bffffffffffffffffffffffffffffffffffffffffffffffffffffffff1916815260200160008152506005600083815260200190815260200160002060008201518160000160006101000a81548173ffffffffffffffffffffffffffffffffffffffff021916908373ffffffffffffffffffffffffffffffffffffffff16021790555060208201518160000160146101000a81548163ffffffff021916908360e01c0217905550604082015181600101559050507f6f2c84d547103c34c868d8ad161cf5c513d18a7d50d65e15d16be17707f461ba81604051610b15919061137b565b60405180910390a1919050565b60056020528060005260406000206000915090508060000160009054906101000a900473ffffffffffffffffffffffffffffffffffffffff16908060000160149054906101000a900460e01b908060010154905083565b600033905090565b6000600460009054906101000a900473ffffffffffffffffffffffffffffffffffffffff16905081600460006101000a81548173ffffffffffffffffffffffffffffffffffffffff021916908373ffffffffffffffffffffffffffffffffffffffff1602179055508173ffffffffffffffffffffffffffffffffffffffff168173ffffffffffffffffffffffffffffffffffffffff167f8be0079c531659141344cd1fd0a4f28419497f9722a3daafe3b4186f6b6457e060405160405180910390a35050565b8060056000848152602001908152602001600020600101819055506000600560008481526020019081526020016000206040518060600160405290816000820160009054906101000a900473ffffffffffffffffffffffffffffffffffffffff1673ffffffffffffffffffffffffffffffffffffffff1673ffffffffffffffffffffffffffffffffffffffff1681526020016000820160149054906101000a900460e01b7bffffffffffffffffffffffffffffffffffffffffffffffffffffffff19167bffffffffffffffffffffffffffffffffffffffffffffffffffffffff191681526020016001820154815250509050610d50816000015182602001518360400151610ea5565b505050565b60007f000000000000000000000000000000000000000000000000000000000000000073ffffffffffffffffffffffffffffffffffffffff16634000aea07f000000000000000000000000000000000000000000000000000000000000000084866000604051602001610dc992919061180d565b6040516020818303038152906040526040518463ffffffff1660e01b8152600401610df69392919061188b565b6020604051808303816000875af1158015610e15573d6000803e3d6000fd5b505050506040513d601f19601f82011682018060405250810190610e3991906115c8565b506000610e5b8460003060008089815260200190815260200160002054611000565b9050600160008086815260200190815260200160002054610e7c91906118c9565b60008086815260200190815260200160002081905550610e9c848261103c565b91505092915050565b6000808473ffffffffffffffffffffffffffffffffffffffff168484604051602401610ed19190611088565b604051602081830303815290604052907bffffffffffffffffffffffffffffffffffffffffffffffffffffffff19166020820180517bffffffffffffffffffffffffffffffffffffffffffffffffffffffff8381831617835250505050604051610f3b919061195b565b6000604051808303816000865af19150503d8060008114610f78576040519150601f19603f3d011682016040523d82523d6000602084013e610f7d565b606091505b509150915081610fc2576040517f08c379a0000000000000000000000000000000000000000000000000000000008152600401610fb9906119be565b60405180910390fd5b7f93864668e00bfeb0cafee67ab7145a622ae39e8045304432e9a0bfb97cc04d4681604051610ff191906119de565b60405180910390a15050505050565b6000848484846040516020016110199493929190611a00565b6040516020818303038152906040528051906020012060001c9050949350505050565b60008282604051602001611051929190611a87565b60405160208183030381529060405280519060200120905092915050565b6000819050919050565b6110828161106f565b82525050565b600060208201905061109d6000830184611079565b92915050565b600081519050919050565b600082825260208201905092915050565b60005b838110156110dd5780820151818401526020810190506110c2565b838111156110ec576000848401525b50505050565b6000601f19601f8301169050919050565b600061110e826110a3565b61111881856110ae565b93506111288185602086016110bf565b611131816110f2565b840191505092915050565b600060208201905081810360008301526111568184611103565b905092915050565b600080fd5b61116c8161106f565b811461117757600080fd5b50565b60008135905061118981611163565b92915050565b6000602082840312156111a5576111a461115e565b5b60006111b38482850161117a565b91505092915050565b600073ffffffffffffffffffffffffffffffffffffffff82169050919050565b60006111e7826111bc565b9050919050565b6111f7816111dc565b82525050565b600060208201905061121260008301846111ee565b92915050565b6000819050919050565b61122b81611218565b811461123657600080fd5b50565b60008135905061124881611222565b92915050565b600080604083850312156112655761126461115e565b5b600061127385828601611239565b92505060206112848582860161117a565b9150509250929050565b611297816111dc565b81146112a257600080fd5b50565b6000813590506112b48161128e565b92915050565b6000602082840312156112d0576112cf61115e565b5b60006112de848285016112a5565b91505092915050565b60007fffffffff0000000000000000000000000000000000000000000000000000000082169050919050565b61131c816112e7565b811461132757600080fd5b50565b60008135905061133981611313565b92915050565b6000602082840312156113555761135461115e565b5b60006113638482850161132a565b91505092915050565b61137581611218565b82525050565b6000602082019050611390600083018461136c565b92915050565b6000602082840312156113ac576113ab61115e565b5b60006113ba84828501611239565b91505092915050565b6113cc816112e7565b82525050565b60006060820190506113e760008301866111ee565b6113f460208301856113c3565b6114016040830184611079565b949350505050565b6000819050919050565b61141c81611409565b811461142757600080fd5b50565b60008151905061143981611413565b92915050565b6000602082840312156114555761145461115e565b5b60006114638482850161142a565b91505092915050565b7f4e487b7100000000000000000000000000000000000000000000000000000000600052601260045260246000fd5b7f4e487b7100000000000000000000000000000000000000000000000000000000600052601160045260246000fd5b60006114d58261106f565b91506114e08361106f565b9250826114f0576114ef61146c565b5b828204905092915050565b7f4f776e61626c653a2063616c6c6572206973206e6f7420746865206f776e6572600082015250565b60006115316020836110ae565b915061153c826114fb565b602082019050919050565b6000602082019050818103600083015261156081611524565b9050919050565b600060408201905061157c60008301856111ee565b6115896020830184611079565b9392505050565b60008115159050919050565b6115a581611590565b81146115b057600080fd5b50565b6000815190506115c28161159c565b92915050565b6000602082840312156115de576115dd61115e565b5b60006115ec848285016115b3565b91505092915050565b7f4f6e6c7920565246436f6f7264696e61746f722063616e2066756c66696c6c00600082015250565b600061162b601f836110ae565b9150611636826115f5565b602082019050919050565b6000602082019050818103600083015261165a8161161e565b9050919050565b60008151905061167081611163565b92915050565b60006020828403121561168c5761168b61115e565b5b600061169a84828501611661565b91505092915050565b7f4f776e61626c653a206e6577206f776e657220697320746865207a65726f206160008201527f6464726573730000000000000000000000000000000000000000000000000000602082015250565b60006116ff6026836110ae565b915061170a826116a3565b604082019050919050565b6000602082019050818103600083015261172e816116f2565b9050919050565b7f4e6f7420656e6f756768204c494e4b0000000000000000000000000000000000600082015250565b600061176b600f836110ae565b915061177682611735565b602082019050919050565b6000602082019050818103600083015261179a8161175e565b9050919050565b7f4e6f7420656e6f756768204d4154494300000000000000000000000000000000600082015250565b60006117d76010836110ae565b91506117e2826117a1565b602082019050919050565b60006020820190508181036000830152611806816117ca565b9050919050565b6000604082019050611822600083018561136c565b61182f6020830184611079565b9392505050565b600081519050919050565b600082825260208201905092915050565b600061185d82611836565b6118678185611841565b93506118778185602086016110bf565b611880816110f2565b840191505092915050565b60006060820190506118a060008301866111ee565b6118ad6020830185611079565b81810360408301526118bf8184611852565b9050949350505050565b60006118d48261106f565b91506118df8361106f565b9250827fffffffffffffffffffffffffffffffffffffffffffffffffffffffffffffffff038211156119145761191361149b565b5b828201905092915050565b600081905092915050565b600061193582611836565b61193f818561191f565b935061194f8185602086016110bf565b80840191505092915050565b6000611967828461192a565b915081905092915050565b7f436f756c64204e6f7420526573706f6e73652052616e646f6d6e657373000000600082015250565b60006119a8601d836110ae565b91506119b382611972565b602082019050919050565b600060208201905081810360008301526119d78161199b565b9050919050565b600060208201905081810360008301526119f88184611852565b905092915050565b6000608082019050611a15600083018761136c565b611a226020830186611079565b611a2f60408301856111ee565b611a3c6060830184611079565b95945050505050565b6000819050919050565b611a60611a5b82611218565b611a45565b82525050565b6000819050919050565b611a81611a7c8261106f565b611a66565b82525050565b6000611a938285611a4f565b602082019150611aa38284611a70565b602082019150819050939250505056fea2646970667358221220dd6e2c3659f61c8602178aa5812b7fd240944d00d710304925e7a30bac48a73b64736f6c634300080b0033",
  "linkReferences": {},
  "deployedLinkReferences": {}
}