{
  "_format": "hh-sol-artifact-1",
  "contractName": "RNC",
  "sourceName": "contracts/RNC/RNC.sol",
  "abi": [
    {
      "anonymous": false,
      "inputs": [
        {
          "indexed": true,
          "internalType": "address",
          "name": "previousOwner",
          "type": "address"
        },
        {
          "indexed": true,
          "internalType": "address",
          "name": "newOwner",
          "type": "address"
        }
      ],
      "name": "OwnershipTransferred",
      "type": "event"
    },
    {
      "inputs": [],
      "name": "applicantFee",
      "outputs": [
        {
          "internalType": "uint256",
          "name": "fee",
          "type": "uint256"
        }
      ],
      "stateMutability": "view",
      "type": "function"
    },
    {
      "inputs": [],
      "name": "linkPrice",
      "outputs": [
        {
          "internalType": "uint256",
          "name": "",
          "type": "uint256"
        }
      ],
      "stateMutability": "view",
      "type": "function"
    },
    {
      "inputs": [],
      "name": "linkSupply",
      "outputs": [
        {
          "internalType": "uint256",
          "name": "",
          "type": "uint256"
        }
      ],
      "stateMutability": "view",
      "type": "function"
    },
    {
      "inputs": [],
      "name": "maticSupply",
      "outputs": [
        {
          "internalType": "uint256",
          "name": "",
          "type": "uint256"
        }
      ],
      "stateMutability": "view",
      "type": "function"
    },
    {
      "inputs": [],
      "name": "owner",
      "outputs": [
        {
          "internalType": "address",
          "name": "",
          "type": "address"
        }
      ],
      "stateMutability": "view",
      "type": "function"
    },
    {
      "inputs": [
        {
          "internalType": "bytes32",
          "name": "requestId",
          "type": "bytes32"
        },
        {
          "internalType": "uint256",
          "name": "randomness",
          "type": "uint256"
        }
      ],
      "name": "rawFulfillRandomness",
      "outputs": [],
      "stateMutability": "nonpayable",
      "type": "function"
    },
    {
      "inputs": [],
      "name": "renounceOwnership",
      "outputs": [],
      "stateMutability": "nonpayable",
      "type": "function"
    },
    {
      "inputs": [
        {
          "internalType": "address",
          "name": "newOwner",
          "type": "address"
        }
      ],
      "name": "transferOwnership",
      "outputs": [],
      "stateMutability": "nonpayable",
      "type": "function"
    },
    {
      "inputs": [
        {
          "internalType": "uint256",
          "name": "amount",
          "type": "uint256"
        }
      ],
      "name": "withdrawLink",
      "outputs": [],
      "stateMutability": "nonpayable",
      "type": "function"
    },
    {
      "inputs": [],
      "name": "withdrawMatic",
      "outputs": [],
      "stateMutability": "nonpayable",
      "type": "function"
    }
  ],
  "bytecode": "0x60c0604052600380546001600160a01b031916735787befdc0ecd210dfa948264631cd53e68f780217905534801561003657600080fd5b50733d2341adb2d31f1c5530cdc622016af293177ae060a05273b0897686c545045afc77cf20ec7a532e3120e0f16080527ff86195cf7690c55907b2b611ebb7343a6f649bff128701cc542f0569e2c549da600155655af3107a400060025561009e336100a3565b6100f5565b600480546001600160a01b038381166001600160a01b0319831681179093556040519116919082907f8be0079c531659141344cd1fd0a4f28419497f9722a3daafe3b4186f6b6457e090600090a35050565b60805160a051610664610121600039600061035e01526000818161026501526103f501526106646000f3fe608060405234801561001057600080fd5b506004361061009d5760003560e01c8063810074c611610066578063810074c6146100e45780638da5cb5b146100ec57806394985ddd14610107578063ddc589911461011a578063f2fde38b1461012257600080fd5b80628dcf1d146100a25780630cf78535146100b757806352fa8856146100bf578063715018a6146100c75780637a8042bd146100d1575b600080fd5b475b6040519081526020015b60405180910390f35b6100a4610135565b6100a46101a8565b6100cf6101bf565b005b6100cf6100df366004610531565b6101fe565b6100cf6102d9565b6004546040516001600160a01b0390911681526020016100ae565b6100cf61011536600461054a565b610353565b6100a46103dd565b6100cf61013036600461056c565b610444565b600354604080516350d25bcd60e01b815290516000926001600160a01b0316916350d25bcd9160048083019260209291908290030181865afa15801561017f573d6000803e3d6000fd5b505050506040513d601f19601f820116820180604052508101906101a3919061059c565b905090565b60006103e86101b5610135565b6101a391906105b5565b6004546001600160a01b031633146101f25760405162461bcd60e51b81526004016101e9906105d7565b60405180910390fd5b6101fc60006104df565b565b6004546001600160a01b031633146102285760405162461bcd60e51b81526004016101e9906105d7565b600061023c6004546001600160a01b031690565b60405163a9059cbb60e01b81526001600160a01b038083166004830152602482018590529192507f00000000000000000000000000000000000000000000000000000000000000009091169063a9059cbb906044016020604051808303816000875af11580156102b0573d6000803e3d6000fd5b505050506040513d601f19601f820116820180604052508101906102d4919061060c565b505050565b6004546001600160a01b031633146103035760405162461bcd60e51b81526004016101e9906105d7565b60006103176004546001600160a01b031690565b90506001600160a01b0381166108fc476040518115909202916000818181858888f1935050505015801561034f573d6000803e3d6000fd5b5050565b336001600160a01b037f000000000000000000000000000000000000000000000000000000000000000016146103cb5760405162461bcd60e51b815260206004820152601f60248201527f4f6e6c7920565246436f6f7264696e61746f722063616e2066756c66696c6c0060448201526064016101e9565b60009182526005602052604090912055565b6040516370a0823160e01b81523060048201526000907f00000000000000000000000000000000000000000000000000000000000000006001600160a01b0316906370a0823190602401602060405180830381865afa15801561017f573d6000803e3d6000fd5b6004546001600160a01b0316331461046e5760405162461bcd60e51b81526004016101e9906105d7565b6001600160a01b0381166104d35760405162461bcd60e51b815260206004820152602660248201527f4f776e61626c653a206e6577206f776e657220697320746865207a65726f206160448201526564647265737360d01b60648201526084016101e9565b6104dc816104df565b50565b600480546001600160a01b038381166001600160a01b0319831681179093556040519116919082907f8be0079c531659141344cd1fd0a4f28419497f9722a3daafe3b4186f6b6457e090600090a35050565b60006020828403121561054357600080fd5b5035919050565b6000806040838503121561055d57600080fd5b50508035926020909101359150565b60006020828403121561057e57600080fd5b81356001600160a01b038116811461059557600080fd5b9392505050565b6000602082840312156105ae57600080fd5b5051919050565b6000826105d257634e487b7160e01b600052601260045260246000fd5b500490565b6020808252818101527f4f776e61626c653a2063616c6c6572206973206e6f7420746865206f776e6572604082015260600190565b60006020828403121561061e57600080fd5b8151801515811461059557600080fdfea2646970667358221220a92fc640e8c2d57f2bc7e46e3893032942a878848f296e92203f807391e697e064736f6c63430008110033",
  "linkReferences": {},
  "deployedLinkReferences": {}
}