{
  "_format": "hh-sol-artifact-1",
  "contractName": "RNC",
  "sourceName": "contracts/RNC/RNC.sol",
  "abi": [
    {
      "anonymous": false,
      "inputs": [
        {
          "indexed": true,
          "internalType": "address",
          "name": "previousOwner",
          "type": "address"
        },
        {
          "indexed": true,
          "internalType": "address",
          "name": "newOwner",
          "type": "address"
        }
      ],
      "name": "OwnershipTransferred",
      "type": "event"
    },
    {
      "anonymous": false,
      "inputs": [
        {
          "indexed": false,
          "internalType": "bytes32",
          "name": "requestId",
          "type": "bytes32"
        }
      ],
      "name": "Request",
      "type": "event"
    },
    {
      "anonymous": false,
      "inputs": [
        {
          "indexed": false,
          "internalType": "bytes",
          "name": "data",
          "type": "bytes"
        }
      ],
      "name": "Response",
      "type": "event"
    },
    {
      "inputs": [],
      "name": "applicantFee",
      "outputs": [
        {
          "internalType": "uint256",
          "name": "fee",
          "type": "uint256"
        }
      ],
      "stateMutability": "view",
      "type": "function"
    },
    {
      "inputs": [
        {
          "internalType": "bytes32",
          "name": "",
          "type": "bytes32"
        }
      ],
      "name": "applicants",
      "outputs": [
        {
          "internalType": "address",
          "name": "contractAddress",
          "type": "address"
        },
        {
          "internalType": "bytes4",
          "name": "callBackSelector",
          "type": "bytes4"
        },
        {
          "internalType": "uint256",
          "name": "randomResult",
          "type": "uint256"
        }
      ],
      "stateMutability": "view",
      "type": "function"
    },
    {
      "inputs": [
        {
          "internalType": "bytes4",
          "name": "_callBackSelector",
          "type": "bytes4"
        }
      ],
      "name": "getRandomNumber",
      "outputs": [
        {
          "internalType": "bytes32",
          "name": "requestId",
          "type": "bytes32"
        }
      ],
      "stateMutability": "payable",
      "type": "function"
    },
    {
      "inputs": [],
      "name": "linkPrice",
      "outputs": [
        {
          "internalType": "uint256",
          "name": "",
          "type": "uint256"
        }
      ],
      "stateMutability": "view",
      "type": "function"
    },
    {
      "inputs": [],
      "name": "linkSupply",
      "outputs": [
        {
          "internalType": "uint256",
          "name": "",
          "type": "uint256"
        }
      ],
      "stateMutability": "view",
      "type": "function"
    },
    {
      "inputs": [],
      "name": "maticSupply",
      "outputs": [
        {
          "internalType": "uint256",
          "name": "",
          "type": "uint256"
        }
      ],
      "stateMutability": "view",
      "type": "function"
    },
    {
      "inputs": [],
      "name": "owner",
      "outputs": [
        {
          "internalType": "address",
          "name": "",
          "type": "address"
        }
      ],
      "stateMutability": "view",
      "type": "function"
    },
    {
      "inputs": [
        {
          "internalType": "bytes32",
          "name": "requestId",
          "type": "bytes32"
        },
        {
          "internalType": "uint256",
          "name": "randomness",
          "type": "uint256"
        }
      ],
      "name": "rawFulfillRandomness",
      "outputs": [],
      "stateMutability": "nonpayable",
      "type": "function"
    },
    {
      "inputs": [],
      "name": "renounceOwnership",
      "outputs": [],
      "stateMutability": "nonpayable",
      "type": "function"
    },
    {
      "inputs": [
        {
          "internalType": "address",
          "name": "newOwner",
          "type": "address"
        }
      ],
      "name": "transferOwnership",
      "outputs": [],
      "stateMutability": "nonpayable",
      "type": "function"
    },
    {
      "inputs": [
        {
          "internalType": "uint256",
          "name": "amount",
          "type": "uint256"
        }
      ],
      "name": "withdrawLink",
      "outputs": [],
      "stateMutability": "nonpayable",
      "type": "function"
    },
    {
      "inputs": [],
      "name": "withdrawMatic",
      "outputs": [],
      "stateMutability": "nonpayable",
      "type": "function"
    }
  ],
  "bytecode": "0x60c06040527312162c3e810393dec01362abf156d7ecf6159528600360006101000a81548173ffffffffffffffffffffffffffffffffffffffff021916908373ffffffffffffffffffffffffffffffffffffffff16021790555034801561006557600080fd5b50738c7382f9d8f56b33781fe506e897a4f1e2d1725573326c977e6efc84e512bb9c30f76e30c160ed06fb8173ffffffffffffffffffffffffffffffffffffffff1660a08173ffffffffffffffffffffffffffffffffffffffff16815250508073ffffffffffffffffffffffffffffffffffffffff1660808173ffffffffffffffffffffffffffffffffffffffff168152505050507f6e75b569a01ef56d18cab6a8e71e6600d6ce853834d4a5748b720d06f878b3a460001b600181905550655af3107a400060028190555061014d61014261015260201b60201c565b61015a60201b60201c565b610220565b600033905090565b6000600460009054906101000a900473ffffffffffffffffffffffffffffffffffffffff16905081600460006101000a81548173ffffffffffffffffffffffffffffffffffffffff021916908373ffffffffffffffffffffffffffffffffffffffff1602179055508173ffffffffffffffffffffffffffffffffffffffff168173ffffffffffffffffffffffffffffffffffffffff167f8be0079c531659141344cd1fd0a4f28419497f9722a3daafe3b4186f6b6457e060405160405180910390a35050565b60805160a051611a006102616000396000818161060e0152610d12015260008181610468015281816106ac015281816108480152610cd60152611a006000f3fe6080604052600436106100a65760003560e01c80638da5cb5b116100645780638da5cb5b1461018357806394985ddd146101ae578063ddc58991146101d7578063f2fde38b14610202578063f5d34f231461022b578063fb9cc9571461025b576100a6565b80628dcf1d146100ab5780630cf78535146100d657806352fa885614610101578063715018a61461012c5780637a8042bd14610143578063810074c61461016c575b600080fd5b3480156100b757600080fd5b506100c061029a565b6040516100cd9190611005565b60405180910390f35b3480156100e257600080fd5b506100eb6102a2565b6040516100f89190611005565b60405180910390f35b34801561010d57600080fd5b5061011661033a565b6040516101239190611005565b60405180910390f35b34801561013857600080fd5b50610141610356565b005b34801561014f57600080fd5b5061016a60048036038101906101659190611051565b6103de565b005b34801561017857600080fd5b50610181610509565b005b34801561018f57600080fd5b506101986105e2565b6040516101a591906110bf565b60405180910390f35b3480156101ba57600080fd5b506101d560048036038101906101d09190611110565b61060c565b005b3480156101e357600080fd5b506101ec6106a8565b6040516101f99190611005565b60405180910390f35b34801561020e57600080fd5b506102296004803603810190610224919061117c565b610749565b005b61024560048036038101906102409190611201565b610841565b604051610252919061123d565b60405180910390f35b34801561026757600080fd5b50610282600480360381019061027d9190611258565b610a9f565b60405161029193929190611294565b60405180910390f35b600047905090565b6000600360009054906101000a900473ffffffffffffffffffffffffffffffffffffffff1673ffffffffffffffffffffffffffffffffffffffff166350d25bcd6040518163ffffffff1660e01b8152600401602060405180830381865afa158015610311573d6000803e3d6000fd5b505050506040513d601f19601f820116820180604052508101906103359190611301565b905090565b60006103e86103476102a2565b610351919061138c565b905090565b61035e610af6565b73ffffffffffffffffffffffffffffffffffffffff1661037c6105e2565b73ffffffffffffffffffffffffffffffffffffffff16146103d2576040517f08c379a00000000000000000000000000000000000000000000000000000000081526004016103c99061141a565b60405180910390fd5b6103dc6000610afe565b565b6103e6610af6565b73ffffffffffffffffffffffffffffffffffffffff166104046105e2565b73ffffffffffffffffffffffffffffffffffffffff161461045a576040517f08c379a00000000000000000000000000000000000000000000000000000000081526004016104519061141a565b60405180910390fd5b60006104646105e2565b90507f000000000000000000000000000000000000000000000000000000000000000073ffffffffffffffffffffffffffffffffffffffff1663a9059cbb82846040518363ffffffff1660e01b81526004016104c192919061143a565b6020604051808303816000875af11580156104e0573d6000803e3d6000fd5b505050506040513d601f19601f82011682018060405250810190610504919061149b565b505050565b610511610af6565b73ffffffffffffffffffffffffffffffffffffffff1661052f6105e2565b73ffffffffffffffffffffffffffffffffffffffff1614610585576040517f08c379a000000000000000000000000000000000000000000000000000000000815260040161057c9061141a565b60405180910390fd5b600061058f6105e2565b90508073ffffffffffffffffffffffffffffffffffffffff166108fc6105b361029a565b9081150290604051600060405180830381858888f193505050501580156105de573d6000803e3d6000fd5b5050565b6000600460009054906101000a900473ffffffffffffffffffffffffffffffffffffffff16905090565b7f000000000000000000000000000000000000000000000000000000000000000073ffffffffffffffffffffffffffffffffffffffff163373ffffffffffffffffffffffffffffffffffffffff161461069a576040517f08c379a000000000000000000000000000000000000000000000000000000000815260040161069190611514565b60405180910390fd5b6106a48282610bc4565b5050565b60007f000000000000000000000000000000000000000000000000000000000000000073ffffffffffffffffffffffffffffffffffffffff166370a08231306040518263ffffffff1660e01b815260040161070391906110bf565b602060405180830381865afa158015610720573d6000803e3d6000fd5b505050506040513d601f19601f820116820180604052508101906107449190611549565b905090565b610751610af6565b73ffffffffffffffffffffffffffffffffffffffff1661076f6105e2565b73ffffffffffffffffffffffffffffffffffffffff16146107c5576040517f08c379a00000000000000000000000000000000000000000000000000000000081526004016107bc9061141a565b60405180910390fd5b600073ffffffffffffffffffffffffffffffffffffffff168173ffffffffffffffffffffffffffffffffffffffff161415610835576040517f08c379a000000000000000000000000000000000000000000000000000000000815260040161082c906115e8565b60405180910390fd5b61083e81610afe565b50565b60006002547f000000000000000000000000000000000000000000000000000000000000000073ffffffffffffffffffffffffffffffffffffffff166370a08231306040518263ffffffff1660e01b815260040161089f91906110bf565b602060405180830381865afa1580156108bc573d6000803e3d6000fd5b505050506040513d601f19601f820116820180604052508101906108e09190611549565b1015610921576040517f08c379a000000000000000000000000000000000000000000000000000000000815260040161091890611654565b60405180910390fd5b600261092b61033a565b610935919061138c565b341015610977576040517f08c379a000000000000000000000000000000000000000000000000000000000815260040161096e906116c0565b60405180910390fd5b610985600154600254610cd2565b905060405180606001604052803373ffffffffffffffffffffffffffffffffffffffff168152602001837bffffffffffffffffffffffffffffffffffffffffffffffffffffffff1916815260200160008152506005600083815260200190815260200160002060008201518160000160006101000a81548173ffffffffffffffffffffffffffffffffffffffff021916908373ffffffffffffffffffffffffffffffffffffffff16021790555060208201518160000160146101000a81548163ffffffff021916908360e01c0217905550604082015181600101559050507f6f2c84d547103c34c868d8ad161cf5c513d18a7d50d65e15d16be17707f461ba81604051610a92919061123d565b60405180910390a1919050565b60056020528060005260406000206000915090508060000160009054906101000a900473ffffffffffffffffffffffffffffffffffffffff16908060000160149054906101000a900460e01b908060010154905083565b600033905090565b6000600460009054906101000a900473ffffffffffffffffffffffffffffffffffffffff16905081600460006101000a81548173ffffffffffffffffffffffffffffffffffffffff021916908373ffffffffffffffffffffffffffffffffffffffff1602179055508173ffffffffffffffffffffffffffffffffffffffff168173ffffffffffffffffffffffffffffffffffffffff167f8be0079c531659141344cd1fd0a4f28419497f9722a3daafe3b4186f6b6457e060405160405180910390a35050565b8060056000848152602001908152602001600020600101819055506000600560008481526020019081526020016000206040518060600160405290816000820160009054906101000a900473ffffffffffffffffffffffffffffffffffffffff1673ffffffffffffffffffffffffffffffffffffffff1673ffffffffffffffffffffffffffffffffffffffff1681526020016000820160149054906101000a900460e01b7bffffffffffffffffffffffffffffffffffffffffffffffffffffffff19167bffffffffffffffffffffffffffffffffffffffffffffffffffffffff191681526020016001820154815250509050610ccd816000015182602001518360400151610e22565b505050565b60007f000000000000000000000000000000000000000000000000000000000000000073ffffffffffffffffffffffffffffffffffffffff16634000aea07f000000000000000000000000000000000000000000000000000000000000000084866000604051602001610d469291906116e0565b6040516020818303038152906040526040518463ffffffff1660e01b8152600401610d73939291906117a2565b6020604051808303816000875af1158015610d92573d6000803e3d6000fd5b505050506040513d601f19601f82011682018060405250810190610db6919061149b565b506000610dd88460003060008089815260200190815260200160002054610f7d565b9050600160008086815260200190815260200160002054610df991906117e0565b60008086815260200190815260200160002081905550610e198482610fb9565b91505092915050565b6000808473ffffffffffffffffffffffffffffffffffffffff168484604051602401610e4e9190611005565b604051602081830303815290604052907bffffffffffffffffffffffffffffffffffffffffffffffffffffffff19166020820180517bffffffffffffffffffffffffffffffffffffffffffffffffffffffff8381831617835250505050604051610eb89190611872565b6000604051808303816000865af19150503d8060008114610ef5576040519150601f19603f3d011682016040523d82523d6000602084013e610efa565b606091505b509150915081610f3f576040517f08c379a0000000000000000000000000000000000000000000000000000000008152600401610f36906118d5565b60405180910390fd5b7f93864668e00bfeb0cafee67ab7145a622ae39e8045304432e9a0bfb97cc04d4681604051610f6e91906118f5565b60405180910390a15050505050565b600084848484604051602001610f969493929190611917565b6040516020818303038152906040528051906020012060001c9050949350505050565b60008282604051602001610fce92919061199e565b60405160208183030381529060405280519060200120905092915050565b6000819050919050565b610fff81610fec565b82525050565b600060208201905061101a6000830184610ff6565b92915050565b600080fd5b61102e81610fec565b811461103957600080fd5b50565b60008135905061104b81611025565b92915050565b60006020828403121561106757611066611020565b5b60006110758482850161103c565b91505092915050565b600073ffffffffffffffffffffffffffffffffffffffff82169050919050565b60006110a98261107e565b9050919050565b6110b98161109e565b82525050565b60006020820190506110d460008301846110b0565b92915050565b6000819050919050565b6110ed816110da565b81146110f857600080fd5b50565b60008135905061110a816110e4565b92915050565b6000806040838503121561112757611126611020565b5b6000611135858286016110fb565b92505060206111468582860161103c565b9150509250929050565b6111598161109e565b811461116457600080fd5b50565b60008135905061117681611150565b92915050565b60006020828403121561119257611191611020565b5b60006111a084828501611167565b91505092915050565b60007fffffffff0000000000000000000000000000000000000000000000000000000082169050919050565b6111de816111a9565b81146111e957600080fd5b50565b6000813590506111fb816111d5565b92915050565b60006020828403121561121757611216611020565b5b6000611225848285016111ec565b91505092915050565b611237816110da565b82525050565b6000602082019050611252600083018461122e565b92915050565b60006020828403121561126e5761126d611020565b5b600061127c848285016110fb565b91505092915050565b61128e816111a9565b82525050565b60006060820190506112a960008301866110b0565b6112b66020830185611285565b6112c36040830184610ff6565b949350505050565b6000819050919050565b6112de816112cb565b81146112e957600080fd5b50565b6000815190506112fb816112d5565b92915050565b60006020828403121561131757611316611020565b5b6000611325848285016112ec565b91505092915050565b7f4e487b7100000000000000000000000000000000000000000000000000000000600052601260045260246000fd5b7f4e487b7100000000000000000000000000000000000000000000000000000000600052601160045260246000fd5b600061139782610fec565b91506113a283610fec565b9250826113b2576113b161132e565b5b828204905092915050565b600082825260208201905092915050565b7f4f776e61626c653a2063616c6c6572206973206e6f7420746865206f776e6572600082015250565b60006114046020836113bd565b915061140f826113ce565b602082019050919050565b60006020820190508181036000830152611433816113f7565b9050919050565b600060408201905061144f60008301856110b0565b61145c6020830184610ff6565b9392505050565b60008115159050919050565b61147881611463565b811461148357600080fd5b50565b6000815190506114958161146f565b92915050565b6000602082840312156114b1576114b0611020565b5b60006114bf84828501611486565b91505092915050565b7f4f6e6c7920565246436f6f7264696e61746f722063616e2066756c66696c6c00600082015250565b60006114fe601f836113bd565b9150611509826114c8565b602082019050919050565b6000602082019050818103600083015261152d816114f1565b9050919050565b60008151905061154381611025565b92915050565b60006020828403121561155f5761155e611020565b5b600061156d84828501611534565b91505092915050565b7f4f776e61626c653a206e6577206f776e657220697320746865207a65726f206160008201527f6464726573730000000000000000000000000000000000000000000000000000602082015250565b60006115d26026836113bd565b91506115dd82611576565b604082019050919050565b60006020820190508181036000830152611601816115c5565b9050919050565b7f4e6f7420656e6f756768204c494e4b0000000000000000000000000000000000600082015250565b600061163e600f836113bd565b915061164982611608565b602082019050919050565b6000602082019050818103600083015261166d81611631565b9050919050565b7f4e6f7420656e6f756768204d4154494300000000000000000000000000000000600082015250565b60006116aa6010836113bd565b91506116b582611674565b602082019050919050565b600060208201905081810360008301526116d98161169d565b9050919050565b60006040820190506116f5600083018561122e565b6117026020830184610ff6565b9392505050565b600081519050919050565b600082825260208201905092915050565b60005b83811015611743578082015181840152602081019050611728565b83811115611752576000848401525b50505050565b6000601f19601f8301169050919050565b600061177482611709565b61177e8185611714565b935061178e818560208601611725565b61179781611758565b840191505092915050565b60006060820190506117b760008301866110b0565b6117c46020830185610ff6565b81810360408301526117d68184611769565b9050949350505050565b60006117eb82610fec565b91506117f683610fec565b9250827fffffffffffffffffffffffffffffffffffffffffffffffffffffffffffffffff0382111561182b5761182a61135d565b5b828201905092915050565b600081905092915050565b600061184c82611709565b6118568185611836565b9350611866818560208601611725565b80840191505092915050565b600061187e8284611841565b915081905092915050565b7f436f756c64204e6f7420526573706f6e73652052616e646f6d6e657373000000600082015250565b60006118bf601d836113bd565b91506118ca82611889565b602082019050919050565b600060208201905081810360008301526118ee816118b2565b9050919050565b6000602082019050818103600083015261190f8184611769565b905092915050565b600060808201905061192c600083018761122e565b6119396020830186610ff6565b61194660408301856110b0565b6119536060830184610ff6565b95945050505050565b6000819050919050565b611977611972826110da565b61195c565b82525050565b6000819050919050565b61199861199382610fec565b61197d565b82525050565b60006119aa8285611966565b6020820191506119ba8284611987565b602082019150819050939250505056fea264697066735822122006a22730b87736753d893c6a4dae125345a25025a4d2d33daff7f1869c686e1064736f6c634300080b0033",
  "linkReferences": {},
  "deployedLinkReferences": {}
}