{
  "_format": "hh-sol-artifact-1",
  "contractName": "PowerNFT",
  "sourceName": "contracts/PowerNFT/PowerNFT.sol",
  "abi": [
    {
      "inputs": [],
      "stateMutability": "nonpayable",
      "type": "constructor"
    },
    {
      "anonymous": false,
      "inputs": [
        {
          "indexed": true,
          "internalType": "address",
          "name": "owner",
          "type": "address"
        },
        {
          "indexed": true,
          "internalType": "address",
          "name": "approved",
          "type": "address"
        },
        {
          "indexed": true,
          "internalType": "uint256",
          "name": "tokenId",
          "type": "uint256"
        }
      ],
      "name": "Approval",
      "type": "event"
    },
    {
      "anonymous": false,
      "inputs": [
        {
          "indexed": true,
          "internalType": "address",
          "name": "owner",
          "type": "address"
        },
        {
          "indexed": true,
          "internalType": "address",
          "name": "operator",
          "type": "address"
        },
        {
          "indexed": false,
          "internalType": "bool",
          "name": "approved",
          "type": "bool"
        }
      ],
      "name": "ApprovalForAll",
      "type": "event"
    },
    {
      "anonymous": false,
      "inputs": [
        {
          "indexed": true,
          "internalType": "address",
          "name": "previousOwner",
          "type": "address"
        },
        {
          "indexed": true,
          "internalType": "address",
          "name": "newOwner",
          "type": "address"
        }
      ],
      "name": "OwnershipTransferred",
      "type": "event"
    },
    {
      "anonymous": false,
      "inputs": [
        {
          "indexed": false,
          "internalType": "bytes32",
          "name": "requestId",
          "type": "bytes32"
        }
      ],
      "name": "RollDice",
      "type": "event"
    },
    {
      "anonymous": false,
      "inputs": [
        {
          "indexed": true,
          "internalType": "address",
          "name": "from",
          "type": "address"
        },
        {
          "indexed": true,
          "internalType": "address",
          "name": "to",
          "type": "address"
        },
        {
          "indexed": true,
          "internalType": "uint256",
          "name": "tokenId",
          "type": "uint256"
        }
      ],
      "name": "Transfer",
      "type": "event"
    },
    {
      "anonymous": false,
      "inputs": [
        {
          "indexed": false,
          "internalType": "uint256",
          "name": "tokenId",
          "type": "uint256"
        },
        {
          "indexed": false,
          "internalType": "uint256",
          "name": "amount",
          "type": "uint256"
        }
      ],
      "name": "Win",
      "type": "event"
    },
    {
      "inputs": [
        {
          "internalType": "uint256",
          "name": "tokenId",
          "type": "uint256"
        }
      ],
      "name": "NFTBalance",
      "outputs": [
        {
          "internalType": "uint256",
          "name": "",
          "type": "uint256"
        }
      ],
      "stateMutability": "view",
      "type": "function"
    },
    {
      "inputs": [
        {
          "internalType": "uint256",
          "name": "tokenId",
          "type": "uint256"
        }
      ],
      "name": "NFTValue",
      "outputs": [
        {
          "internalType": "uint256",
          "name": "",
          "type": "uint256"
        }
      ],
      "stateMutability": "view",
      "type": "function"
    },
    {
      "inputs": [],
      "name": "applicantFee",
      "outputs": [
        {
          "internalType": "uint256",
          "name": "fee",
          "type": "uint256"
        }
      ],
      "stateMutability": "view",
      "type": "function"
    },
    {
      "inputs": [
        {
          "internalType": "address",
          "name": "to",
          "type": "address"
        },
        {
          "internalType": "uint256",
          "name": "tokenId",
          "type": "uint256"
        }
      ],
      "name": "approve",
      "outputs": [],
      "stateMutability": "nonpayable",
      "type": "function"
    },
    {
      "inputs": [
        {
          "internalType": "address",
          "name": "owner",
          "type": "address"
        }
      ],
      "name": "balanceOf",
      "outputs": [
        {
          "internalType": "uint256",
          "name": "",
          "type": "uint256"
        }
      ],
      "stateMutability": "view",
      "type": "function"
    },
    {
      "inputs": [
        {
          "internalType": "uint256",
          "name": "tokenId",
          "type": "uint256"
        }
      ],
      "name": "burnAndWithdraw",
      "outputs": [],
      "stateMutability": "nonpayable",
      "type": "function"
    },
    {
      "inputs": [
        {
          "internalType": "string",
          "name": "uri",
          "type": "string"
        },
        {
          "internalType": "address",
          "name": "refferal",
          "type": "address"
        },
        {
          "internalType": "uint256",
          "name": "dappId",
          "type": "uint256"
        }
      ],
      "name": "buyCard",
      "outputs": [],
      "stateMutability": "payable",
      "type": "function"
    },
    {
      "inputs": [
        {
          "internalType": "uint256",
          "name": "tokenId",
          "type": "uint256"
        }
      ],
      "name": "getApproved",
      "outputs": [
        {
          "internalType": "address",
          "name": "",
          "type": "address"
        }
      ],
      "stateMutability": "view",
      "type": "function"
    },
    {
      "inputs": [
        {
          "internalType": "address",
          "name": "owner",
          "type": "address"
        },
        {
          "internalType": "address",
          "name": "operator",
          "type": "address"
        }
      ],
      "name": "isApprovedForAll",
      "outputs": [
        {
          "internalType": "bool",
          "name": "",
          "type": "bool"
        }
      ],
      "stateMutability": "view",
      "type": "function"
    },
    {
      "inputs": [],
      "name": "lastRandom",
      "outputs": [
        {
          "internalType": "uint256",
          "name": "",
          "type": "uint256"
        }
      ],
      "stateMutability": "view",
      "type": "function"
    },
    {
      "inputs": [],
      "name": "linkPrice",
      "outputs": [
        {
          "internalType": "uint256",
          "name": "",
          "type": "uint256"
        }
      ],
      "stateMutability": "view",
      "type": "function"
    },
    {
      "inputs": [],
      "name": "linkSupply",
      "outputs": [
        {
          "internalType": "uint256",
          "name": "",
          "type": "uint256"
        }
      ],
      "stateMutability": "view",
      "type": "function"
    },
    {
      "inputs": [],
      "name": "maticSupply",
      "outputs": [
        {
          "internalType": "uint256",
          "name": "",
          "type": "uint256"
        }
      ],
      "stateMutability": "view",
      "type": "function"
    },
    {
      "inputs": [],
      "name": "name",
      "outputs": [
        {
          "internalType": "string",
          "name": "",
          "type": "string"
        }
      ],
      "stateMutability": "view",
      "type": "function"
    },
    {
      "inputs": [],
      "name": "owner",
      "outputs": [
        {
          "internalType": "address",
          "name": "",
          "type": "address"
        }
      ],
      "stateMutability": "view",
      "type": "function"
    },
    {
      "inputs": [
        {
          "internalType": "uint256",
          "name": "tokenId",
          "type": "uint256"
        }
      ],
      "name": "ownerOf",
      "outputs": [
        {
          "internalType": "address",
          "name": "",
          "type": "address"
        }
      ],
      "stateMutability": "view",
      "type": "function"
    },
    {
      "inputs": [
        {
          "internalType": "bytes32",
          "name": "requestId",
          "type": "bytes32"
        },
        {
          "internalType": "uint256",
          "name": "randomness",
          "type": "uint256"
        }
      ],
      "name": "rawFulfillRandomness",
      "outputs": [],
      "stateMutability": "nonpayable",
      "type": "function"
    },
    {
      "inputs": [],
      "name": "renounceOwnership",
      "outputs": [],
      "stateMutability": "nonpayable",
      "type": "function"
    },
    {
      "inputs": [],
      "name": "rollDice",
      "outputs": [],
      "stateMutability": "nonpayable",
      "type": "function"
    },
    {
      "inputs": [
        {
          "internalType": "address",
          "name": "from",
          "type": "address"
        },
        {
          "internalType": "address",
          "name": "to",
          "type": "address"
        },
        {
          "internalType": "uint256",
          "name": "tokenId",
          "type": "uint256"
        }
      ],
      "name": "safeTransferFrom",
      "outputs": [],
      "stateMutability": "nonpayable",
      "type": "function"
    },
    {
      "inputs": [
        {
          "internalType": "address",
          "name": "from",
          "type": "address"
        },
        {
          "internalType": "address",
          "name": "to",
          "type": "address"
        },
        {
          "internalType": "uint256",
          "name": "tokenId",
          "type": "uint256"
        },
        {
          "internalType": "bytes",
          "name": "_data",
          "type": "bytes"
        }
      ],
      "name": "safeTransferFrom",
      "outputs": [],
      "stateMutability": "nonpayable",
      "type": "function"
    },
    {
      "inputs": [
        {
          "internalType": "address",
          "name": "operator",
          "type": "address"
        },
        {
          "internalType": "bool",
          "name": "approved",
          "type": "bool"
        }
      ],
      "name": "setApprovalForAll",
      "outputs": [],
      "stateMutability": "nonpayable",
      "type": "function"
    },
    {
      "inputs": [
        {
          "internalType": "uint256",
          "name": "_chancePercent",
          "type": "uint256"
        }
      ],
      "name": "setChancePercent",
      "outputs": [],
      "stateMutability": "nonpayable",
      "type": "function"
    },
    {
      "inputs": [
        {
          "internalType": "uint256",
          "name": "_commissionPercent",
          "type": "uint256"
        }
      ],
      "name": "setCommissionPercent",
      "outputs": [],
      "stateMutability": "nonpayable",
      "type": "function"
    },
    {
      "inputs": [
        {
          "internalType": "uint256",
          "name": "_power",
          "type": "uint256"
        }
      ],
      "name": "setPower",
      "outputs": [],
      "stateMutability": "nonpayable",
      "type": "function"
    },
    {
      "inputs": [
        {
          "internalType": "uint256",
          "name": "_roundTime",
          "type": "uint256"
        }
      ],
      "name": "setRoundTime",
      "outputs": [],
      "stateMutability": "nonpayable",
      "type": "function"
    },
    {
      "inputs": [
        {
          "internalType": "uint256",
          "name": "_roundTime",
          "type": "uint256"
        },
        {
          "internalType": "uint256",
          "name": "_chancePercent",
          "type": "uint256"
        },
        {
          "internalType": "uint256",
          "name": "_power",
          "type": "uint256"
        },
        {
          "internalType": "uint256",
          "name": "_commissionPercent",
          "type": "uint256"
        }
      ],
      "name": "setVars",
      "outputs": [],
      "stateMutability": "nonpayable",
      "type": "function"
    },
    {
      "inputs": [
        {
          "internalType": "bytes4",
          "name": "interfaceId",
          "type": "bytes4"
        }
      ],
      "name": "supportsInterface",
      "outputs": [
        {
          "internalType": "bool",
          "name": "",
          "type": "bool"
        }
      ],
      "stateMutability": "view",
      "type": "function"
    },
    {
      "inputs": [],
      "name": "symbol",
      "outputs": [
        {
          "internalType": "string",
          "name": "",
          "type": "string"
        }
      ],
      "stateMutability": "view",
      "type": "function"
    },
    {
      "inputs": [
        {
          "internalType": "uint256",
          "name": "tokenId",
          "type": "uint256"
        }
      ],
      "name": "tokenURI",
      "outputs": [
        {
          "internalType": "string",
          "name": "",
          "type": "string"
        }
      ],
      "stateMutability": "view",
      "type": "function"
    },
    {
      "inputs": [],
      "name": "totalSupply",
      "outputs": [
        {
          "internalType": "uint256",
          "name": "",
          "type": "uint256"
        }
      ],
      "stateMutability": "view",
      "type": "function"
    },
    {
      "inputs": [],
      "name": "totalValueLocked",
      "outputs": [
        {
          "internalType": "uint256",
          "name": "",
          "type": "uint256"
        }
      ],
      "stateMutability": "view",
      "type": "function"
    },
    {
      "inputs": [
        {
          "internalType": "address",
          "name": "from",
          "type": "address"
        },
        {
          "internalType": "address",
          "name": "to",
          "type": "address"
        },
        {
          "internalType": "uint256",
          "name": "tokenId",
          "type": "uint256"
        }
      ],
      "name": "transferFrom",
      "outputs": [],
      "stateMutability": "nonpayable",
      "type": "function"
    },
    {
      "inputs": [
        {
          "internalType": "address",
          "name": "newOwner",
          "type": "address"
        }
      ],
      "name": "transferOwnership",
      "outputs": [],
      "stateMutability": "nonpayable",
      "type": "function"
    },
    {
      "inputs": [
        {
          "internalType": "uint256",
          "name": "amount",
          "type": "uint256"
        }
      ],
      "name": "withdrawLink",
      "outputs": [],
      "stateMutability": "nonpayable",
      "type": "function"
    },
    {
      "inputs": [],
      "name": "withdrawMatic",
      "outputs": [],
      "stateMutability": "nonpayable",
      "type": "function"
    }
  ],
  "bytecode": "0x60c0604052600380546001600160a01b031916735787befdc0ecd210dfa948264631cd53e68f78021790553480156200003757600080fd5b506040805180820182526008815267141bddd95c93919560c21b60208083019190915282518084019093526003835262282ba960e91b90830152733d2341adb2d31f1c5530cdc622016af293177ae060a05273b0897686c545045afc77cf20ec7a532e3120e0f16080527ff86195cf7690c55907b2b611ebb7343a6f649bff128701cc542f0569e2c549da600155655af3107a4000600255906004620000de8382620002d2565b506005620000ed8282620002d2565b5050506200010a620001046200014a60201b60201c565b6200014e565b600c80546001600160a01b031916736aad5a41f93ff379624678f052f395c82294e53d1790556200014462015180604b60026019620001a0565b6200039e565b3390565b600b80546001600160a01b038381166001600160a01b0319831681179093556040519116919082907f8be0079c531659141344cd1fd0a4f28419497f9722a3daafe3b4186f6b6457e090600090a35050565b600b546001600160a01b03163314620001ff5760405162461bcd60e51b815260206004820181905260248201527f4f776e61626c653a2063616c6c6572206973206e6f7420746865206f776e6572604482015260640160405180910390fd5b6200020984600d55565b6200021383600e55565b6200021d82600f55565b6200022781601055565b50505050565b634e487b7160e01b600052604160045260246000fd5b600181811c908216806200025857607f821691505b6020821081036200027957634e487b7160e01b600052602260045260246000fd5b50919050565b601f821115620002cd57600081815260208120601f850160051c81016020861015620002a85750805b601f850160051c820191505b81811015620002c957828155600101620002b4565b5050505b505050565b81516001600160401b03811115620002ee57620002ee6200022d565b6200030681620002ff845462000243565b846200027f565b602080601f8311600181146200033e5760008415620003255750858301515b600019600386901b1c1916600185901b178555620002c9565b600085815260208120601f198616915b828110156200036f578886015182559484019460019091019084016200034e565b50858210156200038e5787850151600019600388901b60f8161c191681555b5050505050600190811b01905550565b60805160a051612d2c620003e060003960008181610eaf0152611956015260008181610c1201528181610fc80152818161148c01526119270152612d2c6000f3fe60806040526004361061020e5760003560e01c80637c695cc111610118578063a856b9c2116100a0578063e985e9c51161006f578063e985e9c5146105bc578063ec18154e146105dc578063f2fde38b146105f1578063fa65cb0414610611578063fa8f04fb1461063157600080fd5b8063a856b9c214610552578063b88d4fde14610567578063c87b56dd14610587578063ddc58991146105a757600080fd5b80638da5cb5b116100e75780638da5cb5b146104bf57806394985ddd146104dd57806395d89b41146104fd578063a1d0b34a14610512578063a22cb4651461053257600080fd5b80637c695cc114610462578063810074c614610482578063837e7cc61461049757806386e3f9da146104ac57600080fd5b8063404a9ab81161019b5780636352211e1161016a5780636352211e146103cd57806370a08231146103ed578063715018a61461040d57806373a587d0146104225780637a8042bd1461044257600080fd5b8063404a9ab81461035857806342842e0e1461037857806352fa885614610398578063538bb562146103ad57600080fd5b8063095ea7b3116101e2578063095ea7b3146102bf5780630cf78535146102e157806318160ddd146102f657806323b872dd1461030b57806323df1a891461032b57600080fd5b80628dcf1d1461021357806301ffc9a71461023557806306fdde0314610265578063081812fc14610287575b600080fd5b34801561021f57600080fd5b50475b6040519081526020015b60405180910390f35b34801561024157600080fd5b5061025561025036600461258f565b61065e565b604051901515815260200161022c565b34801561027157600080fd5b5061027a6106b0565b60405161022c91906125fc565b34801561029357600080fd5b506102a76102a236600461260f565b610742565b6040516001600160a01b03909116815260200161022c565b3480156102cb57600080fd5b506102df6102da366004612644565b6107cf565b005b3480156102ed57600080fd5b506102226108e4565b34801561030257600080fd5b50601154610222565b34801561031757600080fd5b506102df61032636600461266e565b610957565b34801561033757600080fd5b5061022261034636600461260f565b60009081526018602052604090205490565b34801561036457600080fd5b506102df61037336600461260f565b610988565b34801561038457600080fd5b506102df61039336600461266e565b6109be565b3480156103a457600080fd5b506102226109d9565b3480156103b957600080fd5b506102df6103c83660046126aa565b6109f0565b3480156103d957600080fd5b506102a76103e836600461260f565b610a44565b3480156103f957600080fd5b506102226104083660046126dc565b610abb565b34801561041957600080fd5b506102df610b42565b34801561042e57600080fd5b506102df61043d36600461260f565b610b78565b34801561044e57600080fd5b506102df61045d36600461260f565b610bab565b34801561046e57600080fd5b506102df61047d36600461260f565b610c81565b34801561048e57600080fd5b506102df610d6d565b3480156104a357600080fd5b506102df610de7565b6102df6104ba366004612783565b610e8f565b3480156104cb57600080fd5b50600b546001600160a01b03166102a7565b3480156104e957600080fd5b506102df6104f83660046127de565b610ea4565b34801561050957600080fd5b5061027a610f26565b34801561051e57600080fd5b506102df61052d36600461260f565b610f35565b34801561053e57600080fd5b506102df61054d36600461280e565b610f68565b34801561055e57600080fd5b50601254610222565b34801561057357600080fd5b506102df610582366004612845565b610f73565b34801561059357600080fd5b5061027a6105a236600461260f565b610fa5565b3480156105b357600080fd5b50610222610fb0565b3480156105c857600080fd5b506102556105d73660046128c1565b611017565b3480156105e857600080fd5b50601654610222565b3480156105fd57600080fd5b506102df61060c3660046126dc565b611045565b34801561061d57600080fd5b506102df61062c36600461260f565b6110dd565b34801561063d57600080fd5b5061022261064c36600461260f565b60009081526017602052604090205490565b60006001600160e01b031982166380ac58cd60e01b148061068f57506001600160e01b03198216635b5e139f60e01b145b806106aa57506301ffc9a760e01b6001600160e01b03198316145b92915050565b6060600480546106bf906128f4565b80601f01602080910402602001604051908101604052809291908181526020018280546106eb906128f4565b80156107385780601f1061070d57610100808354040283529160200191610738565b820191906000526020600020905b81548152906001019060200180831161071b57829003601f168201915b5050505050905090565b600061074d82611110565b6107b35760405162461bcd60e51b815260206004820152602c60248201527f4552433732313a20617070726f76656420717565727920666f72206e6f6e657860448201526b34b9ba32b73a103a37b5b2b760a11b60648201526084015b60405180910390fd5b506000908152600860205260409020546001600160a01b031690565b60006107da82610a44565b9050806001600160a01b0316836001600160a01b0316036108475760405162461bcd60e51b815260206004820152602160248201527f4552433732313a20617070726f76616c20746f2063757272656e74206f776e656044820152603960f91b60648201526084016107aa565b336001600160a01b038216148061086357506108638133611017565b6108d55760405162461bcd60e51b815260206004820152603860248201527f4552433732313a20617070726f76652063616c6c6572206973206e6f74206f7760448201527f6e6572206e6f7220617070726f76656420666f7220616c6c000000000000000060648201526084016107aa565b6108df838361112d565b505050565b600354604080516350d25bcd60e01b815290516000926001600160a01b0316916350d25bcd9160048083019260209291908290030181865afa15801561092e573d6000803e3d6000fd5b505050506040513d601f19601f82011682018060405250810190610952919061292e565b905090565b610961338261119b565b61097d5760405162461bcd60e51b81526004016107aa90612947565b6108df838383611265565b600b546001600160a01b031633146109b25760405162461bcd60e51b81526004016107aa90612998565b6109bb81601055565b50565b6108df83838360405180602001604052806000815250610f73565b60006103e86109e66108e4565b61095291906129f9565b600b546001600160a01b03163314610a1a5760405162461bcd60e51b81526004016107aa90612998565b610a2384600d55565b610a2c83600e55565b610a3582600f55565b610a3e81601055565b50505050565b6000818152600660205260408120546001600160a01b0316806106aa5760405162461bcd60e51b815260206004820152602960248201527f4552433732313a206f776e657220717565727920666f72206e6f6e657869737460448201526832b73a103a37b5b2b760b91b60648201526084016107aa565b60006001600160a01b038216610b265760405162461bcd60e51b815260206004820152602a60248201527f4552433732313a2062616c616e636520717565727920666f7220746865207a65604482015269726f206164647265737360b01b60648201526084016107aa565b506001600160a01b031660009081526007602052604090205490565b600b546001600160a01b03163314610b6c5760405162461bcd60e51b81526004016107aa90612998565b610b766000611405565b565b600b546001600160a01b03163314610ba25760405162461bcd60e51b81526004016107aa90612998565b6109bb81600e55565b600b546001600160a01b03163314610bd55760405162461bcd60e51b81526004016107aa90612998565b6000610be9600b546001600160a01b031690565b60405163a9059cbb60e01b81526001600160a01b038083166004830152602482018590529192507f00000000000000000000000000000000000000000000000000000000000000009091169063a9059cbb906044016020604051808303816000875af1158015610c5d573d6000803e3d6000fd5b505050506040513d601f19601f820116820180604052508101906108df9190612a0d565b6000610c8c82610a44565b90506001600160a01b0381163314610cf85760405162461bcd60e51b815260206004820152602960248201527f796f752063616e206e6f74207769746864726177207468697320746f6b656e27604482015268732062616c616e636560b81b60648201526084016107aa565b6000828152601860205260408120546016805491928392610d1a908490612a2a565b9091555050600083815260186020526040812055610d3783611457565b6040516001600160a01b0383169082156108fc029083906000818181858888f19350505050158015610a3e573d6000803e3d6000fd5b600b546001600160a01b03163314610d975760405162461bcd60e51b81526004016107aa90612998565b6000610dab600b546001600160a01b031690565b90506001600160a01b0381166108fc476040518115909202916000818181858888f19350505050158015610de3573d6000803e3d6000fd5b5050565b601454421015610e475760405162461bcd60e51b815260206004820152602560248201527f796f75206861766520746f207761697420756e74696c6c20646561646c696e65604482015264207061737360d81b60648201526084016107aa565b6000610e51611468565b90507f72179fcf9070583e88aa5e724a71e6affe79c12733c644cc78fe215dde9fa00281604051610e8491815260200190565b60405180910390a150565b610e9a348383611545565b6108df8334611611565b336001600160a01b037f00000000000000000000000000000000000000000000000000000000000000001614610f1c5760405162461bcd60e51b815260206004820152601f60248201527f4f6e6c7920565246436f6f7264696e61746f722063616e2066756c66696c6c0060448201526064016107aa565b610de38282611643565b6060600580546106bf906128f4565b600b546001600160a01b03163314610f5f5760405162461bcd60e51b81526004016107aa90612998565b6109bb81600f55565b610de333838361165d565b610f7d338361119b565b610f995760405162461bcd60e51b81526004016107aa90612947565b610a3e8484848461172b565b60606106aa8261175e565b6040516370a0823160e01b81523060048201526000907f00000000000000000000000000000000000000000000000000000000000000006001600160a01b0316906370a0823190602401602060405180830381865afa15801561092e573d6000803e3d6000fd5b6001600160a01b03918216600090815260096020908152604080832093909416825291909152205460ff1690565b600b546001600160a01b0316331461106f5760405162461bcd60e51b81526004016107aa90612998565b6001600160a01b0381166110d45760405162461bcd60e51b815260206004820152602660248201527f4f776e61626c653a206e6577206f776e657220697320746865207a65726f206160448201526564647265737360d01b60648201526084016107aa565b6109bb81611405565b600b546001600160a01b031633146111075760405162461bcd60e51b81526004016107aa90612998565b6109bb81600d55565b6000908152600660205260409020546001600160a01b0316151590565b600081815260086020526040902080546001600160a01b0319166001600160a01b038416908117909155819061116282610a44565b6001600160a01b03167f8c5be1e5ebec7d5bd14f71427d1e84f3dd0314c0f7b2291e5b200ac8c7c3b92560405160405180910390a45050565b60006111a682611110565b6112075760405162461bcd60e51b815260206004820152602c60248201527f4552433732313a206f70657261746f7220717565727920666f72206e6f6e657860448201526b34b9ba32b73a103a37b5b2b760a11b60648201526084016107aa565b600061121283610a44565b9050806001600160a01b0316846001600160a01b0316148061124d5750836001600160a01b031661124284610742565b6001600160a01b0316145b8061125d575061125d8185611017565b949350505050565b826001600160a01b031661127882610a44565b6001600160a01b0316146112e05760405162461bcd60e51b815260206004820152602960248201527f4552433732313a207472616e73666572206f6620746f6b656e2074686174206960448201526839903737ba1037bbb760b91b60648201526084016107aa565b6001600160a01b0382166113425760405162461bcd60e51b8152602060048201526024808201527f4552433732313a207472616e7366657220746f20746865207a65726f206164646044820152637265737360e01b60648201526084016107aa565b61134d60008261112d565b6001600160a01b0383166000908152600760205260408120805460019290611376908490612a2a565b90915550506001600160a01b03821660009081526007602052604081208054600192906113a4908490612a3d565b909155505060008181526006602052604080822080546001600160a01b0319166001600160a01b0386811691821790925591518493918716917fddf252ad1be2c89b69c2b068fc378daa952ba7f163c4a11628f55a4df523b3ef91a4505050565b600b80546001600160a01b038381166001600160a01b0319831681179093556040519116919082907f8be0079c531659141344cd1fd0a4f28419497f9722a3daafe3b4186f6b6457e090600090a35050565b611460816118cc565b6109bb61190c565b6002546040516370a0823160e01b8152306004820152600091906001600160a01b037f000000000000000000000000000000000000000000000000000000000000000016906370a0823190602401602060405180830381865afa1580156114d3573d6000803e3d6000fd5b505050506040513d601f19601f820116820180604052508101906114f7919061292e565b10156115375760405162461bcd60e51b815260206004820152600f60248201526e4e6f7420656e6f756768204c494e4b60881b60448201526064016107aa565b610952600154600254611923565b600061154f6109d9565b905061155b8185612a2a565b935061156681611a9a565b60006064601054866115789190612a50565b61158291906129f9565b905080851115611601576115968186612a2a565b600c54604051634e496cb160e11b81526001600160a01b03878116600483015260248201879052929750911690639c92d9629083906044016000604051808303818588803b1580156115e757600080fd5b505af11580156115fb573d6000803e3d6000fd5b50505050505b61160a85611ae3565b5050505050565b600061161b611afd565b90506116273382611b1d565b6116318184611b37565b60009081526017602052604090205550565b6000828152601960205260409020819055610de381611bbb565b816001600160a01b0316836001600160a01b0316036116be5760405162461bcd60e51b815260206004820152601960248201527f4552433732313a20617070726f766520746f2063616c6c65720000000000000060448201526064016107aa565b6001600160a01b03838116600081815260096020908152604080832094871680845294825291829020805460ff191686151590811790915591519182527f17307eab39ab6107e8899845ad3d59bd9653f200f220920489ca2b5937696c31910160405180910390a3505050565b611736848484611265565b61174284848484611c87565b610a3e5760405162461bcd60e51b81526004016107aa90612a67565b606061176982611110565b6117cf5760405162461bcd60e51b815260206004820152603160248201527f45524337323155524953746f726167653a2055524920717565727920666f72206044820152703737b732bc34b9ba32b73a103a37b5b2b760791b60648201526084016107aa565b6000828152600a6020526040812080546117e8906128f4565b80601f0160208091040260200160405190810160405280929190818152602001828054611814906128f4565b80156118615780601f1061183657610100808354040283529160200191611861565b820191906000526020600020905b81548152906001019060200180831161184457829003601f168201915b50505050509050600061187f60408051602081019091526000815290565b90508051600003611891575092915050565b8151156118c35780826040516020016118ab929190612ab9565b60405160208183030381529060405292505050919050565b61125d84611d88565b6118d581611e60565b6000818152600a6020526040902080546118ee906128f4565b1590506109bb576000818152600a602052604081206109bb9161252b565b6011805490600061191c83612ae8565b9190505550565b60007f00000000000000000000000000000000000000000000000000000000000000006001600160a01b0316634000aea07f000000000000000000000000000000000000000000000000000000000000000084866000604051602001611993929190918252602082015260400190565b6040516020818303038152906040526040518463ffffffff1660e01b81526004016119c093929190612aff565b6020604051808303816000875af11580156119df573d6000803e3d6000fd5b505050506040513d601f19601f82011682018060405250810190611a039190612a0d565b5060008381526020818152604080832054815180840188905280830185905230606082015260808082018390528351808303909101815260a090910190925281519183019190912086845292909152611a5d906001612a3d565b600085815260208181526040918290209290925580518083018790528082018490528151808203830181526060909101909152805191012061125d565b6000611aa582611efb565b9050611ada7353e0bca35ec356bd5dddfebbd1fc0fd03fabad3973aa1dc356dc4b18f30c347798fd5379f3d77abc5b83612126565b610de38161221f565b8060166000828254611af59190612a3d565b909155505050565b6000611b076122b4565b60155415611b16575060155490565b5060115490565b610de38282604051806020016040528060008152506122c4565b611b4082611110565b611ba35760405162461bcd60e51b815260206004820152602e60248201527f45524337323155524953746f726167653a2055524920736574206f66206e6f6e60448201526d32bc34b9ba32b73a103a37b5b2b760911b60648201526084016107aa565b6000828152600a602052604090206108df8282612b7d565b611bc481601255565b600e54611bd2606483612c3d565b11611c7d576000611be46064836129f9565b9050600060115482611bf69190612c3d565b611c01906001612a3d565b600081815260176020526040812054600f549293509091611c229190612a50565b9050611c2d82601355565b600082815260186020526040902081905560408051838152602081018390527f4545df8bdbf258e643214cfbd34c6f316adf04fd11fd845524d9e54a0268d86b910160405180910390a150505050565b6109bb6000601355565b60006001600160a01b0384163b15611d7d57604051630a85bd0160e11b81526001600160a01b0385169063150b7a0290611ccb903390899088908890600401612c51565b6020604051808303816000875af1925050508015611d06575060408051601f3d908101601f19168201909252611d0391810190612c8e565b60015b611d63573d808015611d34576040519150601f19603f3d011682016040523d82523d6000602084013e611d39565b606091505b508051600003611d5b5760405162461bcd60e51b81526004016107aa90612a67565b805181602001fd5b6001600160e01b031916630a85bd0160e11b14905061125d565b506001949350505050565b6060611d9382611110565b611df75760405162461bcd60e51b815260206004820152602f60248201527f4552433732314d657461646174613a2055524920717565727920666f72206e6f60448201526e3732bc34b9ba32b73a103a37b5b2b760891b60648201526084016107aa565b6000611e0e60408051602081019091526000815290565b90506000815111611e2e5760405180602001604052806000815250611e59565b80611e38846122f7565b604051602001611e49929190612ab9565b6040516020818303038152906040525b9392505050565b6000611e6b82610a44565b9050611e7860008361112d565b6001600160a01b0381166000908152600760205260408120805460019290611ea1908490612a2a565b909155505060008281526006602052604080822080546001600160a01b0319169055518391906001600160a01b038416907fddf252ad1be2c89b69c2b068fc378daa952ba7f163c4a11628f55a4df523b3ef908390a45050565b6040516370a0823160e01b8152306004820152600090730d500b1d8e8ef31e21c99d1db9a6444d3adf127090819063d0e30db09082906370a0823190602401602060405180830381865afa158015611f57573d6000803e3d6000fd5b505050506040513d601f19601f82011682018060405250810190611f7b919061292e565b611f859086612a2a565b6040518263ffffffff1660e01b81526004016000604051808303818588803b158015611fb057600080fd5b505af1158015611fc4573d6000803e3d6000fd5b5050505050611ffc730d500b1d8e8ef31e21c99d1db9a6444d3adf127073e592427a0aece92de3edee1f18e0157c0586156485612126565b6040805161010081018252730d500b1d8e8ef31e21c99d1db9a6444d3adf127081527353e0bca35ec356bd5dddfebbd1fc0fd03fabad3960208201908152610bb88284019081523060608401908152426080850190815260a08501898152600060c0870181815260e08801918252975163414bf38960e01b815287516001600160a01b039081166004830152965187166024820152945162ffffff166044860152925185166064850152905160848401525160a4830152935160c482015292511660e48301529073e592427a0aece92de3edee1f18e0157c058615649063414bf38990610104016020604051808303816000875af1158015612102573d6000803e3d6000fd5b505050506040513d601f19601f8201168201806040525081019061125d919061292e565b604080516001600160a01b038481166024830152604480830185905283518084039091018152606490920183526020820180516001600160e01b031663095ea7b360e01b17905291516000928392908716916121829190612cab565b6000604051808303816000865af19150503d80600081146121bf576040519150601f19603f3d011682016040523d82523d6000602084013e6121c4565b606091505b50915091508180156121ee5750805115806121ee5750808060200190518101906121ee9190612a0d565b61160a5760405162461bcd60e51b8152602060048201526002602482015261534160f01b60448201526064016107aa565b604051632b7f092360e01b8152600481018290527353e0bca35ec356bd5dddfebbd1fc0fd03fabad39602482015273b0897686c545045afc77cf20ec7a532e3120e0f1604482015273aa1dc356dc4b18f30c347798fd5379f3d77abc5b90632b7f092390606401600060405180830381600087803b1580156122a057600080fd5b505af115801561160a573d6000803e3d6000fd5b6011805490600061191c83612cc7565b6122ce83836123f8565b6122db6000848484611c87565b6108df5760405162461bcd60e51b81526004016107aa90612a67565b60608160000361231e5750506040805180820190915260018152600360fc1b602082015290565b8160005b8115612348578061233281612cc7565b91506123419050600a836129f9565b9150612322565b60008167ffffffffffffffff811115612363576123636126f7565b6040519080825280601f01601f19166020018201604052801561238d576020820181803683370190505b5090505b841561125d576123a2600183612a2a565b91506123af600a86612c3d565b6123ba906030612a3d565b60f81b8183815181106123cf576123cf612ce0565b60200101906001600160f81b031916908160001a9053506123f1600a866129f9565b9450612391565b6001600160a01b03821661244e5760405162461bcd60e51b815260206004820181905260248201527f4552433732313a206d696e7420746f20746865207a65726f206164647265737360448201526064016107aa565b61245781611110565b156124a45760405162461bcd60e51b815260206004820152601c60248201527f4552433732313a20746f6b656e20616c7265616479206d696e7465640000000060448201526064016107aa565b6001600160a01b03821660009081526007602052604081208054600192906124cd908490612a3d565b909155505060008181526006602052604080822080546001600160a01b0319166001600160a01b03861690811790915590518392907fddf252ad1be2c89b69c2b068fc378daa952ba7f163c4a11628f55a4df523b3ef908290a45050565b508054612537906128f4565b6000825580601f10612547575050565b601f0160209004906000526020600020908101906109bb91905b808211156125755760008155600101612561565b5090565b6001600160e01b0319811681146109bb57600080fd5b6000602082840312156125a157600080fd5b8135611e5981612579565b60005b838110156125c75781810151838201526020016125af565b50506000910152565b600081518084526125e88160208601602086016125ac565b601f01601f19169290920160200192915050565b602081526000611e5960208301846125d0565b60006020828403121561262157600080fd5b5035919050565b80356001600160a01b038116811461263f57600080fd5b919050565b6000806040838503121561265757600080fd5b61266083612628565b946020939093013593505050565b60008060006060848603121561268357600080fd5b61268c84612628565b925061269a60208501612628565b9150604084013590509250925092565b600080600080608085870312156126c057600080fd5b5050823594602084013594506040840135936060013592509050565b6000602082840312156126ee57600080fd5b611e5982612628565b634e487b7160e01b600052604160045260246000fd5b600067ffffffffffffffff80841115612728576127286126f7565b604051601f8501601f19908116603f01168101908282118183101715612750576127506126f7565b8160405280935085815286868601111561276957600080fd5b858560208301376000602087830101525050509392505050565b60008060006060848603121561279857600080fd5b833567ffffffffffffffff8111156127af57600080fd5b8401601f810186136127c057600080fd5b6127cf8682356020840161270d565b93505061269a60208501612628565b600080604083850312156127f157600080fd5b50508035926020909101359150565b80151581146109bb57600080fd5b6000806040838503121561282157600080fd5b61282a83612628565b9150602083013561283a81612800565b809150509250929050565b6000806000806080858703121561285b57600080fd5b61286485612628565b935061287260208601612628565b925060408501359150606085013567ffffffffffffffff81111561289557600080fd5b8501601f810187136128a657600080fd5b6128b58782356020840161270d565b91505092959194509250565b600080604083850312156128d457600080fd5b6128dd83612628565b91506128eb60208401612628565b90509250929050565b600181811c9082168061290857607f821691505b60208210810361292857634e487b7160e01b600052602260045260246000fd5b50919050565b60006020828403121561294057600080fd5b5051919050565b60208082526031908201527f4552433732313a207472616e736665722063616c6c6572206973206e6f74206f6040820152701ddb995c881b9bdc88185c1c1c9bdd9959607a1b606082015260800190565b6020808252818101527f4f776e61626c653a2063616c6c6572206973206e6f7420746865206f776e6572604082015260600190565b634e487b7160e01b600052601260045260246000fd5b634e487b7160e01b600052601160045260246000fd5b600082612a0857612a086129cd565b500490565b600060208284031215612a1f57600080fd5b8151611e5981612800565b818103818111156106aa576106aa6129e3565b808201808211156106aa576106aa6129e3565b80820281158282048414176106aa576106aa6129e3565b60208082526032908201527f4552433732313a207472616e7366657220746f206e6f6e20455243373231526560408201527131b2b4bb32b91034b6b83632b6b2b73a32b960711b606082015260800190565b60008351612acb8184602088016125ac565b835190830190612adf8183602088016125ac565b01949350505050565b600081612af757612af76129e3565b506000190190565b60018060a01b0384168152826020820152606060408201526000612b2660608301846125d0565b95945050505050565b601f8211156108df57600081815260208120601f850160051c81016020861015612b565750805b601f850160051c820191505b81811015612b7557828155600101612b62565b505050505050565b815167ffffffffffffffff811115612b9757612b976126f7565b612bab81612ba584546128f4565b84612b2f565b602080601f831160018114612be05760008415612bc85750858301515b600019600386901b1c1916600185901b178555612b75565b600085815260208120601f198616915b82811015612c0f57888601518255948401946001909101908401612bf0565b5085821015612c2d5787850151600019600388901b60f8161c191681555b5050505050600190811b01905550565b600082612c4c57612c4c6129cd565b500690565b6001600160a01b0385811682528416602082015260408101839052608060608201819052600090612c84908301846125d0565b9695505050505050565b600060208284031215612ca057600080fd5b8151611e5981612579565b60008251612cbd8184602087016125ac565b9190910192915050565b600060018201612cd957612cd96129e3565b5060010190565b634e487b7160e01b600052603260045260246000fdfea2646970667358221220556a491d0c562a732b10152cc15a5ae97279f8a7423a6f9f9ff8653330dabba964736f6c63430008110033",
  "linkReferences": {},
  "deployedLinkReferences": {}
}