{
  "_format": "hh-sol-artifact-1",
  "contractName": "PowerNFT",
  "sourceName": "contracts/PowerNFT/PowerNFT.sol",
  "abi": [
    {
      "inputs": [],
      "stateMutability": "nonpayable",
      "type": "constructor"
    },
    {
      "anonymous": false,
      "inputs": [
        {
          "indexed": true,
          "internalType": "address",
          "name": "owner",
          "type": "address"
        },
        {
          "indexed": true,
          "internalType": "address",
          "name": "approved",
          "type": "address"
        },
        {
          "indexed": true,
          "internalType": "uint256",
          "name": "tokenId",
          "type": "uint256"
        }
      ],
      "name": "Approval",
      "type": "event"
    },
    {
      "anonymous": false,
      "inputs": [
        {
          "indexed": true,
          "internalType": "address",
          "name": "owner",
          "type": "address"
        },
        {
          "indexed": true,
          "internalType": "address",
          "name": "operator",
          "type": "address"
        },
        {
          "indexed": false,
          "internalType": "bool",
          "name": "approved",
          "type": "bool"
        }
      ],
      "name": "ApprovalForAll",
      "type": "event"
    },
    {
      "anonymous": false,
      "inputs": [
        {
          "indexed": true,
          "internalType": "address",
          "name": "previousOwner",
          "type": "address"
        },
        {
          "indexed": true,
          "internalType": "address",
          "name": "newOwner",
          "type": "address"
        }
      ],
      "name": "OwnershipTransferred",
      "type": "event"
    },
    {
      "anonymous": false,
      "inputs": [
        {
          "indexed": false,
          "internalType": "bytes32",
          "name": "requestId",
          "type": "bytes32"
        }
      ],
      "name": "RollDice",
      "type": "event"
    },
    {
      "anonymous": false,
      "inputs": [
        {
          "indexed": true,
          "internalType": "address",
          "name": "from",
          "type": "address"
        },
        {
          "indexed": true,
          "internalType": "address",
          "name": "to",
          "type": "address"
        },
        {
          "indexed": true,
          "internalType": "uint256",
          "name": "tokenId",
          "type": "uint256"
        }
      ],
      "name": "Transfer",
      "type": "event"
    },
    {
      "inputs": [
        {
          "internalType": "address",
          "name": "to",
          "type": "address"
        },
        {
          "internalType": "uint256",
          "name": "tokenId",
          "type": "uint256"
        }
      ],
      "name": "approve",
      "outputs": [],
      "stateMutability": "nonpayable",
      "type": "function"
    },
    {
      "inputs": [
        {
          "internalType": "address",
          "name": "owner",
          "type": "address"
        }
      ],
      "name": "balanceOf",
      "outputs": [
        {
          "internalType": "uint256",
          "name": "",
          "type": "uint256"
        }
      ],
      "stateMutability": "view",
      "type": "function"
    },
    {
      "inputs": [
        {
          "internalType": "uint256",
          "name": "tokenId",
          "type": "uint256"
        }
      ],
      "name": "burn",
      "outputs": [],
      "stateMutability": "nonpayable",
      "type": "function"
    },
    {
      "inputs": [
        {
          "internalType": "string",
          "name": "uri",
          "type": "string"
        },
        {
          "internalType": "string",
          "name": "refferal",
          "type": "string"
        },
        {
          "internalType": "uint256",
          "name": "dappId",
          "type": "uint256"
        }
      ],
      "name": "buyCard",
      "outputs": [],
      "stateMutability": "payable",
      "type": "function"
    },
    {
      "inputs": [
        {
          "internalType": "uint256",
          "name": "tokenId",
          "type": "uint256"
        }
      ],
      "name": "getApproved",
      "outputs": [
        {
          "internalType": "address",
          "name": "",
          "type": "address"
        }
      ],
      "stateMutability": "view",
      "type": "function"
    },
    {
      "inputs": [
        {
          "internalType": "address",
          "name": "owner",
          "type": "address"
        },
        {
          "internalType": "address",
          "name": "operator",
          "type": "address"
        }
      ],
      "name": "isApprovedForAll",
      "outputs": [
        {
          "internalType": "bool",
          "name": "",
          "type": "bool"
        }
      ],
      "stateMutability": "view",
      "type": "function"
    },
    {
      "inputs": [],
      "name": "name",
      "outputs": [
        {
          "internalType": "string",
          "name": "",
          "type": "string"
        }
      ],
      "stateMutability": "view",
      "type": "function"
    },
    {
      "inputs": [],
      "name": "owner",
      "outputs": [
        {
          "internalType": "address",
          "name": "",
          "type": "address"
        }
      ],
      "stateMutability": "view",
      "type": "function"
    },
    {
      "inputs": [
        {
          "internalType": "uint256",
          "name": "tokenId",
          "type": "uint256"
        }
      ],
      "name": "ownerOf",
      "outputs": [
        {
          "internalType": "address",
          "name": "",
          "type": "address"
        }
      ],
      "stateMutability": "view",
      "type": "function"
    },
    {
      "inputs": [],
      "name": "renounceOwnership",
      "outputs": [],
      "stateMutability": "nonpayable",
      "type": "function"
    },
    {
      "inputs": [],
      "name": "rollDice",
      "outputs": [],
      "stateMutability": "nonpayable",
      "type": "function"
    },
    {
      "inputs": [
        {
          "internalType": "address",
          "name": "from",
          "type": "address"
        },
        {
          "internalType": "address",
          "name": "to",
          "type": "address"
        },
        {
          "internalType": "uint256",
          "name": "tokenId",
          "type": "uint256"
        }
      ],
      "name": "safeTransferFrom",
      "outputs": [],
      "stateMutability": "nonpayable",
      "type": "function"
    },
    {
      "inputs": [
        {
          "internalType": "address",
          "name": "from",
          "type": "address"
        },
        {
          "internalType": "address",
          "name": "to",
          "type": "address"
        },
        {
          "internalType": "uint256",
          "name": "tokenId",
          "type": "uint256"
        },
        {
          "internalType": "bytes",
          "name": "_data",
          "type": "bytes"
        }
      ],
      "name": "safeTransferFrom",
      "outputs": [],
      "stateMutability": "nonpayable",
      "type": "function"
    },
    {
      "inputs": [
        {
          "internalType": "uint256",
          "name": "_randomness",
          "type": "uint256"
        }
      ],
      "name": "select",
      "outputs": [],
      "stateMutability": "nonpayable",
      "type": "function"
    },
    {
      "inputs": [
        {
          "internalType": "address",
          "name": "operator",
          "type": "address"
        },
        {
          "internalType": "bool",
          "name": "approved",
          "type": "bool"
        }
      ],
      "name": "setApprovalForAll",
      "outputs": [],
      "stateMutability": "nonpayable",
      "type": "function"
    },
    {
      "inputs": [
        {
          "internalType": "bytes4",
          "name": "interfaceId",
          "type": "bytes4"
        }
      ],
      "name": "supportsInterface",
      "outputs": [
        {
          "internalType": "bool",
          "name": "",
          "type": "bool"
        }
      ],
      "stateMutability": "view",
      "type": "function"
    },
    {
      "inputs": [],
      "name": "symbol",
      "outputs": [
        {
          "internalType": "string",
          "name": "",
          "type": "string"
        }
      ],
      "stateMutability": "view",
      "type": "function"
    },
    {
      "inputs": [
        {
          "internalType": "uint256",
          "name": "tokenId",
          "type": "uint256"
        }
      ],
      "name": "tokenURI",
      "outputs": [
        {
          "internalType": "string",
          "name": "",
          "type": "string"
        }
      ],
      "stateMutability": "view",
      "type": "function"
    },
    {
      "inputs": [
        {
          "internalType": "address",
          "name": "from",
          "type": "address"
        },
        {
          "internalType": "address",
          "name": "to",
          "type": "address"
        },
        {
          "internalType": "uint256",
          "name": "tokenId",
          "type": "uint256"
        }
      ],
      "name": "transferFrom",
      "outputs": [],
      "stateMutability": "nonpayable",
      "type": "function"
    },
    {
      "inputs": [
        {
          "internalType": "address",
          "name": "newOwner",
          "type": "address"
        }
      ],
      "name": "transferOwnership",
      "outputs": [],
      "stateMutability": "nonpayable",
      "type": "function"
    },
    {
      "inputs": [
        {
          "internalType": "uint256",
          "name": "tokenId",
          "type": "uint256"
        }
      ],
      "name": "withdrawAndBurn",
      "outputs": [],
      "stateMutability": "nonpayable",
      "type": "function"
    }
  ],
  "bytecode": "0x60806040523480156200001157600080fd5b506040518060400160405280600881526020017f506f7765724e46540000000000000000000000000000000000000000000000008152506040518060400160405280600381526020017f5057520000000000000000000000000000000000000000000000000000000000815250816000908051906020019062000096929190620002f0565b508060019080519060200190620000af929190620002f0565b505050620000d2620000c66200022260201b60201c565b6200022a60201b60201c565b6000600960006101000a81548173ffffffffffffffffffffffffffffffffffffffff021916908373ffffffffffffffffffffffffffffffffffffffff1602179055506000600860006101000a81548173ffffffffffffffffffffffffffffffffffffffff021916908373ffffffffffffffffffffffffffffffffffffffff160217905550600960009054906101000a900473ffffffffffffffffffffffffffffffffffffffff16601760006101000a81548173ffffffffffffffffffffffffffffffffffffffff021916908373ffffffffffffffffffffffffffffffffffffffff160217905550600860009054906101000a900473ffffffffffffffffffffffffffffffffffffffff16601860006101000a81548173ffffffffffffffffffffffffffffffffffffffff021916908373ffffffffffffffffffffffffffffffffffffffff16021790555062000405565b600033905090565b6000600760009054906101000a900473ffffffffffffffffffffffffffffffffffffffff16905081600760006101000a81548173ffffffffffffffffffffffffffffffffffffffff021916908373ffffffffffffffffffffffffffffffffffffffff1602179055508173ffffffffffffffffffffffffffffffffffffffff168173ffffffffffffffffffffffffffffffffffffffff167f8be0079c531659141344cd1fd0a4f28419497f9722a3daafe3b4186f6b6457e060405160405180910390a35050565b828054620002fe90620003cf565b90600052602060002090601f0160209004810192826200032257600085556200036e565b82601f106200033d57805160ff19168380011785556200036e565b828001600101855582156200036e579182015b828111156200036d57825182559160200191906001019062000350565b5b5090506200037d919062000381565b5090565b5b808211156200039c57600081600090555060010162000382565b5090565b7f4e487b7100000000000000000000000000000000000000000000000000000000600052602260045260246000fd5b60006002820490506001821680620003e857607f821691505b60208210811415620003ff57620003fe620003a0565b5b50919050565b613d2080620004156000396000f3fe60806040526004361061012a5760003560e01c8063715018a6116100ab57806395d89b411161006f57806395d89b41146103b9578063a22cb465146103e4578063b88d4fde1461040d578063c87b56dd14610436578063e985e9c514610473578063f2fde38b146104b05761012a565b8063715018a61461030e578063837e7cc614610325578063839a19d91461033c5780638da5cb5b146103655780639545022e146103905761012a565b806342842e0e116100f257806342842e0e1461022657806342966c681461024f5780636352211e146102785780636ffcd3a3146102b557806370a08231146102d15761012a565b806301ffc9a71461012f57806306fdde031461016c578063081812fc14610197578063095ea7b3146101d457806323b872dd146101fd575b600080fd5b34801561013b57600080fd5b50610156600480360381019061015191906125b0565b6104d9565b60405161016391906125f8565b60405180910390f35b34801561017857600080fd5b506101816105bb565b60405161018e91906126ac565b60405180910390f35b3480156101a357600080fd5b506101be60048036038101906101b99190612704565b61064d565b6040516101cb9190612772565b60405180910390f35b3480156101e057600080fd5b506101fb60048036038101906101f691906127b9565b6106d2565b005b34801561020957600080fd5b50610224600480360381019061021f91906127f9565b6107ea565b005b34801561023257600080fd5b5061024d600480360381019061024891906127f9565b61084a565b005b34801561025b57600080fd5b5061027660048036038101906102719190612704565b61086a565b005b34801561028457600080fd5b5061029f600480360381019061029a9190612704565b6108c6565b6040516102ac9190612772565b60405180910390f35b6102cf60048036038101906102ca9190612981565b610978565b005b3480156102dd57600080fd5b506102f860048036038101906102f39190612a0c565b610992565b6040516103059190612a48565b60405180910390f35b34801561031a57600080fd5b50610323610a4a565b005b34801561033157600080fd5b5061033a610ad2565b005b34801561034857600080fd5b50610363600480360381019061035e9190612704565b610c0b565b005b34801561037157600080fd5b5061037a610cf7565b6040516103879190612772565b60405180910390f35b34801561039c57600080fd5b506103b760048036038101906103b29190612704565b610d21565b005b3480156103c557600080fd5b506103ce610e20565b6040516103db91906126ac565b60405180910390f35b3480156103f057600080fd5b5061040b60048036038101906104069190612a8f565b610eb2565b005b34801561041957600080fd5b50610434600480360381019061042f9190612b70565b610ec8565b005b34801561044257600080fd5b5061045d60048036038101906104589190612704565b610f2a565b60405161046a91906126ac565b60405180910390f35b34801561047f57600080fd5b5061049a60048036038101906104959190612bf3565b610f3c565b6040516104a791906125f8565b60405180910390f35b3480156104bc57600080fd5b506104d760048036038101906104d29190612a0c565b610fd0565b005b60007f80ac58cd000000000000000000000000000000000000000000000000000000007bffffffffffffffffffffffffffffffffffffffffffffffffffffffff1916827bffffffffffffffffffffffffffffffffffffffffffffffffffffffff191614806105a457507f5b5e139f000000000000000000000000000000000000000000000000000000007bffffffffffffffffffffffffffffffffffffffffffffffffffffffff1916827bffffffffffffffffffffffffffffffffffffffffffffffffffffffff1916145b806105b457506105b3826110c8565b5b9050919050565b6060600080546105ca90612c62565b80601f01602080910402602001604051908101604052809291908181526020018280546105f690612c62565b80156106435780601f1061061857610100808354040283529160200191610643565b820191906000526020600020905b81548152906001019060200180831161062657829003601f168201915b5050505050905090565b600061065882611132565b610697576040517f08c379a000000000000000000000000000000000000000000000000000000000815260040161068e90612d06565b60405180910390fd5b6004600083815260200190815260200160002060009054906101000a900473ffffffffffffffffffffffffffffffffffffffff169050919050565b60006106dd826108c6565b90508073ffffffffffffffffffffffffffffffffffffffff168373ffffffffffffffffffffffffffffffffffffffff16141561074e576040517f08c379a000000000000000000000000000000000000000000000000000000000815260040161074590612d98565b60405180910390fd5b8073ffffffffffffffffffffffffffffffffffffffff1661076d61119e565b73ffffffffffffffffffffffffffffffffffffffff16148061079c575061079b8161079661119e565b610f3c565b5b6107db576040517f08c379a00000000000000000000000000000000000000000000000000000000081526004016107d290612e2a565b60405180910390fd5b6107e583836111a6565b505050565b6107fb6107f561119e565b8261125f565b61083a576040517f08c379a000000000000000000000000000000000000000000000000000000000815260040161083190612ebc565b60405180910390fd5b61084583838361133d565b505050565b61086583838360405180602001604052806000815250610ec8565b505050565b61087b61087561119e565b8261125f565b6108ba576040517f08c379a00000000000000000000000000000000000000000000000000000000081526004016108b190612f4e565b60405180910390fd5b6108c381611599565b50565b6000806002600084815260200190815260200160002060009054906101000a900473ffffffffffffffffffffffffffffffffffffffff169050600073ffffffffffffffffffffffffffffffffffffffff168173ffffffffffffffffffffffffffffffffffffffff16141561096f576040517f08c379a000000000000000000000000000000000000000000000000000000000815260040161096690612fe0565b60405180910390fd5b80915050919050565b6109833483836115ad565b61098d8334611720565b505050565b60008073ffffffffffffffffffffffffffffffffffffffff168273ffffffffffffffffffffffffffffffffffffffff161415610a03576040517f08c379a00000000000000000000000000000000000000000000000000000000081526004016109fa90613072565b60405180910390fd5b600360008373ffffffffffffffffffffffffffffffffffffffff1673ffffffffffffffffffffffffffffffffffffffff168152602001908152602001600020549050919050565b610a5261119e565b73ffffffffffffffffffffffffffffffffffffffff16610a70610cf7565b73ffffffffffffffffffffffffffffffffffffffff1614610ac6576040517f08c379a0000000000000000000000000000000000000000000000000000000008152600401610abd906130de565b60405180910390fd5b610ad0600061174f565b565b601154421015610b17576040517f08c379a0000000000000000000000000000000000000000000000000000000008152600401610b0e90613170565b60405180910390fd5b600063839a19d960e01b90506000601860009054906101000a900473ffffffffffffffffffffffffffffffffffffffff1673ffffffffffffffffffffffffffffffffffffffff1663f5d34f23601254846040518363ffffffff1660e01b8152600401610b83919061319f565b60206040518083038185885af1158015610ba1573d6000803e3d6000fd5b50505050506040513d601f19601f82011682018060405250810190610bc691906131f0565b90507f72179fcf9070583e88aa5e724a71e6affe79c12733c644cc78fe215dde9fa00281604051610bf7919061322c565b60405180910390a1610c07611815565b5050565b600860009054906101000a900473ffffffffffffffffffffffffffffffffffffffff1673ffffffffffffffffffffffffffffffffffffffff163373ffffffffffffffffffffffffffffffffffffffff1614610c9b576040517f08c379a0000000000000000000000000000000000000000000000000000000008152600401610c9290613293565b60405180910390fd5b610ca48161181d565b600b54606482610cb491906132e2565b11610cf4576000606482610cc89190613342565b905060006001600e5483610cdc91906132e2565b610ce69190613373565b9050610cf181611827565b50505b50565b6000600760009054906101000a900473ffffffffffffffffffffffffffffffffffffffff16905090565b6000610d2c826108c6565b90503373ffffffffffffffffffffffffffffffffffffffff168173ffffffffffffffffffffffffffffffffffffffff1614610d9c576040517f08c379a0000000000000000000000000000000000000000000000000000000008152600401610d939061343b565b60405180910390fd5b6000601660008481526020019081526020016000205490506016600084815260200190815260200160002060009055610dd483611599565b8173ffffffffffffffffffffffffffffffffffffffff166108fc829081150290604051600060405180830381858888f19350505050158015610e1a573d6000803e3d6000fd5b50505050565b606060018054610e2f90612c62565b80601f0160208091040260200160405190810160405280929190818152602001828054610e5b90612c62565b8015610ea85780601f10610e7d57610100808354040283529160200191610ea8565b820191906000526020600020905b815481529060010190602001808311610e8b57829003601f168201915b5050505050905090565b610ec4610ebd61119e565b838361185b565b5050565b610ed9610ed361119e565b8361125f565b610f18576040517f08c379a0000000000000000000000000000000000000000000000000000000008152600401610f0f90612ebc565b60405180910390fd5b610f24848484846119c8565b50505050565b6060610f3582611a24565b9050919050565b6000600560008473ffffffffffffffffffffffffffffffffffffffff1673ffffffffffffffffffffffffffffffffffffffff16815260200190815260200160002060008373ffffffffffffffffffffffffffffffffffffffff1673ffffffffffffffffffffffffffffffffffffffff16815260200190815260200160002060009054906101000a900460ff16905092915050565b610fd861119e565b73ffffffffffffffffffffffffffffffffffffffff16610ff6610cf7565b73ffffffffffffffffffffffffffffffffffffffff161461104c576040517f08c379a0000000000000000000000000000000000000000000000000000000008152600401611043906130de565b60405180910390fd5b600073ffffffffffffffffffffffffffffffffffffffff168173ffffffffffffffffffffffffffffffffffffffff1614156110bc576040517f08c379a00000000000000000000000000000000000000000000000000000000081526004016110b3906134cd565b60405180910390fd5b6110c58161174f565b50565b60007f01ffc9a7000000000000000000000000000000000000000000000000000000007bffffffffffffffffffffffffffffffffffffffffffffffffffffffff1916827bffffffffffffffffffffffffffffffffffffffffffffffffffffffff1916149050919050565b60008073ffffffffffffffffffffffffffffffffffffffff166002600084815260200190815260200160002060009054906101000a900473ffffffffffffffffffffffffffffffffffffffff1673ffffffffffffffffffffffffffffffffffffffff1614159050919050565b600033905090565b816004600083815260200190815260200160002060006101000a81548173ffffffffffffffffffffffffffffffffffffffff021916908373ffffffffffffffffffffffffffffffffffffffff160217905550808273ffffffffffffffffffffffffffffffffffffffff16611219836108c6565b73ffffffffffffffffffffffffffffffffffffffff167f8c5be1e5ebec7d5bd14f71427d1e84f3dd0314c0f7b2291e5b200ac8c7c3b92560405160405180910390a45050565b600061126a82611132565b6112a9576040517f08c379a00000000000000000000000000000000000000000000000000000000081526004016112a09061355f565b60405180910390fd5b60006112b4836108c6565b90508073ffffffffffffffffffffffffffffffffffffffff168473ffffffffffffffffffffffffffffffffffffffff16148061132357508373ffffffffffffffffffffffffffffffffffffffff1661130b8461064d565b73ffffffffffffffffffffffffffffffffffffffff16145b8061133457506113338185610f3c565b5b91505092915050565b8273ffffffffffffffffffffffffffffffffffffffff1661135d826108c6565b73ffffffffffffffffffffffffffffffffffffffff16146113b3576040517f08c379a00000000000000000000000000000000000000000000000000000000081526004016113aa906135f1565b60405180910390fd5b600073ffffffffffffffffffffffffffffffffffffffff168273ffffffffffffffffffffffffffffffffffffffff161415611423576040517f08c379a000000000000000000000000000000000000000000000000000000000815260040161141a90613683565b60405180910390fd5b61142e838383611b76565b6114396000826111a6565b6001600360008573ffffffffffffffffffffffffffffffffffffffff1673ffffffffffffffffffffffffffffffffffffffff168152602001908152602001600020600082825461148991906136a3565b925050819055506001600360008473ffffffffffffffffffffffffffffffffffffffff1673ffffffffffffffffffffffffffffffffffffffff16815260200190815260200160002060008282546114e09190613373565b92505081905550816002600083815260200190815260200160002060006101000a81548173ffffffffffffffffffffffffffffffffffffffff021916908373ffffffffffffffffffffffffffffffffffffffff160217905550808273ffffffffffffffffffffffffffffffffffffffff168473ffffffffffffffffffffffffffffffffffffffff167fddf252ad1be2c89b69c2b068fc378daa952ba7f163c4a11628f55a4df523b3ef60405160405180910390a4505050565b6115a281611b7b565b6115aa611bce565b50565b6000611649601860009054906101000a900473ffffffffffffffffffffffffffffffffffffffff1673ffffffffffffffffffffffffffffffffffffffff166352fa88566040518163ffffffff1660e01b8152600401602060405180830381865afa15801561161f573d6000803e3d6000fd5b505050506040513d601f19601f8201168201806040525081019061164391906136ec565b85611bd0565b905060006064600d548661165d9190613719565b6116679190613342565b90508082111561171057808261167d91906136a3565b9150601760009054906101000a900473ffffffffffffffffffffffffffffffffffffffff1673ffffffffffffffffffffffffffffffffffffffff1663e9b0f1b28286866040518463ffffffff1660e01b81526004016116dd929190613773565b6000604051808303818588803b1580156116f657600080fd5b505af115801561170a573d6000803e3d6000fd5b50505050505b61171982611c48565b5050505050565b600061172a611c64565b90506117363382611c89565b6117408184611ca7565b61174a8183611d1b565b505050565b6000600760009054906101000a900473ffffffffffffffffffffffffffffffffffffffff16905081600760006101000a81548173ffffffffffffffffffffffffffffffffffffffff021916908373ffffffffffffffffffffffffffffffffffffffff1602179055508173ffffffffffffffffffffffffffffffffffffffff168173ffffffffffffffffffffffffffffffffffffffff167f8be0079c531659141344cd1fd0a4f28419497f9722a3daafe3b4186f6b6457e060405160405180910390a35050565b601260009055565b80600f8190555050565b80601081905550611858816015600084815260200190815260200160002054600c546118539190613719565b611d37565b50565b8173ffffffffffffffffffffffffffffffffffffffff168373ffffffffffffffffffffffffffffffffffffffff1614156118ca576040517f08c379a00000000000000000000000000000000000000000000000000000000081526004016118c1906137ef565b60405180910390fd5b80600560008573ffffffffffffffffffffffffffffffffffffffff1673ffffffffffffffffffffffffffffffffffffffff16815260200190815260200160002060008473ffffffffffffffffffffffffffffffffffffffff1673ffffffffffffffffffffffffffffffffffffffff16815260200190815260200160002060006101000a81548160ff0219169083151502179055508173ffffffffffffffffffffffffffffffffffffffff168373ffffffffffffffffffffffffffffffffffffffff167f17307eab39ab6107e8899845ad3d59bd9653f200f220920489ca2b5937696c31836040516119bb91906125f8565b60405180910390a3505050565b6119d384848461133d565b6119df84848484611d53565b611a1e576040517f08c379a0000000000000000000000000000000000000000000000000000000008152600401611a1590613881565b60405180910390fd5b50505050565b6060611a2f82611132565b611a6e576040517f08c379a0000000000000000000000000000000000000000000000000000000008152600401611a6590613913565b60405180910390fd5b6000600660008481526020019081526020016000208054611a8e90612c62565b80601f0160208091040260200160405190810160405280929190818152602001828054611aba90612c62565b8015611b075780601f10611adc57610100808354040283529160200191611b07565b820191906000526020600020905b815481529060010190602001808311611aea57829003601f168201915b505050505090506000611b18611edb565b9050600081511415611b2e578192505050611b71565b600082511115611b63578082604051602001611b4b92919061396f565b60405160208183030381529060405292505050611b71565b611b6c84611ef2565b925050505b919050565b505050565b611b8481611f99565b6000600660008381526020019081526020016000208054611ba490612c62565b905014611bcb57600660008281526020019081526020016000206000611bca9190612461565b5b50565b565b60008060125484611be191906136a3565b90506000811115611c3e57828110611c15578260126000828254611c059190613373565b9250508190555060009250611c3d565b8060126000828254611c279190613373565b925050819055508083611c3a91906136a3565b92505b5b8291505092915050565b8060146000828254611c5a9190613373565b9250508190555050565b6000611c6e6120aa565b600060135414611c8057601354611c84565b600e545b905090565b611ca38282604051806020016040528060008152506120c4565b5050565b611cb082611132565b611cef576040517f08c379a0000000000000000000000000000000000000000000000000000000008152600401611ce690613a05565b60405180910390fd5b80600660008481526020019081526020016000209080519060200190611d169291906124a1565b505050565b8060156000848152602001908152602001600020819055505050565b8060166000848152602001908152602001600020819055505050565b6000611d748473ffffffffffffffffffffffffffffffffffffffff1661211f565b15611ece578373ffffffffffffffffffffffffffffffffffffffff1663150b7a02611d9d61119e565b8786866040518563ffffffff1660e01b8152600401611dbf9493929190613a7a565b6020604051808303816000875af1925050508015611dfb57506040513d601f19601f82011682018060405250810190611df89190613adb565b60015b611e7e573d8060008114611e2b576040519150601f19603f3d011682016040523d82523d6000602084013e611e30565b606091505b50600081511415611e76576040517f08c379a0000000000000000000000000000000000000000000000000000000008152600401611e6d90613881565b60405180910390fd5b805181602001fd5b63150b7a0260e01b7bffffffffffffffffffffffffffffffffffffffffffffffffffffffff1916817bffffffffffffffffffffffffffffffffffffffffffffffffffffffff191614915050611ed3565b600190505b949350505050565b606060405180602001604052806000815250905090565b6060611efd82611132565b611f3c576040517f08c379a0000000000000000000000000000000000000000000000000000000008152600401611f3390613b7a565b60405180910390fd5b6000611f46611edb565b90506000815111611f665760405180602001604052806000815250611f91565b80611f7084612132565b604051602001611f8192919061396f565b6040516020818303038152906040525b915050919050565b6000611fa4826108c6565b9050611fb281600084611b76565b611fbd6000836111a6565b6001600360008373ffffffffffffffffffffffffffffffffffffffff1673ffffffffffffffffffffffffffffffffffffffff168152602001908152602001600020600082825461200d91906136a3565b925050819055506002600083815260200190815260200160002060006101000a81549073ffffffffffffffffffffffffffffffffffffffff021916905581600073ffffffffffffffffffffffffffffffffffffffff168273ffffffffffffffffffffffffffffffffffffffff167fddf252ad1be2c89b69c2b068fc378daa952ba7f163c4a11628f55a4df523b3ef60405160405180910390a45050565b600e60008154809291906120bd90613b9a565b9190505550565b6120ce8383612293565b6120db6000848484611d53565b61211a576040517f08c379a000000000000000000000000000000000000000000000000000000000815260040161211190613881565b60405180910390fd5b505050565b600080823b905060008111915050919050565b6060600082141561217a576040518060400160405280600181526020017f3000000000000000000000000000000000000000000000000000000000000000815250905061228e565b600082905060005b600082146121ac57808061219590613b9a565b915050600a826121a59190613342565b9150612182565b60008167ffffffffffffffff8111156121c8576121c7612856565b5b6040519080825280601f01601f1916602001820160405280156121fa5781602001600182028036833780820191505090505b5090505b600085146122875760018261221391906136a3565b9150600a8561222291906132e2565b603061222e9190613373565b60f81b81838151811061224457612243613be3565b5b60200101907effffffffffffffffffffffffffffffffffffffffffffffffffffffffffffff1916908160001a905350600a856122809190613342565b94506121fe565b8093505050505b919050565b600073ffffffffffffffffffffffffffffffffffffffff168273ffffffffffffffffffffffffffffffffffffffff161415612303576040517f08c379a00000000000000000000000000000000000000000000000000000000081526004016122fa90613c5e565b60405180910390fd5b61230c81611132565b1561234c576040517f08c379a000000000000000000000000000000000000000000000000000000000815260040161234390613cca565b60405180910390fd5b61235860008383611b76565b6001600360008473ffffffffffffffffffffffffffffffffffffffff1673ffffffffffffffffffffffffffffffffffffffff16815260200190815260200160002060008282546123a89190613373565b92505081905550816002600083815260200190815260200160002060006101000a81548173ffffffffffffffffffffffffffffffffffffffff021916908373ffffffffffffffffffffffffffffffffffffffff160217905550808273ffffffffffffffffffffffffffffffffffffffff16600073ffffffffffffffffffffffffffffffffffffffff167fddf252ad1be2c89b69c2b068fc378daa952ba7f163c4a11628f55a4df523b3ef60405160405180910390a45050565b50805461246d90612c62565b6000825580601f1061247f575061249e565b601f01602090049060005260206000209081019061249d9190612527565b5b50565b8280546124ad90612c62565b90600052602060002090601f0160209004810192826124cf5760008555612516565b82601f106124e857805160ff1916838001178555612516565b82800160010185558215612516579182015b828111156125155782518255916020019190600101906124fa565b5b5090506125239190612527565b5090565b5b80821115612540576000816000905550600101612528565b5090565b6000604051905090565b600080fd5b600080fd5b60007fffffffff0000000000000000000000000000000000000000000000000000000082169050919050565b61258d81612558565b811461259857600080fd5b50565b6000813590506125aa81612584565b92915050565b6000602082840312156125c6576125c561254e565b5b60006125d48482850161259b565b91505092915050565b60008115159050919050565b6125f2816125dd565b82525050565b600060208201905061260d60008301846125e9565b92915050565b600081519050919050565b600082825260208201905092915050565b60005b8381101561264d578082015181840152602081019050612632565b8381111561265c576000848401525b50505050565b6000601f19601f8301169050919050565b600061267e82612613565b612688818561261e565b935061269881856020860161262f565b6126a181612662565b840191505092915050565b600060208201905081810360008301526126c68184612673565b905092915050565b6000819050919050565b6126e1816126ce565b81146126ec57600080fd5b50565b6000813590506126fe816126d8565b92915050565b60006020828403121561271a5761271961254e565b5b6000612728848285016126ef565b91505092915050565b600073ffffffffffffffffffffffffffffffffffffffff82169050919050565b600061275c82612731565b9050919050565b61276c81612751565b82525050565b60006020820190506127876000830184612763565b92915050565b61279681612751565b81146127a157600080fd5b50565b6000813590506127b38161278d565b92915050565b600080604083850312156127d0576127cf61254e565b5b60006127de858286016127a4565b92505060206127ef858286016126ef565b9150509250929050565b6000806000606084860312156128125761281161254e565b5b6000612820868287016127a4565b9350506020612831868287016127a4565b9250506040612842868287016126ef565b9150509250925092565b600080fd5b600080fd5b7f4e487b7100000000000000000000000000000000000000000000000000000000600052604160045260246000fd5b61288e82612662565b810181811067ffffffffffffffff821117156128ad576128ac612856565b5b80604052505050565b60006128c0612544565b90506128cc8282612885565b919050565b600067ffffffffffffffff8211156128ec576128eb612856565b5b6128f582612662565b9050602081019050919050565b82818337600083830152505050565b600061292461291f846128d1565b6128b6565b9050828152602081018484840111156129405761293f612851565b5b61294b848285612902565b509392505050565b600082601f8301126129685761296761284c565b5b8135612978848260208601612911565b91505092915050565b60008060006060848603121561299a5761299961254e565b5b600084013567ffffffffffffffff8111156129b8576129b7612553565b5b6129c486828701612953565b935050602084013567ffffffffffffffff8111156129e5576129e4612553565b5b6129f186828701612953565b9250506040612a02868287016126ef565b9150509250925092565b600060208284031215612a2257612a2161254e565b5b6000612a30848285016127a4565b91505092915050565b612a42816126ce565b82525050565b6000602082019050612a5d6000830184612a39565b92915050565b612a6c816125dd565b8114612a7757600080fd5b50565b600081359050612a8981612a63565b92915050565b60008060408385031215612aa657612aa561254e565b5b6000612ab4858286016127a4565b9250506020612ac585828601612a7a565b9150509250929050565b600067ffffffffffffffff821115612aea57612ae9612856565b5b612af382612662565b9050602081019050919050565b6000612b13612b0e84612acf565b6128b6565b905082815260208101848484011115612b2f57612b2e612851565b5b612b3a848285612902565b509392505050565b600082601f830112612b5757612b5661284c565b5b8135612b67848260208601612b00565b91505092915050565b60008060008060808587031215612b8a57612b8961254e565b5b6000612b98878288016127a4565b9450506020612ba9878288016127a4565b9350506040612bba878288016126ef565b925050606085013567ffffffffffffffff811115612bdb57612bda612553565b5b612be787828801612b42565b91505092959194509250565b60008060408385031215612c0a57612c0961254e565b5b6000612c18858286016127a4565b9250506020612c29858286016127a4565b9150509250929050565b7f4e487b7100000000000000000000000000000000000000000000000000000000600052602260045260246000fd5b60006002820490506001821680612c7a57607f821691505b60208210811415612c8e57612c8d612c33565b5b50919050565b7f4552433732313a20617070726f76656420717565727920666f72206e6f6e657860008201527f697374656e7420746f6b656e0000000000000000000000000000000000000000602082015250565b6000612cf0602c8361261e565b9150612cfb82612c94565b604082019050919050565b60006020820190508181036000830152612d1f81612ce3565b9050919050565b7f4552433732313a20617070726f76616c20746f2063757272656e74206f776e6560008201527f7200000000000000000000000000000000000000000000000000000000000000602082015250565b6000612d8260218361261e565b9150612d8d82612d26565b604082019050919050565b60006020820190508181036000830152612db181612d75565b9050919050565b7f4552433732313a20617070726f76652063616c6c6572206973206e6f74206f7760008201527f6e6572206e6f7220617070726f76656420666f7220616c6c0000000000000000602082015250565b6000612e1460388361261e565b9150612e1f82612db8565b604082019050919050565b60006020820190508181036000830152612e4381612e07565b9050919050565b7f4552433732313a207472616e736665722063616c6c6572206973206e6f74206f60008201527f776e6572206e6f7220617070726f766564000000000000000000000000000000602082015250565b6000612ea660318361261e565b9150612eb182612e4a565b604082019050919050565b60006020820190508181036000830152612ed581612e99565b9050919050565b7f4552433732314275726e61626c653a2063616c6c6572206973206e6f74206f7760008201527f6e6572206e6f7220617070726f76656400000000000000000000000000000000602082015250565b6000612f3860308361261e565b9150612f4382612edc565b604082019050919050565b60006020820190508181036000830152612f6781612f2b565b9050919050565b7f4552433732313a206f776e657220717565727920666f72206e6f6e657869737460008201527f656e7420746f6b656e0000000000000000000000000000000000000000000000602082015250565b6000612fca60298361261e565b9150612fd582612f6e565b604082019050919050565b60006020820190508181036000830152612ff981612fbd565b9050919050565b7f4552433732313a2062616c616e636520717565727920666f7220746865207a6560008201527f726f206164647265737300000000000000000000000000000000000000000000602082015250565b600061305c602a8361261e565b915061306782613000565b604082019050919050565b6000602082019050818103600083015261308b8161304f565b9050919050565b7f4f776e61626c653a2063616c6c6572206973206e6f7420746865206f776e6572600082015250565b60006130c860208361261e565b91506130d382613092565b602082019050919050565b600060208201905081810360008301526130f7816130bb565b9050919050565b7f796f75206861766520746f207761697420756e74696c6c20646561646c696e6560008201527f2070617373000000000000000000000000000000000000000000000000000000602082015250565b600061315a60258361261e565b9150613165826130fe565b604082019050919050565b600060208201905081810360008301526131898161314d565b9050919050565b61319981612558565b82525050565b60006020820190506131b46000830184613190565b92915050565b6000819050919050565b6131cd816131ba565b81146131d857600080fd5b50565b6000815190506131ea816131c4565b92915050565b6000602082840312156132065761320561254e565b5b6000613214848285016131db565b91505092915050565b613226816131ba565b82525050565b6000602082019050613241600083018461321d565b92915050565b7f63616c6c6572206973206e6f74207468652076616c696420524e430000000000600082015250565b600061327d601b8361261e565b915061328882613247565b602082019050919050565b600060208201905081810360008301526132ac81613270565b9050919050565b7f4e487b7100000000000000000000000000000000000000000000000000000000600052601260045260246000fd5b60006132ed826126ce565b91506132f8836126ce565b925082613308576133076132b3565b5b828206905092915050565b7f4e487b7100000000000000000000000000000000000000000000000000000000600052601160045260246000fd5b600061334d826126ce565b9150613358836126ce565b925082613368576133676132b3565b5b828204905092915050565b600061337e826126ce565b9150613389836126ce565b9250827fffffffffffffffffffffffffffffffffffffffffffffffffffffffffffffffff038211156133be576133bd613313565b5b828201905092915050565b7f796f752063616e206e6f74207769746864726177207468697320746f6b656e2760008201527f732062616c616e63650000000000000000000000000000000000000000000000602082015250565b600061342560298361261e565b9150613430826133c9565b604082019050919050565b6000602082019050818103600083015261345481613418565b9050919050565b7f4f776e61626c653a206e6577206f776e657220697320746865207a65726f206160008201527f6464726573730000000000000000000000000000000000000000000000000000602082015250565b60006134b760268361261e565b91506134c28261345b565b604082019050919050565b600060208201905081810360008301526134e6816134aa565b9050919050565b7f4552433732313a206f70657261746f7220717565727920666f72206e6f6e657860008201527f697374656e7420746f6b656e0000000000000000000000000000000000000000602082015250565b6000613549602c8361261e565b9150613554826134ed565b604082019050919050565b600060208201905081810360008301526135788161353c565b9050919050565b7f4552433732313a207472616e73666572206f6620746f6b656e2074686174206960008201527f73206e6f74206f776e0000000000000000000000000000000000000000000000602082015250565b60006135db60298361261e565b91506135e68261357f565b604082019050919050565b6000602082019050818103600083015261360a816135ce565b9050919050565b7f4552433732313a207472616e7366657220746f20746865207a65726f2061646460008201527f7265737300000000000000000000000000000000000000000000000000000000602082015250565b600061366d60248361261e565b915061367882613611565b604082019050919050565b6000602082019050818103600083015261369c81613660565b9050919050565b60006136ae826126ce565b91506136b9836126ce565b9250828210156136cc576136cb613313565b5b828203905092915050565b6000815190506136e6816126d8565b92915050565b6000602082840312156137025761370161254e565b5b6000613710848285016136d7565b91505092915050565b6000613724826126ce565b915061372f836126ce565b9250817fffffffffffffffffffffffffffffffffffffffffffffffffffffffffffffffff048311821515161561376857613767613313565b5b828202905092915050565b6000604082019050818103600083015261378d8185612673565b905061379c6020830184612a39565b9392505050565b7f4552433732313a20617070726f766520746f2063616c6c657200000000000000600082015250565b60006137d960198361261e565b91506137e4826137a3565b602082019050919050565b60006020820190508181036000830152613808816137cc565b9050919050565b7f4552433732313a207472616e7366657220746f206e6f6e20455243373231526560008201527f63656976657220696d706c656d656e7465720000000000000000000000000000602082015250565b600061386b60328361261e565b91506138768261380f565b604082019050919050565b6000602082019050818103600083015261389a8161385e565b9050919050565b7f45524337323155524953746f726167653a2055524920717565727920666f722060008201527f6e6f6e6578697374656e7420746f6b656e000000000000000000000000000000602082015250565b60006138fd60318361261e565b9150613908826138a1565b604082019050919050565b6000602082019050818103600083015261392c816138f0565b9050919050565b600081905092915050565b600061394982612613565b6139538185613933565b935061396381856020860161262f565b80840191505092915050565b600061397b828561393e565b9150613987828461393e565b91508190509392505050565b7f45524337323155524953746f726167653a2055524920736574206f66206e6f6e60008201527f6578697374656e7420746f6b656e000000000000000000000000000000000000602082015250565b60006139ef602e8361261e565b91506139fa82613993565b604082019050919050565b60006020820190508181036000830152613a1e816139e2565b9050919050565b600081519050919050565b600082825260208201905092915050565b6000613a4c82613a25565b613a568185613a30565b9350613a6681856020860161262f565b613a6f81612662565b840191505092915050565b6000608082019050613a8f6000830187612763565b613a9c6020830186612763565b613aa96040830185612a39565b8181036060830152613abb8184613a41565b905095945050505050565b600081519050613ad581612584565b92915050565b600060208284031215613af157613af061254e565b5b6000613aff84828501613ac6565b91505092915050565b7f4552433732314d657461646174613a2055524920717565727920666f72206e6f60008201527f6e6578697374656e7420746f6b656e0000000000000000000000000000000000602082015250565b6000613b64602f8361261e565b9150613b6f82613b08565b604082019050919050565b60006020820190508181036000830152613b9381613b57565b9050919050565b6000613ba5826126ce565b91507fffffffffffffffffffffffffffffffffffffffffffffffffffffffffffffffff821415613bd857613bd7613313565b5b600182019050919050565b7f4e487b7100000000000000000000000000000000000000000000000000000000600052603260045260246000fd5b7f4552433732313a206d696e7420746f20746865207a65726f2061646472657373600082015250565b6000613c4860208361261e565b9150613c5382613c12565b602082019050919050565b60006020820190508181036000830152613c7781613c3b565b9050919050565b7f4552433732313a20746f6b656e20616c7265616479206d696e74656400000000600082015250565b6000613cb4601c8361261e565b9150613cbf82613c7e565b602082019050919050565b60006020820190508181036000830152613ce381613ca7565b905091905056fea264697066735822122000b591284331cbd741659aad728696d1efc73844d8b40cb430a31e2e7c30639f64736f6c634300080b0033",
  "linkReferences": {},
  "deployedLinkReferences": {}
}