{
  "_format": "hh-sol-artifact-1",
  "contractName": "PowerNFT",
  "sourceName": "contracts/PowerNFT/PowerNFT.sol",
  "abi": [
    {
      "inputs": [],
      "stateMutability": "nonpayable",
      "type": "constructor"
    },
    {
      "anonymous": false,
      "inputs": [
        {
          "indexed": true,
          "internalType": "address",
          "name": "owner",
          "type": "address"
        },
        {
          "indexed": true,
          "internalType": "address",
          "name": "approved",
          "type": "address"
        },
        {
          "indexed": true,
          "internalType": "uint256",
          "name": "tokenId",
          "type": "uint256"
        }
      ],
      "name": "Approval",
      "type": "event"
    },
    {
      "anonymous": false,
      "inputs": [
        {
          "indexed": true,
          "internalType": "address",
          "name": "owner",
          "type": "address"
        },
        {
          "indexed": true,
          "internalType": "address",
          "name": "operator",
          "type": "address"
        },
        {
          "indexed": false,
          "internalType": "bool",
          "name": "approved",
          "type": "bool"
        }
      ],
      "name": "ApprovalForAll",
      "type": "event"
    },
    {
      "anonymous": false,
      "inputs": [
        {
          "indexed": true,
          "internalType": "address",
          "name": "previousOwner",
          "type": "address"
        },
        {
          "indexed": true,
          "internalType": "address",
          "name": "newOwner",
          "type": "address"
        }
      ],
      "name": "OwnershipTransferred",
      "type": "event"
    },
    {
      "anonymous": false,
      "inputs": [
        {
          "indexed": false,
          "internalType": "bytes32",
          "name": "requestId",
          "type": "bytes32"
        }
      ],
      "name": "RollDice",
      "type": "event"
    },
    {
      "anonymous": false,
      "inputs": [
        {
          "indexed": true,
          "internalType": "address",
          "name": "from",
          "type": "address"
        },
        {
          "indexed": true,
          "internalType": "address",
          "name": "to",
          "type": "address"
        },
        {
          "indexed": true,
          "internalType": "uint256",
          "name": "tokenId",
          "type": "uint256"
        }
      ],
      "name": "Transfer",
      "type": "event"
    },
    {
      "anonymous": false,
      "inputs": [
        {
          "indexed": false,
          "internalType": "uint256",
          "name": "tokenId",
          "type": "uint256"
        },
        {
          "indexed": false,
          "internalType": "uint256",
          "name": "amount",
          "type": "uint256"
        }
      ],
      "name": "Win",
      "type": "event"
    },
    {
      "inputs": [
        {
          "internalType": "uint256",
          "name": "tokenId",
          "type": "uint256"
        }
      ],
      "name": "NFTBalance",
      "outputs": [
        {
          "internalType": "uint256",
          "name": "",
          "type": "uint256"
        }
      ],
      "stateMutability": "view",
      "type": "function"
    },
    {
      "inputs": [
        {
          "internalType": "uint256",
          "name": "tokenId",
          "type": "uint256"
        }
      ],
      "name": "NFTValue",
      "outputs": [
        {
          "internalType": "uint256",
          "name": "",
          "type": "uint256"
        }
      ],
      "stateMutability": "view",
      "type": "function"
    },
    {
      "inputs": [
        {
          "internalType": "address",
          "name": "to",
          "type": "address"
        },
        {
          "internalType": "uint256",
          "name": "tokenId",
          "type": "uint256"
        }
      ],
      "name": "approve",
      "outputs": [],
      "stateMutability": "nonpayable",
      "type": "function"
    },
    {
      "inputs": [
        {
          "internalType": "address",
          "name": "owner",
          "type": "address"
        }
      ],
      "name": "balanceOf",
      "outputs": [
        {
          "internalType": "uint256",
          "name": "",
          "type": "uint256"
        }
      ],
      "stateMutability": "view",
      "type": "function"
    },
    {
      "inputs": [
        {
          "internalType": "uint256",
          "name": "tokenId",
          "type": "uint256"
        }
      ],
      "name": "burnAndWithdraw",
      "outputs": [],
      "stateMutability": "nonpayable",
      "type": "function"
    },
    {
      "inputs": [
        {
          "internalType": "string",
          "name": "uri",
          "type": "string"
        },
        {
          "internalType": "address",
          "name": "refferal",
          "type": "address"
        },
        {
          "internalType": "uint256",
          "name": "dappId",
          "type": "uint256"
        }
      ],
      "name": "buyCard",
      "outputs": [],
      "stateMutability": "payable",
      "type": "function"
    },
    {
      "inputs": [
        {
          "internalType": "uint256",
          "name": "tokenId",
          "type": "uint256"
        }
      ],
      "name": "getApproved",
      "outputs": [
        {
          "internalType": "address",
          "name": "",
          "type": "address"
        }
      ],
      "stateMutability": "view",
      "type": "function"
    },
    {
      "inputs": [
        {
          "internalType": "address",
          "name": "owner",
          "type": "address"
        },
        {
          "internalType": "address",
          "name": "operator",
          "type": "address"
        }
      ],
      "name": "isApprovedForAll",
      "outputs": [
        {
          "internalType": "bool",
          "name": "",
          "type": "bool"
        }
      ],
      "stateMutability": "view",
      "type": "function"
    },
    {
      "inputs": [],
      "name": "lastRandom",
      "outputs": [
        {
          "internalType": "uint256",
          "name": "",
          "type": "uint256"
        }
      ],
      "stateMutability": "view",
      "type": "function"
    },
    {
      "inputs": [],
      "name": "name",
      "outputs": [
        {
          "internalType": "string",
          "name": "",
          "type": "string"
        }
      ],
      "stateMutability": "view",
      "type": "function"
    },
    {
      "inputs": [],
      "name": "owner",
      "outputs": [
        {
          "internalType": "address",
          "name": "",
          "type": "address"
        }
      ],
      "stateMutability": "view",
      "type": "function"
    },
    {
      "inputs": [
        {
          "internalType": "uint256",
          "name": "tokenId",
          "type": "uint256"
        }
      ],
      "name": "ownerOf",
      "outputs": [
        {
          "internalType": "address",
          "name": "",
          "type": "address"
        }
      ],
      "stateMutability": "view",
      "type": "function"
    },
    {
      "inputs": [],
      "name": "renounceOwnership",
      "outputs": [],
      "stateMutability": "nonpayable",
      "type": "function"
    },
    {
      "inputs": [],
      "name": "rollDice",
      "outputs": [],
      "stateMutability": "nonpayable",
      "type": "function"
    },
    {
      "inputs": [
        {
          "internalType": "address",
          "name": "from",
          "type": "address"
        },
        {
          "internalType": "address",
          "name": "to",
          "type": "address"
        },
        {
          "internalType": "uint256",
          "name": "tokenId",
          "type": "uint256"
        }
      ],
      "name": "safeTransferFrom",
      "outputs": [],
      "stateMutability": "nonpayable",
      "type": "function"
    },
    {
      "inputs": [
        {
          "internalType": "address",
          "name": "from",
          "type": "address"
        },
        {
          "internalType": "address",
          "name": "to",
          "type": "address"
        },
        {
          "internalType": "uint256",
          "name": "tokenId",
          "type": "uint256"
        },
        {
          "internalType": "bytes",
          "name": "_data",
          "type": "bytes"
        }
      ],
      "name": "safeTransferFrom",
      "outputs": [],
      "stateMutability": "nonpayable",
      "type": "function"
    },
    {
      "inputs": [
        {
          "internalType": "uint256",
          "name": "_randomness",
          "type": "uint256"
        }
      ],
      "name": "select",
      "outputs": [],
      "stateMutability": "nonpayable",
      "type": "function"
    },
    {
      "inputs": [
        {
          "internalType": "address",
          "name": "operator",
          "type": "address"
        },
        {
          "internalType": "bool",
          "name": "approved",
          "type": "bool"
        }
      ],
      "name": "setApprovalForAll",
      "outputs": [],
      "stateMutability": "nonpayable",
      "type": "function"
    },
    {
      "inputs": [
        {
          "internalType": "uint256",
          "name": "_chancePercent",
          "type": "uint256"
        }
      ],
      "name": "setChancePercent",
      "outputs": [],
      "stateMutability": "nonpayable",
      "type": "function"
    },
    {
      "inputs": [
        {
          "internalType": "uint256",
          "name": "_commissionPercent",
          "type": "uint256"
        }
      ],
      "name": "setCommissionPercent",
      "outputs": [],
      "stateMutability": "nonpayable",
      "type": "function"
    },
    {
      "inputs": [
        {
          "internalType": "uint256",
          "name": "_power",
          "type": "uint256"
        }
      ],
      "name": "setPower",
      "outputs": [],
      "stateMutability": "nonpayable",
      "type": "function"
    },
    {
      "inputs": [
        {
          "internalType": "uint256",
          "name": "_roundTime",
          "type": "uint256"
        }
      ],
      "name": "setRoundTime",
      "outputs": [],
      "stateMutability": "nonpayable",
      "type": "function"
    },
    {
      "inputs": [
        {
          "internalType": "uint256",
          "name": "_roundTime",
          "type": "uint256"
        },
        {
          "internalType": "uint256",
          "name": "_chancePercent",
          "type": "uint256"
        },
        {
          "internalType": "uint256",
          "name": "_power",
          "type": "uint256"
        },
        {
          "internalType": "uint256",
          "name": "_commissionPercent",
          "type": "uint256"
        }
      ],
      "name": "setVars",
      "outputs": [],
      "stateMutability": "nonpayable",
      "type": "function"
    },
    {
      "inputs": [
        {
          "internalType": "bytes4",
          "name": "interfaceId",
          "type": "bytes4"
        }
      ],
      "name": "supportsInterface",
      "outputs": [
        {
          "internalType": "bool",
          "name": "",
          "type": "bool"
        }
      ],
      "stateMutability": "view",
      "type": "function"
    },
    {
      "inputs": [],
      "name": "symbol",
      "outputs": [
        {
          "internalType": "string",
          "name": "",
          "type": "string"
        }
      ],
      "stateMutability": "view",
      "type": "function"
    },
    {
      "inputs": [
        {
          "internalType": "uint256",
          "name": "tokenId",
          "type": "uint256"
        }
      ],
      "name": "tokenURI",
      "outputs": [
        {
          "internalType": "string",
          "name": "",
          "type": "string"
        }
      ],
      "stateMutability": "view",
      "type": "function"
    },
    {
      "inputs": [],
      "name": "totalSupply",
      "outputs": [
        {
          "internalType": "uint256",
          "name": "",
          "type": "uint256"
        }
      ],
      "stateMutability": "view",
      "type": "function"
    },
    {
      "inputs": [],
      "name": "totalValueLocked",
      "outputs": [
        {
          "internalType": "uint256",
          "name": "",
          "type": "uint256"
        }
      ],
      "stateMutability": "view",
      "type": "function"
    },
    {
      "inputs": [
        {
          "internalType": "address",
          "name": "from",
          "type": "address"
        },
        {
          "internalType": "address",
          "name": "to",
          "type": "address"
        },
        {
          "internalType": "uint256",
          "name": "tokenId",
          "type": "uint256"
        }
      ],
      "name": "transferFrom",
      "outputs": [],
      "stateMutability": "nonpayable",
      "type": "function"
    },
    {
      "inputs": [
        {
          "internalType": "address",
          "name": "newOwner",
          "type": "address"
        }
      ],
      "name": "transferOwnership",
      "outputs": [],
      "stateMutability": "nonpayable",
      "type": "function"
    },
    {
      "inputs": [],
      "name": "version",
      "outputs": [
        {
          "internalType": "string",
          "name": "",
          "type": "string"
        }
      ],
      "stateMutability": "pure",
      "type": "function"
    }
  ],
  "bytecode": "0x60806040523480156200001157600080fd5b506040518060400160405280600881526020017f506f7765724e46540000000000000000000000000000000000000000000000008152506040518060400160405280600381526020017f50575200000000000000000000000000000000000000000000000000000000008152508160009080519060200190620000969291906200045b565b508060019080519060200190620000af9291906200045b565b505050620000d2620000c66200026260201b60201c565b6200026a60201b60201c565b736aad5a41f93ff379624678f052f395c82294e53d600960006101000a81548173ffffffffffffffffffffffffffffffffffffffff021916908373ffffffffffffffffffffffffffffffffffffffff16021790555073d674b940a128c81b9894b4a0db2b2044acbc2882600860006101000a81548173ffffffffffffffffffffffffffffffffffffffff021916908373ffffffffffffffffffffffffffffffffffffffff160217905550600960009054906101000a900473ffffffffffffffffffffffffffffffffffffffff16601760006101000a81548173ffffffffffffffffffffffffffffffffffffffff021916908373ffffffffffffffffffffffffffffffffffffffff160217905550600860009054906101000a900473ffffffffffffffffffffffffffffffffffffffff16601860006101000a81548173ffffffffffffffffffffffffffffffffffffffff021916908373ffffffffffffffffffffffffffffffffffffffff1602179055506200025c62015180604b600260196200033060201b60201c565b620005f3565b600033905090565b6000600760009054906101000a900473ffffffffffffffffffffffffffffffffffffffff16905081600760006101000a81548173ffffffffffffffffffffffffffffffffffffffff021916908373ffffffffffffffffffffffffffffffffffffffff1602179055508173ffffffffffffffffffffffffffffffffffffffff168173ffffffffffffffffffffffffffffffffffffffff167f8be0079c531659141344cd1fd0a4f28419497f9722a3daafe3b4186f6b6457e060405160405180910390a35050565b620003406200026260201b60201c565b73ffffffffffffffffffffffffffffffffffffffff16620003666200040960201b60201c565b73ffffffffffffffffffffffffffffffffffffffff1614620003bf576040517f08c379a0000000000000000000000000000000000000000000000000000000008152600401620003b6906200056c565b60405180910390fd5b620003d0846200043360201b60201c565b620003e1836200043d60201b60201c565b620003f2826200044760201b60201c565b62000403816200045160201b60201c565b50505050565b6000600760009054906101000a900473ffffffffffffffffffffffffffffffffffffffff16905090565b80600a8190555050565b80600b8190555050565b80600c8190555050565b80600d8190555050565b8280546200046990620005bd565b90600052602060002090601f0160209004810192826200048d5760008555620004d9565b82601f10620004a857805160ff1916838001178555620004d9565b82800160010185558215620004d9579182015b82811115620004d8578251825591602001919060010190620004bb565b5b509050620004e89190620004ec565b5090565b5b8082111562000507576000816000905550600101620004ed565b5090565b600082825260208201905092915050565b7f4f776e61626c653a2063616c6c6572206973206e6f7420746865206f776e6572600082015250565b6000620005546020836200050b565b915062000561826200051c565b602082019050919050565b60006020820190508181036000830152620005878162000545565b9050919050565b7f4e487b7100000000000000000000000000000000000000000000000000000000600052602260045260246000fd5b60006002820490506001821680620005d657607f821691505b60208210811415620005ed57620005ec6200058e565b5b50919050565b61434380620006036000396000f3fe6080604052600436106101d85760003560e01c80637c695cc111610102578063a856b9c211610095578063ec18154e11610064578063ec18154e14610697578063f2fde38b146106c2578063fa65cb04146106eb578063fa8f04fb14610714576101d8565b8063a856b9c2146105c9578063b88d4fde146105f4578063c87b56dd1461061d578063e985e9c51461065a576101d8565b80638da5cb5b116100d15780638da5cb5b1461052157806395d89b411461054c578063a1d0b34a14610577578063a22cb465146105a0576101d8565b80637c695cc11461049c578063837e7cc6146104c5578063839a19d9146104dc57806386e3f9da14610505576101d8565b8063404a9ab81161017a5780636352211e116101495780636352211e146103e257806370a082311461041f578063715018a61461045c57806373a587d014610473576101d8565b8063404a9ab81461033c57806342842e0e14610365578063538bb5621461038e57806354fd4d50146103b7576101d8565b8063095ea7b3116101b6578063095ea7b31461028257806318160ddd146102ab57806323b872dd146102d657806323df1a89146102ff576101d8565b806301ffc9a7146101dd57806306fdde031461021a578063081812fc14610245575b600080fd5b3480156101e957600080fd5b5061020460048036038101906101ff9190612bce565b610751565b6040516102119190612c16565b60405180910390f35b34801561022657600080fd5b5061022f610833565b60405161023c9190612cca565b60405180910390f35b34801561025157600080fd5b5061026c60048036038101906102679190612d22565b6108c5565b6040516102799190612d90565b60405180910390f35b34801561028e57600080fd5b506102a960048036038101906102a49190612dd7565b61094a565b005b3480156102b757600080fd5b506102c0610a62565b6040516102cd9190612e26565b60405180910390f35b3480156102e257600080fd5b506102fd60048036038101906102f89190612e41565b610a6c565b005b34801561030b57600080fd5b5061032660048036038101906103219190612d22565b610acc565b6040516103339190612e26565b60405180910390f35b34801561034857600080fd5b50610363600480360381019061035e9190612d22565b610ae9565b005b34801561037157600080fd5b5061038c60048036038101906103879190612e41565b610b71565b005b34801561039a57600080fd5b506103b560048036038101906103b09190612e94565b610b91565b005b3480156103c357600080fd5b506103cc610c37565b6040516103d99190612cca565b60405180910390f35b3480156103ee57600080fd5b5061040960048036038101906104049190612d22565b610c74565b6040516104169190612d90565b60405180910390f35b34801561042b57600080fd5b5061044660048036038101906104419190612efb565b610d26565b6040516104539190612e26565b60405180910390f35b34801561046857600080fd5b50610471610dde565b005b34801561047f57600080fd5b5061049a60048036038101906104959190612d22565b610e66565b005b3480156104a857600080fd5b506104c360048036038101906104be9190612d22565b610eee565b005b3480156104d157600080fd5b506104da611006565b005b3480156104e857600080fd5b5061050360048036038101906104fe9190612d22565b61113f565b005b61051f600480360381019061051a919061305d565b6112a3565b005b34801561052d57600080fd5b506105366112bd565b6040516105439190612d90565b60405180910390f35b34801561055857600080fd5b506105616112e7565b60405161056e9190612cca565b60405180910390f35b34801561058357600080fd5b5061059e60048036038101906105999190612d22565b611379565b005b3480156105ac57600080fd5b506105c760048036038101906105c291906130f8565b611401565b005b3480156105d557600080fd5b506105de611417565b6040516105eb9190612e26565b60405180910390f35b34801561060057600080fd5b5061061b600480360381019061061691906131d9565b611421565b005b34801561062957600080fd5b50610644600480360381019061063f9190612d22565b611483565b6040516106519190612cca565b60405180910390f35b34801561066657600080fd5b50610681600480360381019061067c919061325c565b611495565b60405161068e9190612c16565b60405180910390f35b3480156106a357600080fd5b506106ac611529565b6040516106b99190612e26565b60405180910390f35b3480156106ce57600080fd5b506106e960048036038101906106e49190612efb565b611533565b005b3480156106f757600080fd5b50610712600480360381019061070d9190612d22565b61162b565b005b34801561072057600080fd5b5061073b60048036038101906107369190612d22565b6116b3565b6040516107489190612e26565b60405180910390f35b60007f80ac58cd000000000000000000000000000000000000000000000000000000007bffffffffffffffffffffffffffffffffffffffffffffffffffffffff1916827bffffffffffffffffffffffffffffffffffffffffffffffffffffffff1916148061081c57507f5b5e139f000000000000000000000000000000000000000000000000000000007bffffffffffffffffffffffffffffffffffffffffffffffffffffffff1916827bffffffffffffffffffffffffffffffffffffffffffffffffffffffff1916145b8061082c575061082b826116d0565b5b9050919050565b606060008054610842906132cb565b80601f016020809104026020016040519081016040528092919081815260200182805461086e906132cb565b80156108bb5780601f10610890576101008083540402835291602001916108bb565b820191906000526020600020905b81548152906001019060200180831161089e57829003601f168201915b5050505050905090565b60006108d08261173a565b61090f576040517f08c379a00000000000000000000000000000000000000000000000000000000081526004016109069061336f565b60405180910390fd5b6004600083815260200190815260200160002060009054906101000a900473ffffffffffffffffffffffffffffffffffffffff169050919050565b600061095582610c74565b90508073ffffffffffffffffffffffffffffffffffffffff168373ffffffffffffffffffffffffffffffffffffffff1614156109c6576040517f08c379a00000000000000000000000000000000000000000000000000000000081526004016109bd90613401565b60405180910390fd5b8073ffffffffffffffffffffffffffffffffffffffff166109e56117a6565b73ffffffffffffffffffffffffffffffffffffffff161480610a145750610a1381610a0e6117a6565b611495565b5b610a53576040517f08c379a0000000000000000000000000000000000000000000000000000000008152600401610a4a90613493565b60405180910390fd5b610a5d83836117ae565b505050565b6000600e54905090565b610a7d610a776117a6565b82611867565b610abc576040517f08c379a0000000000000000000000000000000000000000000000000000000008152600401610ab390613525565b60405180910390fd5b610ac7838383611945565b505050565b600060166000838152602001908152602001600020549050919050565b610af16117a6565b73ffffffffffffffffffffffffffffffffffffffff16610b0f6112bd565b73ffffffffffffffffffffffffffffffffffffffff1614610b65576040517f08c379a0000000000000000000000000000000000000000000000000000000008152600401610b5c90613591565b60405180910390fd5b610b6e81611ba1565b50565b610b8c83838360405180602001604052806000815250611421565b505050565b610b996117a6565b73ffffffffffffffffffffffffffffffffffffffff16610bb76112bd565b73ffffffffffffffffffffffffffffffffffffffff1614610c0d576040517f08c379a0000000000000000000000000000000000000000000000000000000008152600401610c0490613591565b60405180910390fd5b610c1684611bab565b610c1f83611bb5565b610c2882611bbf565b610c3181611ba1565b50505050565b60606040518060400160405280600181526020017f3100000000000000000000000000000000000000000000000000000000000000815250905090565b6000806002600084815260200190815260200160002060009054906101000a900473ffffffffffffffffffffffffffffffffffffffff169050600073ffffffffffffffffffffffffffffffffffffffff168173ffffffffffffffffffffffffffffffffffffffff161415610d1d576040517f08c379a0000000000000000000000000000000000000000000000000000000008152600401610d1490613623565b60405180910390fd5b80915050919050565b60008073ffffffffffffffffffffffffffffffffffffffff168273ffffffffffffffffffffffffffffffffffffffff161415610d97576040517f08c379a0000000000000000000000000000000000000000000000000000000008152600401610d8e906136b5565b60405180910390fd5b600360008373ffffffffffffffffffffffffffffffffffffffff1673ffffffffffffffffffffffffffffffffffffffff168152602001908152602001600020549050919050565b610de66117a6565b73ffffffffffffffffffffffffffffffffffffffff16610e046112bd565b73ffffffffffffffffffffffffffffffffffffffff1614610e5a576040517f08c379a0000000000000000000000000000000000000000000000000000000008152600401610e5190613591565b60405180910390fd5b610e646000611bc9565b565b610e6e6117a6565b73ffffffffffffffffffffffffffffffffffffffff16610e8c6112bd565b73ffffffffffffffffffffffffffffffffffffffff1614610ee2576040517f08c379a0000000000000000000000000000000000000000000000000000000008152600401610ed990613591565b60405180910390fd5b610eeb81611bb5565b50565b6000610ef982610c74565b90503373ffffffffffffffffffffffffffffffffffffffff168173ffffffffffffffffffffffffffffffffffffffff1614610f69576040517f08c379a0000000000000000000000000000000000000000000000000000000008152600401610f6090613747565b60405180910390fd5b6000601660008481526020019081526020016000205490508060146000828254610f939190613796565b925050819055506016600084815260200190815260200160002060009055610fba83611c8f565b8173ffffffffffffffffffffffffffffffffffffffff166108fc829081150290604051600060405180830381858888f19350505050158015611000573d6000803e3d6000fd5b50505050565b60115442101561104b576040517f08c379a00000000000000000000000000000000000000000000000000000000081526004016110429061383c565b60405180910390fd5b600063839a19d960e01b90506000601860009054906101000a900473ffffffffffffffffffffffffffffffffffffffff1673ffffffffffffffffffffffffffffffffffffffff1663f5d34f23601254846040518363ffffffff1660e01b81526004016110b7919061386b565b60206040518083038185885af11580156110d5573d6000803e3d6000fd5b50505050506040513d601f19601f820116820180604052508101906110fa91906138bc565b90507f72179fcf9070583e88aa5e724a71e6affe79c12733c644cc78fe215dde9fa0028160405161112b91906138f8565b60405180910390a161113b611ca3565b5050565b600860009054906101000a900473ffffffffffffffffffffffffffffffffffffffff1673ffffffffffffffffffffffffffffffffffffffff163373ffffffffffffffffffffffffffffffffffffffff16146111cf576040517f08c379a00000000000000000000000000000000000000000000000000000000081526004016111c69061395f565b60405180910390fd5b6111d881611cab565b600b546064826111e891906139ae565b116112955760006064826111fc91906139df565b905060006001600e548361121091906139ae565b61121a9190613a10565b905060006015600083815260200190815260200160002054600c5461123f9190613a66565b905061124a82611cb5565b6112548282611cbf565b7f4545df8bdbf258e643214cfbd34c6f316adf04fd11fd845524d9e54a0268d86b8282604051611285929190613ac0565b60405180910390a15050506112a0565b61129f6000611cb5565b5b50565b6112ae348383611cdb565b6112b88334611e4e565b505050565b6000600760009054906101000a900473ffffffffffffffffffffffffffffffffffffffff16905090565b6060600180546112f6906132cb565b80601f0160208091040260200160405190810160405280929190818152602001828054611322906132cb565b801561136f5780601f106113445761010080835404028352916020019161136f565b820191906000526020600020905b81548152906001019060200180831161135257829003601f168201915b5050505050905090565b6113816117a6565b73ffffffffffffffffffffffffffffffffffffffff1661139f6112bd565b73ffffffffffffffffffffffffffffffffffffffff16146113f5576040517f08c379a00000000000000000000000000000000000000000000000000000000081526004016113ec90613591565b60405180910390fd5b6113fe81611bbf565b50565b61141361140c6117a6565b8383611e7d565b5050565b6000600f54905090565b61143261142c6117a6565b83611867565b611471576040517f08c379a000000000000000000000000000000000000000000000000000000000815260040161146890613525565b60405180910390fd5b61147d84848484611fea565b50505050565b606061148e82612046565b9050919050565b6000600560008473ffffffffffffffffffffffffffffffffffffffff1673ffffffffffffffffffffffffffffffffffffffff16815260200190815260200160002060008373ffffffffffffffffffffffffffffffffffffffff1673ffffffffffffffffffffffffffffffffffffffff16815260200190815260200160002060009054906101000a900460ff16905092915050565b6000601454905090565b61153b6117a6565b73ffffffffffffffffffffffffffffffffffffffff166115596112bd565b73ffffffffffffffffffffffffffffffffffffffff16146115af576040517f08c379a00000000000000000000000000000000000000000000000000000000081526004016115a690613591565b60405180910390fd5b600073ffffffffffffffffffffffffffffffffffffffff168173ffffffffffffffffffffffffffffffffffffffff16141561161f576040517f08c379a000000000000000000000000000000000000000000000000000000000815260040161161690613b5b565b60405180910390fd5b61162881611bc9565b50565b6116336117a6565b73ffffffffffffffffffffffffffffffffffffffff166116516112bd565b73ffffffffffffffffffffffffffffffffffffffff16146116a7576040517f08c379a000000000000000000000000000000000000000000000000000000000815260040161169e90613591565b60405180910390fd5b6116b081611bab565b50565b600060156000838152602001908152602001600020549050919050565b60007f01ffc9a7000000000000000000000000000000000000000000000000000000007bffffffffffffffffffffffffffffffffffffffffffffffffffffffff1916827bffffffffffffffffffffffffffffffffffffffffffffffffffffffff1916149050919050565b60008073ffffffffffffffffffffffffffffffffffffffff166002600084815260200190815260200160002060009054906101000a900473ffffffffffffffffffffffffffffffffffffffff1673ffffffffffffffffffffffffffffffffffffffff1614159050919050565b600033905090565b816004600083815260200190815260200160002060006101000a81548173ffffffffffffffffffffffffffffffffffffffff021916908373ffffffffffffffffffffffffffffffffffffffff160217905550808273ffffffffffffffffffffffffffffffffffffffff1661182183610c74565b73ffffffffffffffffffffffffffffffffffffffff167f8c5be1e5ebec7d5bd14f71427d1e84f3dd0314c0f7b2291e5b200ac8c7c3b92560405160405180910390a45050565b60006118728261173a565b6118b1576040517f08c379a00000000000000000000000000000000000000000000000000000000081526004016118a890613bed565b60405180910390fd5b60006118bc83610c74565b90508073ffffffffffffffffffffffffffffffffffffffff168473ffffffffffffffffffffffffffffffffffffffff16148061192b57508373ffffffffffffffffffffffffffffffffffffffff16611913846108c5565b73ffffffffffffffffffffffffffffffffffffffff16145b8061193c575061193b8185611495565b5b91505092915050565b8273ffffffffffffffffffffffffffffffffffffffff1661196582610c74565b73ffffffffffffffffffffffffffffffffffffffff16146119bb576040517f08c379a00000000000000000000000000000000000000000000000000000000081526004016119b290613c7f565b60405180910390fd5b600073ffffffffffffffffffffffffffffffffffffffff168273ffffffffffffffffffffffffffffffffffffffff161415611a2b576040517f08c379a0000000000000000000000000000000000000000000000000000000008152600401611a2290613d11565b60405180910390fd5b611a36838383612198565b611a416000826117ae565b6001600360008573ffffffffffffffffffffffffffffffffffffffff1673ffffffffffffffffffffffffffffffffffffffff1681526020019081526020016000206000828254611a919190613796565b925050819055506001600360008473ffffffffffffffffffffffffffffffffffffffff1673ffffffffffffffffffffffffffffffffffffffff1681526020019081526020016000206000828254611ae89190613a10565b92505081905550816002600083815260200190815260200160002060006101000a81548173ffffffffffffffffffffffffffffffffffffffff021916908373ffffffffffffffffffffffffffffffffffffffff160217905550808273ffffffffffffffffffffffffffffffffffffffff168473ffffffffffffffffffffffffffffffffffffffff167fddf252ad1be2c89b69c2b068fc378daa952ba7f163c4a11628f55a4df523b3ef60405160405180910390a4505050565b80600d8190555050565b80600a8190555050565b80600b8190555050565b80600c8190555050565b6000600760009054906101000a900473ffffffffffffffffffffffffffffffffffffffff16905081600760006101000a81548173ffffffffffffffffffffffffffffffffffffffff021916908373ffffffffffffffffffffffffffffffffffffffff1602179055508173ffffffffffffffffffffffffffffffffffffffff168173ffffffffffffffffffffffffffffffffffffffff167f8be0079c531659141344cd1fd0a4f28419497f9722a3daafe3b4186f6b6457e060405160405180910390a35050565b611c988161219d565b611ca06121f0565b50565b601260009055565b80600f8190555050565b8060108190555050565b8060166000848152602001908152602001600020819055505050565b6000611d77601860009054906101000a900473ffffffffffffffffffffffffffffffffffffffff1673ffffffffffffffffffffffffffffffffffffffff166352fa88566040518163ffffffff1660e01b8152600401602060405180830381865afa158015611d4d573d6000803e3d6000fd5b505050506040513d601f19601f82011682018060405250810190611d719190613d46565b8561220a565b905060006064600d5486611d8b9190613a66565b611d9591906139df565b905080821115611e3e578082611dab9190613796565b9150601760009054906101000a900473ffffffffffffffffffffffffffffffffffffffff1673ffffffffffffffffffffffffffffffffffffffff16639c92d9628286866040518463ffffffff1660e01b8152600401611e0b929190613d73565b6000604051808303818588803b158015611e2457600080fd5b505af1158015611e38573d6000803e3d6000fd5b50505050505b611e4782612282565b5050505050565b6000611e5861229e565b9050611e6433826122c3565b611e6e81846122e1565b611e788183612355565b505050565b8173ffffffffffffffffffffffffffffffffffffffff168373ffffffffffffffffffffffffffffffffffffffff161415611eec576040517f08c379a0000000000000000000000000000000000000000000000000000000008152600401611ee390613de8565b60405180910390fd5b80600560008573ffffffffffffffffffffffffffffffffffffffff1673ffffffffffffffffffffffffffffffffffffffff16815260200190815260200160002060008473ffffffffffffffffffffffffffffffffffffffff1673ffffffffffffffffffffffffffffffffffffffff16815260200190815260200160002060006101000a81548160ff0219169083151502179055508173ffffffffffffffffffffffffffffffffffffffff168373ffffffffffffffffffffffffffffffffffffffff167f17307eab39ab6107e8899845ad3d59bd9653f200f220920489ca2b5937696c3183604051611fdd9190612c16565b60405180910390a3505050565b611ff5848484611945565b61200184848484612371565b612040576040517f08c379a000000000000000000000000000000000000000000000000000000000815260040161203790613e7a565b60405180910390fd5b50505050565b60606120518261173a565b612090576040517f08c379a000000000000000000000000000000000000000000000000000000000815260040161208790613f0c565b60405180910390fd5b60006006600084815260200190815260200160002080546120b0906132cb565b80601f01602080910402602001604051908101604052809291908181526020018280546120dc906132cb565b80156121295780601f106120fe57610100808354040283529160200191612129565b820191906000526020600020905b81548152906001019060200180831161210c57829003601f168201915b50505050509050600061213a6124f9565b9050600081511415612150578192505050612193565b60008251111561218557808260405160200161216d929190613f68565b60405160208183030381529060405292505050612193565b61218e84612510565b925050505b919050565b505050565b6121a6816125b7565b60006006600083815260200190815260200160002080546121c6906132cb565b9050146121ed576006600082815260200190815260200160002060006121ec9190612a7f565b5b50565b600e600081548092919061220390613f8c565b9190505550565b6000806012548461221b9190613796565b905060008111156122785782811061224f57826012600082825461223f9190613a10565b9250508190555060009250612277565b80601260008282546122619190613a10565b9250508190555080836122749190613796565b92505b5b8291505092915050565b80601460008282546122949190613a10565b9250508190555050565b60006122a86126c8565b6000601354146122ba576013546122be565b600e545b905090565b6122dd8282604051806020016040528060008152506126e2565b5050565b6122ea8261173a565b612329576040517f08c379a000000000000000000000000000000000000000000000000000000000815260040161232090614028565b60405180910390fd5b80600660008481526020019081526020016000209080519060200190612350929190612abf565b505050565b8060156000848152602001908152602001600020819055505050565b60006123928473ffffffffffffffffffffffffffffffffffffffff1661273d565b156124ec578373ffffffffffffffffffffffffffffffffffffffff1663150b7a026123bb6117a6565b8786866040518563ffffffff1660e01b81526004016123dd949392919061409d565b6020604051808303816000875af192505050801561241957506040513d601f19601f8201168201806040525081019061241691906140fe565b60015b61249c573d8060008114612449576040519150601f19603f3d011682016040523d82523d6000602084013e61244e565b606091505b50600081511415612494576040517f08c379a000000000000000000000000000000000000000000000000000000000815260040161248b90613e7a565b60405180910390fd5b805181602001fd5b63150b7a0260e01b7bffffffffffffffffffffffffffffffffffffffffffffffffffffffff1916817bffffffffffffffffffffffffffffffffffffffffffffffffffffffff1916149150506124f1565b600190505b949350505050565b606060405180602001604052806000815250905090565b606061251b8261173a565b61255a576040517f08c379a00000000000000000000000000000000000000000000000000000000081526004016125519061419d565b60405180910390fd5b60006125646124f9565b9050600081511161258457604051806020016040528060008152506125af565b8061258e84612750565b60405160200161259f929190613f68565b6040516020818303038152906040525b915050919050565b60006125c282610c74565b90506125d081600084612198565b6125db6000836117ae565b6001600360008373ffffffffffffffffffffffffffffffffffffffff1673ffffffffffffffffffffffffffffffffffffffff168152602001908152602001600020600082825461262b9190613796565b925050819055506002600083815260200190815260200160002060006101000a81549073ffffffffffffffffffffffffffffffffffffffff021916905581600073ffffffffffffffffffffffffffffffffffffffff168273ffffffffffffffffffffffffffffffffffffffff167fddf252ad1be2c89b69c2b068fc378daa952ba7f163c4a11628f55a4df523b3ef60405160405180910390a45050565b600e60008154809291906126db906141bd565b9190505550565b6126ec83836128b1565b6126f96000848484612371565b612738576040517f08c379a000000000000000000000000000000000000000000000000000000000815260040161272f90613e7a565b60405180910390fd5b505050565b600080823b905060008111915050919050565b60606000821415612798576040518060400160405280600181526020017f300000000000000000000000000000000000000000000000000000000000000081525090506128ac565b600082905060005b600082146127ca5780806127b3906141bd565b915050600a826127c391906139df565b91506127a0565b60008167ffffffffffffffff8111156127e6576127e5612f32565b5b6040519080825280601f01601f1916602001820160405280156128185781602001600182028036833780820191505090505b5090505b600085146128a5576001826128319190613796565b9150600a8561284091906139ae565b603061284c9190613a10565b60f81b81838151811061286257612861614206565b5b60200101907effffffffffffffffffffffffffffffffffffffffffffffffffffffffffffff1916908160001a905350600a8561289e91906139df565b945061281c565b8093505050505b919050565b600073ffffffffffffffffffffffffffffffffffffffff168273ffffffffffffffffffffffffffffffffffffffff161415612921576040517f08c379a000000000000000000000000000000000000000000000000000000000815260040161291890614281565b60405180910390fd5b61292a8161173a565b1561296a576040517f08c379a0000000000000000000000000000000000000000000000000000000008152600401612961906142ed565b60405180910390fd5b61297660008383612198565b6001600360008473ffffffffffffffffffffffffffffffffffffffff1673ffffffffffffffffffffffffffffffffffffffff16815260200190815260200160002060008282546129c69190613a10565b92505081905550816002600083815260200190815260200160002060006101000a81548173ffffffffffffffffffffffffffffffffffffffff021916908373ffffffffffffffffffffffffffffffffffffffff160217905550808273ffffffffffffffffffffffffffffffffffffffff16600073ffffffffffffffffffffffffffffffffffffffff167fddf252ad1be2c89b69c2b068fc378daa952ba7f163c4a11628f55a4df523b3ef60405160405180910390a45050565b508054612a8b906132cb565b6000825580601f10612a9d5750612abc565b601f016020900490600052602060002090810190612abb9190612b45565b5b50565b828054612acb906132cb565b90600052602060002090601f016020900481019282612aed5760008555612b34565b82601f10612b0657805160ff1916838001178555612b34565b82800160010185558215612b34579182015b82811115612b33578251825591602001919060010190612b18565b5b509050612b419190612b45565b5090565b5b80821115612b5e576000816000905550600101612b46565b5090565b6000604051905090565b600080fd5b600080fd5b60007fffffffff0000000000000000000000000000000000000000000000000000000082169050919050565b612bab81612b76565b8114612bb657600080fd5b50565b600081359050612bc881612ba2565b92915050565b600060208284031215612be457612be3612b6c565b5b6000612bf284828501612bb9565b91505092915050565b60008115159050919050565b612c1081612bfb565b82525050565b6000602082019050612c2b6000830184612c07565b92915050565b600081519050919050565b600082825260208201905092915050565b60005b83811015612c6b578082015181840152602081019050612c50565b83811115612c7a576000848401525b50505050565b6000601f19601f8301169050919050565b6000612c9c82612c31565b612ca68185612c3c565b9350612cb6818560208601612c4d565b612cbf81612c80565b840191505092915050565b60006020820190508181036000830152612ce48184612c91565b905092915050565b6000819050919050565b612cff81612cec565b8114612d0a57600080fd5b50565b600081359050612d1c81612cf6565b92915050565b600060208284031215612d3857612d37612b6c565b5b6000612d4684828501612d0d565b91505092915050565b600073ffffffffffffffffffffffffffffffffffffffff82169050919050565b6000612d7a82612d4f565b9050919050565b612d8a81612d6f565b82525050565b6000602082019050612da56000830184612d81565b92915050565b612db481612d6f565b8114612dbf57600080fd5b50565b600081359050612dd181612dab565b92915050565b60008060408385031215612dee57612ded612b6c565b5b6000612dfc85828601612dc2565b9250506020612e0d85828601612d0d565b9150509250929050565b612e2081612cec565b82525050565b6000602082019050612e3b6000830184612e17565b92915050565b600080600060608486031215612e5a57612e59612b6c565b5b6000612e6886828701612dc2565b9350506020612e7986828701612dc2565b9250506040612e8a86828701612d0d565b9150509250925092565b60008060008060808587031215612eae57612ead612b6c565b5b6000612ebc87828801612d0d565b9450506020612ecd87828801612d0d565b9350506040612ede87828801612d0d565b9250506060612eef87828801612d0d565b91505092959194509250565b600060208284031215612f1157612f10612b6c565b5b6000612f1f84828501612dc2565b91505092915050565b600080fd5b600080fd5b7f4e487b7100000000000000000000000000000000000000000000000000000000600052604160045260246000fd5b612f6a82612c80565b810181811067ffffffffffffffff82111715612f8957612f88612f32565b5b80604052505050565b6000612f9c612b62565b9050612fa88282612f61565b919050565b600067ffffffffffffffff821115612fc857612fc7612f32565b5b612fd182612c80565b9050602081019050919050565b82818337600083830152505050565b6000613000612ffb84612fad565b612f92565b90508281526020810184848401111561301c5761301b612f2d565b5b613027848285612fde565b509392505050565b600082601f83011261304457613043612f28565b5b8135613054848260208601612fed565b91505092915050565b60008060006060848603121561307657613075612b6c565b5b600084013567ffffffffffffffff81111561309457613093612b71565b5b6130a08682870161302f565b93505060206130b186828701612dc2565b92505060406130c286828701612d0d565b9150509250925092565b6130d581612bfb565b81146130e057600080fd5b50565b6000813590506130f2816130cc565b92915050565b6000806040838503121561310f5761310e612b6c565b5b600061311d85828601612dc2565b925050602061312e858286016130e3565b9150509250929050565b600067ffffffffffffffff82111561315357613152612f32565b5b61315c82612c80565b9050602081019050919050565b600061317c61317784613138565b612f92565b90508281526020810184848401111561319857613197612f2d565b5b6131a3848285612fde565b509392505050565b600082601f8301126131c0576131bf612f28565b5b81356131d0848260208601613169565b91505092915050565b600080600080608085870312156131f3576131f2612b6c565b5b600061320187828801612dc2565b945050602061321287828801612dc2565b935050604061322387828801612d0d565b925050606085013567ffffffffffffffff81111561324457613243612b71565b5b613250878288016131ab565b91505092959194509250565b6000806040838503121561327357613272612b6c565b5b600061328185828601612dc2565b925050602061329285828601612dc2565b9150509250929050565b7f4e487b7100000000000000000000000000000000000000000000000000000000600052602260045260246000fd5b600060028204905060018216806132e357607f821691505b602082108114156132f7576132f661329c565b5b50919050565b7f4552433732313a20617070726f76656420717565727920666f72206e6f6e657860008201527f697374656e7420746f6b656e0000000000000000000000000000000000000000602082015250565b6000613359602c83612c3c565b9150613364826132fd565b604082019050919050565b600060208201905081810360008301526133888161334c565b9050919050565b7f4552433732313a20617070726f76616c20746f2063757272656e74206f776e6560008201527f7200000000000000000000000000000000000000000000000000000000000000602082015250565b60006133eb602183612c3c565b91506133f68261338f565b604082019050919050565b6000602082019050818103600083015261341a816133de565b9050919050565b7f4552433732313a20617070726f76652063616c6c6572206973206e6f74206f7760008201527f6e6572206e6f7220617070726f76656420666f7220616c6c0000000000000000602082015250565b600061347d603883612c3c565b915061348882613421565b604082019050919050565b600060208201905081810360008301526134ac81613470565b9050919050565b7f4552433732313a207472616e736665722063616c6c6572206973206e6f74206f60008201527f776e6572206e6f7220617070726f766564000000000000000000000000000000602082015250565b600061350f603183612c3c565b915061351a826134b3565b604082019050919050565b6000602082019050818103600083015261353e81613502565b9050919050565b7f4f776e61626c653a2063616c6c6572206973206e6f7420746865206f776e6572600082015250565b600061357b602083612c3c565b915061358682613545565b602082019050919050565b600060208201905081810360008301526135aa8161356e565b9050919050565b7f4552433732313a206f776e657220717565727920666f72206e6f6e657869737460008201527f656e7420746f6b656e0000000000000000000000000000000000000000000000602082015250565b600061360d602983612c3c565b9150613618826135b1565b604082019050919050565b6000602082019050818103600083015261363c81613600565b9050919050565b7f4552433732313a2062616c616e636520717565727920666f7220746865207a6560008201527f726f206164647265737300000000000000000000000000000000000000000000602082015250565b600061369f602a83612c3c565b91506136aa82613643565b604082019050919050565b600060208201905081810360008301526136ce81613692565b9050919050565b7f796f752063616e206e6f74207769746864726177207468697320746f6b656e2760008201527f732062616c616e63650000000000000000000000000000000000000000000000602082015250565b6000613731602983612c3c565b915061373c826136d5565b604082019050919050565b6000602082019050818103600083015261376081613724565b9050919050565b7f4e487b7100000000000000000000000000000000000000000000000000000000600052601160045260246000fd5b60006137a182612cec565b91506137ac83612cec565b9250828210156137bf576137be613767565b5b828203905092915050565b7f796f75206861766520746f207761697420756e74696c6c20646561646c696e6560008201527f2070617373000000000000000000000000000000000000000000000000000000602082015250565b6000613826602583612c3c565b9150613831826137ca565b604082019050919050565b6000602082019050818103600083015261385581613819565b9050919050565b61386581612b76565b82525050565b6000602082019050613880600083018461385c565b92915050565b6000819050919050565b61389981613886565b81146138a457600080fd5b50565b6000815190506138b681613890565b92915050565b6000602082840312156138d2576138d1612b6c565b5b60006138e0848285016138a7565b91505092915050565b6138f281613886565b82525050565b600060208201905061390d60008301846138e9565b92915050565b7f63616c6c6572206973206e6f74207468652076616c696420524e430000000000600082015250565b6000613949601b83612c3c565b915061395482613913565b602082019050919050565b600060208201905081810360008301526139788161393c565b9050919050565b7f4e487b7100000000000000000000000000000000000000000000000000000000600052601260045260246000fd5b60006139b982612cec565b91506139c483612cec565b9250826139d4576139d361397f565b5b828206905092915050565b60006139ea82612cec565b91506139f583612cec565b925082613a0557613a0461397f565b5b828204905092915050565b6000613a1b82612cec565b9150613a2683612cec565b9250827fffffffffffffffffffffffffffffffffffffffffffffffffffffffffffffffff03821115613a5b57613a5a613767565b5b828201905092915050565b6000613a7182612cec565b9150613a7c83612cec565b9250817fffffffffffffffffffffffffffffffffffffffffffffffffffffffffffffffff0483118215151615613ab557613ab4613767565b5b828202905092915050565b6000604082019050613ad56000830185612e17565b613ae26020830184612e17565b9392505050565b7f4f776e61626c653a206e6577206f776e657220697320746865207a65726f206160008201527f6464726573730000000000000000000000000000000000000000000000000000602082015250565b6000613b45602683612c3c565b9150613b5082613ae9565b604082019050919050565b60006020820190508181036000830152613b7481613b38565b9050919050565b7f4552433732313a206f70657261746f7220717565727920666f72206e6f6e657860008201527f697374656e7420746f6b656e0000000000000000000000000000000000000000602082015250565b6000613bd7602c83612c3c565b9150613be282613b7b565b604082019050919050565b60006020820190508181036000830152613c0681613bca565b9050919050565b7f4552433732313a207472616e73666572206f6620746f6b656e2074686174206960008201527f73206e6f74206f776e0000000000000000000000000000000000000000000000602082015250565b6000613c69602983612c3c565b9150613c7482613c0d565b604082019050919050565b60006020820190508181036000830152613c9881613c5c565b9050919050565b7f4552433732313a207472616e7366657220746f20746865207a65726f2061646460008201527f7265737300000000000000000000000000000000000000000000000000000000602082015250565b6000613cfb602483612c3c565b9150613d0682613c9f565b604082019050919050565b60006020820190508181036000830152613d2a81613cee565b9050919050565b600081519050613d4081612cf6565b92915050565b600060208284031215613d5c57613d5b612b6c565b5b6000613d6a84828501613d31565b91505092915050565b6000604082019050613d886000830185612d81565b613d956020830184612e17565b9392505050565b7f4552433732313a20617070726f766520746f2063616c6c657200000000000000600082015250565b6000613dd2601983612c3c565b9150613ddd82613d9c565b602082019050919050565b60006020820190508181036000830152613e0181613dc5565b9050919050565b7f4552433732313a207472616e7366657220746f206e6f6e20455243373231526560008201527f63656976657220696d706c656d656e7465720000000000000000000000000000602082015250565b6000613e64603283612c3c565b9150613e6f82613e08565b604082019050919050565b60006020820190508181036000830152613e9381613e57565b9050919050565b7f45524337323155524953746f726167653a2055524920717565727920666f722060008201527f6e6f6e6578697374656e7420746f6b656e000000000000000000000000000000602082015250565b6000613ef6603183612c3c565b9150613f0182613e9a565b604082019050919050565b60006020820190508181036000830152613f2581613ee9565b9050919050565b600081905092915050565b6000613f4282612c31565b613f4c8185613f2c565b9350613f5c818560208601612c4d565b80840191505092915050565b6000613f748285613f37565b9150613f808284613f37565b91508190509392505050565b6000613f9782612cec565b91506000821415613fab57613faa613767565b5b600182039050919050565b7f45524337323155524953746f726167653a2055524920736574206f66206e6f6e60008201527f6578697374656e7420746f6b656e000000000000000000000000000000000000602082015250565b6000614012602e83612c3c565b915061401d82613fb6565b604082019050919050565b6000602082019050818103600083015261404181614005565b9050919050565b600081519050919050565b600082825260208201905092915050565b600061406f82614048565b6140798185614053565b9350614089818560208601612c4d565b61409281612c80565b840191505092915050565b60006080820190506140b26000830187612d81565b6140bf6020830186612d81565b6140cc6040830185612e17565b81810360608301526140de8184614064565b905095945050505050565b6000815190506140f881612ba2565b92915050565b60006020828403121561411457614113612b6c565b5b6000614122848285016140e9565b91505092915050565b7f4552433732314d657461646174613a2055524920717565727920666f72206e6f60008201527f6e6578697374656e7420746f6b656e0000000000000000000000000000000000602082015250565b6000614187602f83612c3c565b91506141928261412b565b604082019050919050565b600060208201905081810360008301526141b68161417a565b9050919050565b60006141c882612cec565b91507fffffffffffffffffffffffffffffffffffffffffffffffffffffffffffffffff8214156141fb576141fa613767565b5b600182019050919050565b7f4e487b7100000000000000000000000000000000000000000000000000000000600052603260045260246000fd5b7f4552433732313a206d696e7420746f20746865207a65726f2061646472657373600082015250565b600061426b602083612c3c565b915061427682614235565b602082019050919050565b6000602082019050818103600083015261429a8161425e565b9050919050565b7f4552433732313a20746f6b656e20616c7265616479206d696e74656400000000600082015250565b60006142d7601c83612c3c565b91506142e2826142a1565b602082019050919050565b60006020820190508181036000830152614306816142ca565b905091905056fea2646970667358221220cd625cc64dc9d2fe44970150162545b0683dc241011a2769fa93da601d5c11f164736f6c634300080b0033",
  "linkReferences": {},
  "deployedLinkReferences": {}
}